:4000000000800020110000000D0600000D06000008B5044B1A6803F53F5302331A6000F0FDFA00BFFA46004010B5054C237833B9044B13B10448AFF300800123237010BD5A
:400040009081FF1F00000000E0190000084B10B51BB108480849AFF300800848036803B910BD074B002BFBD0BDE81040184700BF00000000E01900009481FF1F0881FF1F3F
:400080000000000008B50122024B1A7000F08AFE08BD00BFAC81FF1F08B50122024B5A7000F088FD08BD00BFAC81FF1F08B50122024B9A7000F06EFE08BD00BFAC81FF1FA5
:4000C00008B50122024BDA7000F0A4FD08BD00BFAC81FF1F08B50122024B1A7100F052FE08BD00BFAC81FF1F08B50122024B5A7100F0F0FD08BD00BFAC81FF1F10B5044CA9
:40010000A07100F0B3FCA07900F090FC10BD00BFAC81FF1F38B500F095FC054684B200F097FCC4F30524012C12D115B1052D05D00AE0094B9879FFF7E1FF38BD3320FFF711
:40014000DDFF064B1D7038BD3120FFF7D7FF38BD3220FFF7D3FF38BDAC81FF1F0C81FF1F10B501F0DFF8044601F0E2F8402C02D0412C03D010BD034B1C7010BD1120FFF7FE
:40018000BDFF10BD0C81FF1F10B5044601F0DEF8204601F0BBF810BD70B500F0ADFE00F0C5FE002000F0C6FE012000F063FF002000F054FF002000F0C9FE00F0D5FE84B271
:4001C000192001F09BFB344A138901331381B4F5966F02D25378002BECD0012000F03EFF2D4B5B784BB100F09BFE2120FFF786FF0022294B5A70FF204CE0274B1E8900206B
:4002000000F02CFF002000F0A1FE00F0ADFE85B2192001F073FB204A138901331381B5F5966F02D95378002BECD0012000F016FF194B5B784BB100F073FE2020FFF75EFF33
:400240000022154B5A70FF2024E0134B1C8900F067FEA41B04EBD4746410A3B25B00023B032B04D92020FFF749FFFF2012E0002000F000FF002000F0F1FEE4B204E0192005
:4002800001F03CFB013CE4B2002CF8D1012000F0E5FE002040B270BDAC81FF1F70B500F02BFE00F043FE002000F044FE012000F06DFF002000F05EFF012000F047FE00F0DF
:4002C00053FE84B2192001F019FB344A538901335381B4F5966F02D2D378002BECD0012000F048FF2D4BDB784BB100F019FE2120FFF704FF0022294BDA70FF204CE0274B26
:400300005E89002000F036FF012000F01FFE00F02BFE85B2192001F0F1FA204A538901335381B5F5966F02D9D378002BECD0012000F020FF194BDB784BB100F0F1FD2020F3
:40034000FFF7DCFE0022154BDA70FF2024E0134B5C8900F0E5FDA41B04EBD4746410A3B25B00023B032B04D92020FFF7C7FEFF2012E0002000F00AFF002000F0FBFEE4B283
:4003800004E0192001F0BAFA013CE4B2002CF8D1012000F0EFFE002040B270BDAC81FF1F08B5012000F0F2FE002000F0E3FE0D4B9B78002BFBD0012000F0DCFE012000F01F
:4003C00059FE002000F04AFE064B1B78002BFBD0012000F043FE034B00229A701A701A815A8108BDAC81FF1F10B5002000F042FE002000F033FEC82404E0192001F07EFAD0
:40040000013CE4B2002CF8D1012000F027FE002000F0BCFE002000F0ADFEC82404E0192001F06CFA013CE4B2002CF8D1012000F0A1FE10BD10B500F05FFD00F077FD0020FF
:4004400000F078FD002000F0B9FE002000F0AAFEC82404E0192001F051FA013CE4B2002CF8D1012000F09EFE012000F06FFD00F07BFD80B2B0F5966F06D200F051FD2020C7
:40048000FFF73CFEFF2024E0002000F08BFEC82404E0192001F032FA013CE4B2002CF8D1012000F07FFE012000F050FD00F05CFD80B2B0F5966F06D900F032FD2020FFF71D
:4004C0001DFEFF2005E000F02BFD1020FFF716FE002040B210BD00BF08B5002000F06EFE002000F05FFE054B5B79002BFBD0012000F058FE0022014B5A7108BDAC81FF1F7D
:4005000008B5012000F05AFE002000F04BFE054B1B79002BFBD0012000F044FE0022014B1A7108BDAC81FF1F08B53020FFF7E6FD62B600F0E1FA00F06BFA2B4800F004FB86
:4005400000F0A6FA00F092FA00F044FF00F0D0FE264800F067FF00F00BFF00F0F7FE244800F01AFB234800F0FFFB234800F0D4FB224800F041FB224800F072FB214800F035
:400580009BFB00F05DFD00F0E7FD00F089FE1E4B1B78052B02D0402B1AD020E03320FFF7ADFDFFF7F9FD10B9FFF778FE10B1FFF7F7FE14E0FFF73EFF10B1FFF7A1FF0EE091
:4005C000FFF712FFFFF788FF0520FFF7DDFD06E0FFF796FFFFF7E4FE0120FFF7D5FD3022094B1A70D3E700BF15010000610100008500000099000000AD000000C1000000A3
:40060000D5000000E90000000C81FF1F08B501F0A7F903680C2B00D1FEE7FEE708B5104E104D16E029686B68AC68002204E051F8040B43F8040B0432A242F8D1E8680022E3
:4006400003E0002143F8041B04328242F9D11035013E002EE6D101F089F9FFF765FFFEE701000000301A000008B5134A134B1A60134A136843F40073136000230AE0032BD0
:4006800003D8104A52F8231000E00F490F4A42F8231001332F2BF2D90D4B1A780D4B1A700A4A0D4B1A6000F0F9F801F019F800220A4B1A6008BD00BF0004FA050CED00E00B
:4006C00014ED00E0000000000D0600000080FF1FBC7600400481FF1F08ED00E00081FF1FFEE700BFF0B40022174611E050F82760F3B226F0FF0608E001EB420511F8124022
:400700006D78A5550132013BDBB2002BF4D10137292FEBD9F0BC704708B50A46002101F056F908BD38B50B222E4B1A8018232E490B7002310A802D4A1370132102321180FA
:400740000232137077222A490A8002310B7002310A8002310B7002310A80264A13700222254B1A7008224FF040231A70032103F500731970214B1B78DBB221490B70214BFA
:400780001A8041F25122023B1A80002419250CE01D4B1B7803F0010343EA440404F003044FF4F07001F0CCF8013D0DB1032CEFD115B90320FFF794FF144B4FF480721A8087
:4007C00007221A70002212490A704820023108701A700222033B1A700E4A137843F03F03137038BD8040004082400040864000408C400040964000400043004008010049F7
:40080000A146004022420040254200400440004006400040A2430040F8B5164B1B78DBB2154E3478E4B2154F3D78EDB203F00701134A11701B090132137044F003033370FC
:4008400045F003033B7003220E4B1A7040230E4A13700232137030220C4B1A70202203331A700A2001F060F83D7034704422084B1A70F8BDCF010049F8460040F94600408E
:400880006E5800403D51004009590040285B00407658004008B501F08FF808BD38B572B6374A137843F00403137000240CE0354963001A1952000A4423445B00C85891885A
:4008C000FFF72AFF0134E4B2052CF0D94FF090402D49FFF707FF2D480421FFF71DFF2C482C490422FFF7D6FF2B4A137843F0020313701032137843F002031370274C2378BC
:4009000043F040032370A2F58632513A137843F010031370224823490A22FFF7BBFF224822490822FFF7B6FF214822490822FFF7B1FF214821490822FFF7ACFF2048214910
:400940000A22FFF7A7FF204820490A22FFF7A2FF1F4A137843F0080313701E4D61232B70FFF7E0FE81232B7001221B4B1A70FFF753FF1A4821460E22FFF78CFF38BD00BF40
:40098000E8460040E4190000A800004800760040087600404C0C004803500140A043004000510040100C0048C25100401C0C0048F2510040240C0048125100402C0C00483B
:4009C00020510040340C004830510040400C0048224300400048004004000840B043004008B500F0B5FF094A137843F0200313700132137843F0100313700332137843F02B
:400A00001003137000F0A8FF08BD00BF92640040704700BF014B1878704700BF63640040014B1878704700BF66640040034B1B7813F0020FFAD0024B187070476364004052
:400A400045640040014B1878704700BF5564004001E0044B1B78044B1B7813F0080FF8D1704700BF556400406664004008B500F06FFF064B1A7842F003021A701A7802F0FE
:400A8000FC021A7000F068FF08BD00BF9564004008B501E00A4B1B780A4B1B7813F0080FF8D100F055FF084B1A7842F003021A701A7802F0FC021A7000F04EFF08BD00BF92
:400AC00055640040666400409564004008B50722074B1A70FFF7DCFFFFF79CFFFFF7A0FF0022044B1A70082203331A7008BD00BF826400408364004008B5054B1B7823B9CF
:400B0000FFF7E4FF0122024B1A70FFF769FF08BDB881FF1F014B1B685864704708ED00E04001C0B2014B1870704700BF01E400E00222014B1A60704700E100E00222014BBD
:400B40001A60704780E100E010B50446FFF7F6FF2046FFF7DFFF0720FFF7E2FFFFF7E8FF10BD00BF014B1B685865704708ED00E04001C0B2014B1870704700BF05E400E08A
:400B80002022014B1A60704700E100E02022014B1A60704780E100E010B50446FFF7F6FF2046FFF7DFFF0720FFF7E2FFFFF7E8FF10BD00BF024B187800F00100704700BFD6
:400BC00080450040014B1B689865704708ED00E04001C0B2014B1870704700BF06E400E04022014B1A60704700E100E04022014B1A60704780E100E010B50446FFF7F6FF17
:400C00002046FFF7DFFF0720FFF7E2FFFFF7E8FF10BD00BF024B187800F00100704700BF82450040014B1B681867704708ED00E04001C0B2014B1870704700BF0CE400E021
:400C40004FF48052014B1A60704700BF00E100E04FF48052014B1A60704700BF80E100E010B50446FFF7F4FF2046FFF7DBFF0720FFF7DEFFFFF7E4FF10BD00BF014B1B6874
:400C8000D866704708ED00E04001C0B2014B1870704700BF0BE400E04FF40062014B1A60704700BF00E100E04FF40062014B1A60704700BF80E100E010B50446FFF7F4FFE2
:400CC0002046FFF7DBFF0720FFF7DEFFFFF7E4FF10BD00BF024B187800F00100704700BF8C450040014B1B68D865704708ED00E04001C0B2014B1870704700BF07E400E0AA
:400D00008022014B1A60704700E100E08022014B1A60704780E100E010B50446FFF7F6FF2046FFF7DFFF0720FFF7E2FFFFF7E8FF10BD00BF014B1B681865704708ED00E000
:400D40004001C0B2014B1870704700BF04E400E01022014B1A60704700E100E01022014B1A60704780E100E010B50446FFF7F6FF2046FFF7DFFF0720FFF7E2FFFFF7E8FF3F
:400D800010BD00BF024B187800F00100704700BF8F450040024B1878C0F38000704700BF83450040024B1878C0F38000704700BF8145004070B50B4A137803F0FE031370B9
:400DC000094E307800F0C2FC084C207800F05AFDFF252570707800F0B9FC607800F052FD657070BD77650040BC81FF1F0D81FF1F10B5022001214FF4804241F6FF7300F0EA
:400E000015FC084C20700420012141F6FF72134600F02CFC6070044800F046FC002000F049FC10BDBC81FF1F710F000070B52C4C207800F09DFC607800F09AFC294B1B78F0
:400E4000FF2B03D100F004FD264B1870254D2A7810460421062300F02DFD214E341DA4B2287845F6A231224600F038FD3078297800F0BEFC6B78FF2B02D100F0E9FC6870E7
:400E8000184D6A7810460421072300F013FD68782146154A92B200F021FD114C6078697800F0A6FC2078012100F034FC6078012100F030FC00F04CFD0C4A137843F0200346
:400EC000137000F049FD0A4B1A7842F001021A701A7842F002021A700122064B1A6070BDBC81FF1F0D81FF1FD081FF1F986500407765004080E200E008B5074B9B6823B927
:400F0000FFF776FF0122044B9A60FFF78FFF00F04DFB024B1B7808BDBC81FF1F6665004008B500F0FBFAFFF745FF08BD08B500F04BFB08BD044B1B7803F0FF020BB90028F8
:400F4000F8D01046704700BF66650040C0F10100034B33F81030034A1088181A00B27047D081FF1FDC81FF1F08B500F035FB08BD704700BF024A137843F08003137070471E
:400F800075650040014B1880704700BF086A0040014B1880704700BF886A0040014B1880704700BF486A0040014B1870704700BF85650040014B1878704700BF6565004063
:400FC000014B188880B27047A86A004008B501E0FFF7F6FFFFF7EEFF10F0100FF8D108BD10B5154A137803F0C00343F0090313701F32137843F001031370104C237843F0CA
:40100000010323704FF4FA70FFF7BCFF4FF4FA70FFF7BEFFFA20FFF7C1FF0420FFF7C4FF00F096FC237843F01003237000F094FCFFF7CCFF10BD00BF756500409565004097
:4010400008B5054B1B7823B9FFF7CAFF0122024B1A70FFF78FFF08BDC881FF1F044A137803F0EF03000100F0100018431070704730510040044A137803F0F703C00000F003
:40108000080018431070704730510040024A137843F080031370704770640040014B1880704700BF00680040014B1880704700BF80680040014B1880704700BF4068004034
:4010C000014B1870704700BF80640040014B1878704700BF60640040014B188880B27047A068004008B501E0FFF7F6FFFFF7EEFF10F0100FF8D108BD10B5154A137803F054
:40110000C00343F009031370124C237843F0010323702132137843F0010313704FF4FA70FFF7BCFF4FF4FA70FFF7BEFFFA20FFF7C1FF0420FFF7C4FF00F00AFC237843F0A0
:401140001003237000F008FCFFF7CCFF10BD00BF706400409064004008B5054B1B7823B9FFF7CAFF0122024B1A70FFF78FFF08BDC981FF1F044A137803F0BF03800100F05B
:40118000400018431070704700510040044A137803F0DF03400100F0200018431070704700510040044A137803F0BF03800100F0400018431070704720510040044A13784F
:4011C00003F0DF03400100F0200018431070704720510040024A137843F08003137070477D640040014B1880704700BF10680040014B1880704700BF90680040014B188016
:40120000704700BF50680040014B1870704700BF89640040014B1878704700BF69640040014B188880B27047B068004008B501E0FFF7F6FFFFF7EEFF10F0100FF8D108BD24
:4012400010B5154A137803F0C00343F0090313701B32137843F001031370104C237843F0010323704FF4FA70FFF7BCFF4FF4FA70FFF7BEFFFA20FFF7C1FF0420FFF7C4FF89
:4012800000F066FB237843F01003237000F064FBFFF7CCFF10BD00BF7D6400409964004008B5054B1B7823B9FFF7CAFF0122024B1A70FFF78FFF08BDCA81FF1F08B500F0DB
:4012C00047FB0A4A137843F020031370013A137843F0100313700432137843F01003137000F03AFB00F0EEF908BD00BF9C640040704700BF014B1878704700BF6B64004044
:40130000014B1878704700BF6F640040034B1B7813F0040FFAD0024B187070476B6400404C640040014B1878704700BF5C64004001E0044B1B78044B1B7813F0200FF8D10A
:40134000704700BF5C6400406F64004008B500F0FFFA064B1A7842F001021A701A7802F0FE021A7000F0F8FA08BD00BF9C64004008B501E00A4B1B780A4B1B7813F0200F48
:40138000F8D100F0E5FA084B1A7842F001021A701A7802F0FE021A7000F0DEFA08BD00BF5C6400406F6400409C64004008B50F22064B1A70FFF7DCFFFFF79CFFFFF7A0FF84
:4013C0000023034A13700432137008BD8C6400408B64004008B5054B1B7823B9FFF7E6FF0122024B1A70FFF769FF08BDCB81FF1F014B1B689864704708ED00E04001C0B235
:40140000014B1870704700BF02E400E00422014B1A60704700E100E00422014B1A60704780E100E010B50446FFF7F6FF2046FFF7DFFF0720FFF7E2FFFFF7E8FF10BD00BFB9
:4014400008B50A280FD00C2802D0082806D102E04FF4805209E04FF4807206E0002000F04BFA002201E04FF480620021094B198042F2107303FB02F303F6C413064A82FBC4
:401480000302DB17C3EBE223044A1360044B198008BD00BFD681FF1FAD8BDB68D881FF1FDC81FF1F10B500F053FA0446184A137843F0020313701032137843F002031370F7
:4014C00002F5AA521032137843F0030313701822104B1A70013B1A7842F040021A701A7802F0FC021A70C822053B1A700222A3F59753123B1A70084A137843F008031370AA
:401500000A2000F011FA204600F026FA10BD00BFAB4300400E5900402F5B004008B500F017FA0A4A137803F0FE031370A2F5AA521D3A137803F0FD0313701032137803F026
:40154000FD03137000F008FA08BD00BF0859004010B504460A280DD00C2802D0082804D101E0C22207E0422205E0002000F0C4F9C22200E08222034B1A702046FFF760FFEB
:4015800010BD00BF0A59004008B5064A137843F0060313700A20FFF7DBFF0022024B1A8008BD00BF09590040D481FF1F08B5054B1B7823B9FFF7E8FF0122024B1A70FFF7C0
:4015C00071FF08BDCC81FF1F024A137843F001031370704708590040114B1B889BB233B10F4B198809B201EB8101490001E00D4B19680D4B1A88821A12B242F2107000FB02
:4016000002F0002A03DD01EBD1735B1003E001EBD17252105342034493FBF1F000B27047D681FF1FD881FF1FD481FF1FF0B583B086460F4616461D460B4C012323700022A4
:4016400000920192184671463A4600F0DDF8207831462A4600F0B2F82078022100F09CF8207803B0F0BD00BF0F81FF1FF0B583B086460F4616461D460A4C002323700093D7
:401680000193184671463A4600F0BEF8207831462A4600F093F82078022100F07DF8207803B0F0BD1081FF1F014B1B681864704708ED00E04001C0B2014B1870704700BFC6
:4016C00000E400E0054A137843F0020313701032137843F002031370704700BFA24300400B4A7F2313708021517007E0DA0002F1804202F5F042013BDBB21370002BF5D1B6
:40170000DB0003F1804303F5F04300221A7070471481FF1F172815D831B103010A495A5C42F020025A5405E0030107495A5C02F0DF025A540001044A835C43F0010383540D
:4017400000207047012070471070004017280BD80001064BC25C02F0FE02C254C25C02F0DF02C25400207047012070471070004017280CD80001074BC1180A7942F00402E0
:401780000A71C25C42F00102C254002070470120704700BF1070004017280BD80001064A835C03F0F10301F0070143EA4101815400207047012070471070004041F6FF7389
:4017C000994201D14FF4005141F6FF739A4201D14FF40052172808D8C00000F1804000F5EC408180C280002070470120704700BF172805D8034B03EB001041720020704768
:40180000012070471070004017281BD810B4C00000F1804404F5EC44D201D2B201F07F01114321709DF804201201D2B203F00F03134363709DF8083003F00F03A37000204C
:40184000E07001E0012070475DF8044B704700BF10B500F07DF80A4B5B78182B0BD9084A1478013B5370E30003F1804303F5F0431B78137000E0FF2400F06EF8204610BD88
:401880001481FF1F10B5044610F0800F0FD100F05FF8E30003F1804303F5F043044A11781970147053780133537000F055F810BD1481FF1F10F0800F0CD111F4704F0BD17C
:4018C000C00000F1804000F5F04001808270C37000207047012070470120704710F0800F08D1C00000F1804000F5F0408180C280002070470120704701BE704710B50446B0
:4019000005E0084B186800F01BF8A4F50044B4F5004FF6D8034B586800FB04F000F010F810BD00BF1C81FF1F08B5034B1B7A03FB00F000F005F808BD1C81FF1F0000000012
:401940000230800803D000BF01380046FCD17047EFF3108072B6704780F31088704700BF014B1868704700BF8C81FF1F0E4B70B51E460E4C0025E41AA410A54204D056F8BD
:40198000253098470135F8E700F040F8084B094C1E46E41AA4100025A54204D056F8253098470135F8E770BD181A0000181A0000181A0000201A000010B5431E0A4491423D
:4019C00004D011F8014B03F8014FF8E710BD03460244934202D003F8011BFAE7704700000000000040510040300000000140001000140140000800400140000A004C01401B
:401A0000000200500140200043000000F8B500BFF8BC08BC9E4670474D00000069060000F8B500BFF8BC08BC9E46704729000000401A00000881FF1F8800000050000000F4
:401A40000000000030FFFFFFFF0000007F800000030000000000E02EC05D00001800000000366E010000000000000000000000000000000000000000000000000000000050
:401A800000000000081A0000000000000000000000000000000000000000000000000000000000000000000000000000000000000000000000000000000000000000000004
:401AC000000000002C81FF1F00000000000000000000000000000000000000000000000000000000000000000000000000000000000000000000000000000000000000001B
:401B000000000000000000000000000000000000000000000000000000000000000000000000000000000000000000000000000000000000000000000000000000000000A5
:401B40000000000000000000000000000000000000000000000000000000000000000000000000000000000000000000000000000000000000000000000000000000000065
:401B80000000000000000000000000000000000000000000000000000000000000000000000000000000000000000000000000000000000000000000000000000000000025
:401BC00000000000000000000000000000000000000000000000000000000000000000000000000000000000000000000000000000000000000000000000000000000000E5
:020000040003F7
:0200000480007A
:400000000645004004520040015B004006640040026500405B0001402F0101403902014041030140240401404E05014019060140380701404A08014040090140140A01404B
:400040004A0B0140440C01404A0D01404C0E0140310F014043140140321501401F1601403A170140231801404A1901400E1A0140351B01400C400140104101400A420140B7
:4000800008430140104501400346014003470140034801400E490140044C0140034D01400A5001400251014000010A0110011A016001780101821088119819222F84800D43
:4000C000820783478678890D8C0F850D8801060207010A0217022101260429022E012F02300432023302340137013E043F044060410249FF4AFF4BFF4DA04F045018528090
:400100005405580459045A045B045C335D335F01604062C06440654066C068C06AC06CC06EC08002830284028701880289028C029102950298019B019D029E05B102B201D5
:40014000B404B602B701BE44BF01C060C102C5D1C620C80BC9FFCAFFCBFFCDAFCE0FCF04D018D608D804D904DA04DB04DC30DD03DF01E040E2C0E440E540E6C0E8C0EAC0D1
:40018000ECC0EEC0012003200428062007490E040F011002110419351D801E041F04224827822804298130083510374939043D043E203F024320452049104D265520572003
:4001C00059065A805F80670170028B02C0F6C2C0C405CA0DCCF2CEE2D024D224D61BD810E2280401050206080A200C010E10121E1302144015021A811C201D022401260409
:400200002B012C012E02308031013220341F350236403E543F1056025720580459045B245C085D805E085F2189058B0A8D109102930D95099706A710AB10AD03AF0CB10F27
:40024000B50FB710BB22BF40D441D804D904DB04DC12DF01002002010310040805200701086009080E420F281220150417401C101D601E4020082102224024402611281004
:4002800029A02D2030083102374538403B103D0459045AA06010654066806C146D046F457C807F2080A083909318942899809F41A008A180A208A701A808A980B004B310AD
:4002C000C0E7C2F7C4A4CA2ECCD3CE4CD60ED812DE50E604EA05580459045C225F019D01A701B301BF04C001C104C210C402C5FEC6B0C7DCC83BC9FFCAFFCBFFCC22CEF058
:40030000CF0CD08CD110D608D804D904DA24DB04DC22DD08DF21E840E901EAC0EB0100200201031005400601074009080B800F0410401220144015911620171024102840B9
:4003400029802B012C202D102FC0310833503480362239803A213B803C203D093E2045A0468048084A044C804E10542857015D805E286410652466407F20801086408710C0
:400380009308962098809A809C509D249E019F10A1A0A218A3A0A410A508A620A701AB20B014B704C097C24CC4FCCAE1CCBECEEDD0B0D670D870DE40E840030214011C04C5
:4003C0001F0121012E0330043103320236013E0154205604580F59045B045C925F01D608D804D904DB04DC22DD90DF0101800310084009040B040C800E21126017801E207E
:400400001F412780284029C02F40312032023350378039803AE03F014BC05A405E0163016601671A7E40820187408E4091809318970499409C409E209F50A080A508A622AF
:40044000A904AA01B608C005C2A7C48CCA89CC1DCE8CD688D8F8DE80E440EA04020204080A0812101C042002260128012E042F01301F370138023E014050410249FF4AFF18
:400480004BFF4DA04F045018580459045A045C225D055F01604062C06440654066C068C06AC06CC06EC0870289019B05A302B302B504B701BF04C010C103C5D1C702C81307
:4004C000C9FFCAFFCBFFCDAFCE0FCF04D018D405D804D904DA04DB04DC52DD55DF01E040E2C0E440E540E6C0E8C0EAC0ECC0EEC0000401C004240580068009080A410D2A16
:400500000E21111012401510164817491E402110224427012A022B402D082E803060334035803684370139203A043E49420243084604482049014E014F8052045308590123
:400540005A888B1090049203942095109C409D089E40A204A420A680A804B580C0F5C2FDC4FACA51CCD4CED6D02AD210D60BEC40580459045C225F018A028D01A201A90134
:40058000AD01B402B601B701BF40D409D804D904DB04DC22DD10DF010004024004240501064008040A050C040E05111012801440151017401C041D101E091F802701280447
:4005C0002B802C102D082E64301032803340340435013680380439103A403C043D503E01468047015D805E225F0466807A107B109140924293049510960598049A209D1071
:400600009E409F40A201A310A420A680A921AB20AE10B004B340C07CC2E7C4DACA75CCDCCEFED6F0D810E820EA01EC88018405840D6011041507173819011D0A1F10218468
:400640002556270929802B042D042F803180357F39203F014053410642404402450E46CB47FD483D49FF4AFF4BFF4C224EF04F0850045602572C580459045A045B045C1259
:400680005D115F0162C0644065016610671168C069016B116C406D016E406F0183018F029B02B101B302D280D804D904DB04DC52DD50DF01024405100604074008040A0507
:4006C0000C040E051110128015101640204022012310250226112C102E022F0A30203580361A38423D053F804410450A462047204C024DC04E084F045501575467406C8018
:400700006D056E086F0A700176027701800482808710900492409D209E029F01A002A108A20AA480A604A71EA908AA48B002B201B401C05AC2E7C45ACAF0CCF4CED9D0E07E
:40074000D230D880E00CEE8001D0050E09200A020BD00C010D130F241125134A15D0160319241B8921D029D02DD02E03320333F0350F360339203B08580459045C115F01F0
:40078000801A8131830E841C8603874089208C188D088E028F1390139144920494029544981899279A029C019D019E189F06A01AA144A402A618A940AB04AC18AD04AF403A
:4007C000B013B107B338B540B60FBA80BB0ABF10D440D604D804D904DB04DC11DD10DF0100500582071009080E490F201002174518121C401E412004231025282602277090
:40080000280829022B022C802D822F0A3002331C34083604376138443A023B103D043E413F28452046046402652066046780874088028904C0B3C2F4C4B1CABDCCF7CEFF65
:40084000D8F04030410249FF4AFF4BFF4DA04F045018580459045A045C225D045F01604062C06440654066C068C06AC06CC06EC08701920196029901A702AA06AB02B00242
:40088000B201B404B502B701BF10C030C102C5D0C620C701C81AC9FFCAFFCBFFCDAFCE0FCF04D018D280D405D804D904DA04DB04DC44DD44DF01E040E2C0E440E540E6C0D5
:4008C000E8C0EAC0ECC0EEC00180026008400C020D081080121216081C801D181F0826402708284029802F283080322235103A703E084120430845284F015520560857204B
:400900005E805F0974028440984099809A60A080A222AE40B040B501C00DC231C44DCA69CC2DCE4CD066D6D0EC20EE440B010C010D0111011401180119011C011F012001C4
:40094000210126012C012D01300137015401580459045B0F5C225D205F01D203D302D804D904DB04DC22DD20DF0101800210054008400A400C400D281080122216701740EE
:400980001D012640284029402A202C802D8031283340344036223A403EE05F4068066A807E408480852088069340968099C09AE09B409C40A108A222A520AA20AB40AD0814
:4009C000AE02AF04B504B620C085C2E9C4BDCA9DCCBECE38D610DE80E208EA02EE010004042006100A010C020D0110801240144016801A081E0422022408250128012C1044
:400A00002E2030FF370139803E013F405602573C580459045B0D5C205D205F01D804D904DC22DF01001001080301041805900608074008100AC10C160D100E291380154426
:400A4000160417811D02254028042E402F103110324033013518378139603A023C043E033F40454046015F40658066816C166D046F487580760477087E0886018A088B406D
:400A8000900492419320942095409B019D089E889F48A204A502A610AA08AF01B520B640C0F7C2FBC4F1CA54CCFDCEDDD610D880DE20E020E480EE40580459045C225F01F5
:400AC0008A029201AB01B101B201B402D804D904DC22DF0100200301050406040780080109200A400C020D200E011004110113801405152017011C201D341E2027C02801FB
:400B00002E402F18311433413514378139203A023B203D013E03912092419A049B019D109F80A002A308A610B108B210C073C2DAC4DBCA78CCFFCE85EA80EC20EE04110880
:400B40001680308237103B023E8084028B40C430CC70CE60E2100040060208025A8063408002934097029F10A104A480C0C0C210D480D840E4808240968097029F10A1042E
:400B8000A480AA02B440E680EC20831084808D0497029F10A104A480E2300401234052805C4062016780820187409040B440C004C802D404D604D803E8029340A801AE80D7
:400BC0008B409340E20425029702C880501058106202860290209810AB01AC10B102B410D4A0D840E240EE601F803401C601CC01AB80B001EC04002F0101080F0A050B01EB
:400C00000C260E2610141A141C04003F100A000040001DE2E20082000000000001000000000000000100000000000000040B0B0000000000400003FCFC009C0000000000ED
:400C400010000438380020030300000000010000000000000000000000000000000000000000000000000000000000000000000000000000000000000000000000000000C9
:400C80000000000000000000000000000000000000000000000000000000000000000000000000000000000000000000000000000000000000000000000000000000000034
:400CC00000000000000000000000000000000000000000000000000000000000000000000000000000000000000000000000000000000000000000000000000000000000F4
:400D000000000000000000000000000000000000000000000000000000000000000000000000000000000000000000000000000000000000000000000000000000000000B3
:400D40000000000000000000000000000000000000000000000000000000000000000000000000000000000000000000000000000000000000000000000000000000000073
:0200000490006A
:0400000000004005B7
:0200000490105A
:04000000BC90ACAF55
:0200000490303A
:0200000019A93C
:0200000490402A
:4000000000000000000000000000000000000000000000000000000000000000000000000000000000000000000000000000000000000000000000000000000000000000C0
:400040000000000000000000000000000000000000000000000000000000000000000000000000000000000000000000000000000000000000000000000000000000000080
:400080000000000000000000000000000000000000000000000000000000000000000000000000000000000000000000000000000000000000000000000000000000000040
:4000C0000000000000000000000000000000000000000000000000000000000000000000000000000000000000000000000000000000000000000000000000000000000000
:0200000490501A
:0C00000000012E16106900012E242A12A7
:00000001FF