:400000000080002011000000750100007501000008B5044B1A6803F53F5302331A6000F0B1F800BFFA46004010B5054C237833B9044B13B10448AFF300800123237010BDE2
:400040009081FF1F00000000180C0000084B10B51BB108480849AFF300800848036803B910BD074B002BFBD0BDE81040184700BF00000000180C00009481FF1F0881FF1FE9
:400080000000000008B500F083FA302809D100F043FC00F055FC002000F056FC0122014B1A7008BDAC81FF1FC30003F00F0343EA50007047430003F00F0343EAD000704711
:4000C00038B500240AE0094D2878FFF7F3FF287000F046FD022000F07BFB0134092CF2DD034A53880133538038BD00BF0C81FF1FAC81FF1F38B500240AE0094D2878FFF7DB
:40010000D3FF287000F02CFD022000F061FB0134092CF2DD034A5388013B538038BD00BF0C81FF1FAC81FF1F10B562B600F022FA0D4800F04DFA0D4B1B78002BFBD003E07B
:40014000FFF7BEFF013400E00024094B9C42F7DD002402E0FFF7CEFF0134054B9C42F9DD0022024B1A70E6E785000000AC81FF1F9F86010008B500F00FFD03680C2B00D1A3
:40018000FEE7FEE708B5104E104D16E029686B68AC68002204E051F8040B43F8040B0432A242F8D1E868002203E0002143F8041B04328242F9D11035013E002EE6D100F017
:4001C000F1FCFFF7B1FFFEE7010000007C0C000008B5134A134B1A60134A136843F40073136000230AE0032B03D8104A52F8231000E00F490F4A42F8231001332F2BF2D9D3
:400200000D4B1A780D4B1A700A4A0D4B1A6000F0E1F800F0F9F900220A4B1A6008BD00BF0004FA050CED00E014ED00E000000000750100000080FF1FBC7600400481FF1FC6
:4002400008ED00E00081FF1FFEE700BFF0B40022174611E050F82760F3B226F0FF0608E001EB420511F812406D78A5550132013BDBB2002BF4D10137212FEBD9F0BC7047D3
:4002800008B50A46002100F0BEFC08BD38B51322254B1A801823254A1370192502321580023213700222224B1A7008224FF040231A70032103F5007319701E4B1B78DBB278
:4002C0001D490B701D4B1A8041F25122023B1A8000240CE01A4B1B7803F0010343EA440404F003044FF4F07000F046FC013D0DB1032CEFD115B90320FFF7A6FF114B4FF444
:4003000080721A8007221A7000220F490A704820023108701A700222033B1A700B4A137843F00303137038BD80400040824000400043004008010049A146004022420040CE
:40034000254200400440004006400040A2430040F8B5164B1B78DBB2154E3478E4B2154F3D78EDB203F00701134A11701B090132137044F00303337045F003033B70802303
:40038000A2F26272137040220C490A7002310A700B4A137020220B4B1A700A2000F02EFA3D7034704422084B1A70F8BDCF010049F8460040F94600406E5800400159004039
:4003C000205B0040235B00407658004008B500F00FFC08BD38B572B63A4A137843F00403137000240CE0384963001A1952000A4423445B00C8589188FFF742FF0134E4B254
:40040000062CF0D900240BE02F49A3001A1952000A44D06A116B0622FFF7D8FF0134E4B2002CF1D04FF090402849FFF70FFF28480421FFF725FF274827490422FFF7C6FF6E
:40044000264A137843F0020313701032137843F002031370224C237843F040032370A2F58632513A137843F0100313701D481E490822FFF7ABFF1D481D490A22FFF7A6FFD6
:400480001C481D490822FFF7A1FF1C481C490822FFF79CFF1B4A137843F0080313701A4D61232B70FFF7F2FE81232B700122174B1A70FFF74DFF164821460E22FFF786FF11
:4004C00038BD00BFE84600401C0C00008800004800760040087600405407004803500140A04300400251004030070048C05100403807004812510040440700482251004041
:400500004C070048224300400048004004000840B04300406222084B1A702022033B1A700622A3F5AD731A70472210331A7000224E331A70704700BF8B65004010B500F0E1
:4005400023FB04460A4A137843F020031370033A137843F010031370FC3A137843F01003137000F043F8204600F012FB10BD00BF9B65004008B5054B1B7823B9FFF7CAFFAB
:400580000122024B1A70FFF7D9FF08BDB081FF1F014B1878704700BF48640040014B1B685864704708ED00E04001C0B2014B1870704700BF01E400E00222014B1A607047A7
:4005C00000E100E00222014B1A60704780E100E010B50446FFF7F6FF2046FFF7DFFF0720FFF7E2FFFFF7E8FF10BD00BF054A137843F0020313701032137843F002031370A0
:40060000704700BFA24300400B4A7F2313708021517007E0DA0002F1804202F5F042013BDBB21370002BF5D1DB0003F1804303F5F04300221A7070471081FF1F172815D86C
:4006400031B103010A495A5C42F020025A5405E0030107495A5C02F0DF025A540001044A835C43F00103835400207047012070471070004017280CD80001074BC1180A799C
:4006800042F004020A71C25C42F00102C254002070470120704700BF1070004017280BD80001064A835C03F0F10301F0070143EA410181540020704701207047107000400B
:4006C00041F6FF73994201D14FF4005141F6FF739A4201D14FF40052172808D8C00000F1804000F5EC408180C280002070470120704700BF172805D8034B03EB00104172A7
:4007000000207047012070471070004017281BD810B4C00000F1804404F5EC44D201D2B201F07F01114321709DF804201201D2B203F00F03134363709DF8083003F00F03B9
:40074000A3700020E07001E0012070475DF8044B704700BF10B500F017FA0A4B5B78182B0BD9084A1478013B5370E30003F1804303F5F0431B78137000E0FF2400F008FA61
:40078000204610BD1081FF1F10F0800F0CD111F4704F0BD1C00000F1804000F5F04001808270C37000207047012070470120704710F0800F08D1C00000F1804000F5F0408A
:4007C0008180C280002070470120704701BE704710B5044605E0084B186800F0CDF9A4F50044B4F5004FF6D8034B586800FB04F000F0C2F910BD00BF1881FF1F08B5034B7B
:400800001B7A03FB00F000F0B7F908BD1881FF1F10B5022001214FF4804241F6FF7300F053F9084C20700220012141F6FF72134600F06AF96070044800F084F9002000F011
:4008400087F910BDB481FF1F6109000070B52C4C2078FFF70FFF6078FFF70CFF294B1B78FF2B03D1FFF776FF264B1870254D2A78104602210623FFF787FF214E341DA4B2AB
:40088000287845F6A0312246FFF792FF30782978FFF730FF6B78FF2B02D1FFF75BFF6870184D6A78104602210723FFF76DFF68782146154A92B2FFF77BFF114C607869786B
:4008C000FFF718FF20780121FFF7B8FE60780121FFF7B4FE00F058F90C4A137843F02003137000F055F90A4B1A7842F001021A701A7842F002021A700122064B1A6070BD97
:40090000B481FF1F2881FF1FC481FF1F9A6400407D64004080E200E008B5074B9B6823B9FFF776FF0122044B9A60FFF78FFF00F0B5F8024B1B7808BDB481FF1F68640040AF
:4009400008B500F0B9F808BD044B1B7803F0FF020BB90028F8D01046704700BF68640040704700BF08B50A280FD00C2802D0082806D102E04FF4805209E04FF4807206E0A6
:400980000020FFF723FF002201E04FF480620021094B198042F2107303FB02F303F6C413064A82FB0302DB17C3EBE223044A1360044B198008BD00BFC881FF1FAD8BDB68C9
:4009C000CC81FF1FD081FF1F10B500F0DDF80446184A137843F0010313701032137843F00103137002F5AA520832137843F0030313701822104B1A70013B1A7842F0400246
:400A00001A701A7802F0FC021A70C822053B1A700222A3F597530C3B1A70084A137843F0080313700A20FFF7E9FE204600F0B0F810BD00BFAB43004006590040275B004037
:400A400010B504460A280DD00C2802D0082804D101E0C22207E0422205E00020FFF7B6FEC22200E08222034B1A702046FFF77AFF10BD00BF0259004008B5064A137843F087
:400A8000060313700820FFF7DBFF0022024B1A8008BD00BF01590040CA81FF1F08B5054B1B7823B9FFF7E8FF0122024B1A70FFF78BFF08BDC081FF1F024A137843F001031D
:400AC0001370704700590040F0B583B086460F4616461D460B4C01232370002200920192184671463A46FFF711FE207831462A46FFF7E6FD20780221FFF7D0FD207803B05B
:400B0000F0BD00BF2A81FF1FF0B583B086460F4616461D460A4C0023237000930193184671463A46FFF7F2FD207831462A46FFF7C7FD20780221FFF7B1FD207803B0F0BD8B
:400B40002B81FF1F014B1B681864704708ED00E04001C0B2014B1870704700BF00E400E0044A137803F00F030001C0B203431370704700BF205100400230800803D000BF86
:400B800001380046FCD17047EFF3108072B6704780F31088704700BF014B1868704700BF8C81FF1F0E4B70B51E460E4C0025E41AA410A54204D056F8253098470135F8E78E
:400BC00000F04AF8084B094C1E46E41AA4100025A54204D056F8253098470135F8E770BD640C0000640C0000640C00006C0C000010B5431E0A44914204D011F8014B03F82E
:400C0000014FF8E710BD03460244934202D003F8011BFAE77047000000000000305100404000F0510040100000000140001000140140000800400140000A004C0140000279
:400C4000005001402000000060520040280700480600000043000000F8B500BFF8BC08BC9E4670474D000000D1010000F8B500BFF8BC08BC9E46704729000000900C00002F
:400C80000881FF1F880000004800000000000000000000000C0000007F800000030000000000E02EC05D00001800000000366E01FFFFFFFF000000000000000000000000CB
:400CC0000000000000000000000000000000000000000000540C00000000000000000000000000000000000000000000000000000000000000000000000000000000000094
:400D000000000000000000000000000000000000000000002C81FF1F00000000000000000000000000000000000000000000000000000000000000000000000000000000E8
:400D40000000000000000000000000000000000000000000000000000000000000000000000000000000000000000000000000000000000000000000000000000000000073
:400D80000000000000000000000000000000000000000000000000000000000000000000000000000000000000000000000000000000000000000000000000000000000033
:400DC00000000000000000000000000000000000000000000000000000000000000000000000000000000000000000000000000000000000000000000000000000000000F3
:400E000000000000000000000000000000000000000000000000000000000000000000000000000000000000000000000000000000000000000000000000000000000000B2
:020000040003F7
:0200000480007A
:4000000001520040015B0040016400400265004003030140030501400F0601403307014040080140490901402C0A0140480B0140400C0140450D01402C0E01402B0F0140A7
:400040000115014009170140231801404B1901402F1A0140421B01400940014009410140044201400443014006460140034701400548014001490140034C0140094D014003
:400080000950014002510140008027848C0F88388B629940AD40E6048E109940EA08580459045F0186028A019204B004B202B401D608D804D904DB04DD90DF01006401027D
:4000C00004800514081109900A200B040F64100413401402188019061A281B1028022B082C102D022F083004329434023504368038803B043F205940600183108410880245
:4001000089808C0196209940A110A910C0EFC27FC483CAECCCDECE2AD608D808E209E401EA01020806040A04150116011A101B031E1024012A022C203020320333023410C8
:400140003501360C3E51405441064202440145C0460E480649FF4AFF4BFF4C624DA04EF04F41500C54015804590C5A045B0C5C095D015F016640670269106A306B106D10B5
:400180006E106F12800284018C0890049A089E10A204A601AE02B21FB808BE04D804D904DF01000C012002820301042005080680080209080A060D300E200F011010119500
:4001C0001201160217241A301D811E201F20260827042802292031083292361838043D103E1045A14C014F2157405F8078807A017D40800283A5850189208C808F30914187
:400200009206963098109A029C029D20A002A148A281A404A602A908AA40C07FC2EFC4EFCA0CCC6FCE02D0B0D230D610DE10E220E410EA040202060108400A800B010E086B
:4002400012041410162018081C022004240128202A102C802E40330136FF3E405602573E580459045B0C5F01821586288C038E049403963498039A1C9C2A9E14AA20B23853
:40028000B40FBAA8D804D904DC01DF01000801240286040205040601080609480A040B010D200E21101A1101130415201A021D201E221F14210828022A04310832903404FB
:4002C0003520368239143B023C083E905B04604064026680680A69116A04730579407E027F018C088E8090429160920195049650972A99049A039B049C0C9D209E80A52026
:40030000A680B110B301C0BFC2EFC44FCA0ACCFECE77D602D801DE08E040EA0800800409061008100E03184C1A111C1C1E422020241428502A0C32C03420361F38083E1011
:400340004025410345E046B047C0482A49FF4AFF4BFF4EF04F44500C5401580459045A045B045C015D115F0166C06A406B028A088E039010960C98019A06A00CA203A40171
:40038000A60EA810B010B60FB802BA80BE01D203D302D804D904DB04DC01DF01020E04020544060609280A400C500E01105815011610171018401A011D4C1E0829202A8089
:4003C0002D202F013004328034043680381039043B023C103D043E904410452047104C014D014E02561157015D115E085F80680869406B0479207A088320912095049611EB
:40040000972A98109B809C0C9D209E80A202A320A680A701C0F3C2CEC47ECA3CCC5ACE77D060D210D6F0140318031C022601320338083E044003464049FF4A074BFF4C404C
:400440004D204EF04F055008580459045A045D015F01604061A862406320830188019301960198019901A001A301A401A501A801AC01B101B401BF01D804D904DF0101244C
:400480000302052008100A410B280E1810201110128114081504168118101F20278029202D202E012F11300432803414368639143A813B023D143ED03F02401048205110AB
:4004C00088248A028B02C047C26FC4FFCAF4CCFACEFFD002E810A844A910AA80AC01AF48B440E208EA06EE0603760509077409090B720D30117F151117801908230125085F
:4005000029202D772F083180330F354837303B2854185604580459045B045C105D105F018701AE01B401B501D804D904DF010008012002020380040405200701080209080B
:400540000D080E8010021280141219201B20200C25362712280A2B202C402D102E082F02301031083292350836013720382039143A103DAA3E80400C444045025F026620B3
:4005800067827AC087408D0191049220930294229520980299019B019D289E80A002A108A283A3C0A404A501AA11AB80AC04AE04B602C0EFC23CC4A9CAFECCEFCEF2D680F5
:4005C000D8B0EC10580459045F01803B820483018404857E8804897E8E238F019102940195489724980F99149A309B289C3FA003A402A82CAA13AD20AF50B007B102B224D8
:40060000B30CB408B501B610B770B880BA02BE10BF10D602D712D804D904DB04DC11DD10DF010004012003800482050106080720080209080D200E221282169017101D0198
:400640001E091F0A24A0254126082704280229202E80310832923618370138043E153F80462047045E086E146F017608772079207B0889088A109004922094229520980205
:4006800099209A909B109D089E289F20A128A283A3C0A541A702C0FEC2ECC479CA1CCCEFCEF2D640E810128016803020358039083E80C430CC30CE605D02810295089D80A4
:4006C000A420AE80D680E620EC109D80A420AD04EA1080209D80A420E2801B022420A702AF02C608C8014402A810D004240885809D80C820E210B4048C029C02E4021040DB
:4007000074028840A002B402C408DE04E201E808000301010A010B010C030D010E0310031C03000F100A00008080000040000000000000000080800080004080800080007D
:4007400000000000000B0B000000000000F0F00000000000000100000000000000000000000000000000000000000000000000000000000000000000000000000000000082
:400780000000000000000000000000000000000000000000000000000000000000000000000000000000000000000000000000000000000000000000000000000000000039
:4007C00000000000000000000000000000000000000000000000000000000000000000000000000000000000000000000000000000000000000000000000000000000000F9
:4008000000000000000000000000000000000000000000000000000000000000000000000000000000000000000000000000000000000000000000000000000000000000B8
:400840000000000000000000000000000000000000000000000000000000000000000000000000000000000000000000000000000000000000000000000000000000000078
:0200000490006A
:0400000000004005B7
:0200000490105A
:04000000BC90ACAF55
:0200000490303A
:02000000940466
:0200000490402A
:4000000000000000000000000000000000000000000000000000000000000000000000000000000000000000000000000000000000000000000000000000000000000000C0
:400040000000000000000000000000000000000000000000000000000000000000000000000000000000000000000000000000000000000000000000000000000000000080
:400080000000000000000000000000000000000000000000000000000000000000000000000000000000000000000000000000000000000000000000000000000000000040
:4000C0000000000000000000000000000000000000000000000000000000000000000000000000000000000000000000000000000000000000000000000000000000000000
:0200000490501A
:0C00000000012E16106900012E1CA46DDA
:00000001FF