:400000000080002011000000C9010000C901000008B5044B1A6803F53F5302331A6000F0DBF800BFFA46004010B5054C237833B9044B13B10448AFF300800123237010BD10
:400040008881FF1F00000000F0090000084B10B51BB108480849AFF300800848036803B910BD074B002BFBD0BDE81040184700BF00000000F00900008C81FF1F0881FF1F4F
:400080000000000010B5044C207000F007FB207800F0E4FA10BD00BFA681FF1F10B500F0ADFB044600F0B0FBA4F11003252B28D8DFE803F02A2A2A2A132A172727272727BF
:4000C000272727271F231B27272727272727272727272727272727272A2A2046FFF7D2FF10BD1720FFF7CEFF10BD2046FFF7CAFF10BD2120FFF7C6FF10BD2046FFF7C2FF83
:4001000010BD2046FFF7BEFF10BD00BF08B53020FFF7B8FF62B600F007FB00F091FA094800F02AFB00F0CCFA00F0B8FA00F0C0FB00F04AFB044800F0EFFB00F085FB00F0EA
:4001400071FBFEE7690100009D00000010B5044600F068FB002000F0B9FB204600F042FB012000F0B3FB10BD38B500F083FA84B200F086FAA50BC4F30524012C1ED1012D08
:400180000AD015B1022D0ED014E00E4C2078FFF779FF3023237038BD3320FFF773FF2846FFF7D4FF38BD3320FFF76CFF2846FFF7CDFF38BD3120FFF765FF38BD3220FFF7BB
:4001C00061FF38BDA681FF1F08B500F0D1FB03680C2B00D1FEE7FEE708B5104E104D16E029686B68AC68002204E051F8040B43F8040B0432A242F8D1E868002203E00021C8
:4002000043F8041B04328242F9D11035013E002EE6D100F0B3FBFFF779FFFEE701000000540A000008B5134A134B1A60134A136843F40073136000230AE0032B03D8104A90
:4002400052F8231000E00F490F4A42F8231001332F2BF2D90D4B1A780D4B1A700A4A0D4B1A6000F0F5F800F0AFF900220A4B1A6008BD00BF0004FA050CED00E014ED00E011
:4002800000000000C90100000080FF1FBC7600400481FF1F08ED00E00081FF1FFEE700BFF0B40022174611E050F82760F3B226F0FF0608E001EB420511F812406D78A555B1
:4002C0000132013BDBB2002BF4D10137282FEBD9F0BC704708B50A46002100F080FB08BD38B50B222C4B1A8018232C490B7002310A802B4A13701321023211800232137043
:40030000EF2228490A8002310B7002310A80264A13700222254B1A7008224FF040231A70032103F500731970214B1B78DBB221490B70214B1A8041F25122023B1A800024AF
:4003400019250CE01D4B1B7803F0010343EA440404F003044FF4F07000F0FAFA013D0DB1032CEFD115B90320FFF798FF144B4FF480721A8007221A70002212490A704820C1
:40038000023108701A700222033B1A700E4A137843F01F03137038BD8040004082400040864000408C400040924000400043004008010049A14600402242004025420040FF
:4003C0000440004006400040A2430040F8B5164B1B78DBB2154E3478E4B2154F3D78EDB203F00701134A11701B090132137044F00303337045F003033B709023A2F26272B2
:40040000137040220C490A7002310A700B4A137020220B4B1A700A2000F0F0F83D7034704422084B1A70F8BDCF010049F8460040F94600406E58004001590040205B0040A5
:40044000235B00407658004008B500F0BDFA08BD38B572B6424A137843F00403137000240CE0404963001A1952000A4423445B00C8589188FFF72EFF0134E4B2062CF0D9EB
:4004800000240BE03749A3001A1952000A44D06A116B8022FFF7D8FF0134E4B2002CF1D04FF090403049FFF7FBFE20222F4B1A702F480421FFF70EFF2E482F490422FFF7F4
:4004C000C3FF2E4A137843F0020313701032137843F0020313702A4C237843F040032370A2F58632513A137843F010031370254825490A22FFF7A8FF244825490822FFF70E
:40050000A3FF244824490A22FFF79EFF234824490A22FFF799FF234823490822FFF794FF224823490822FFF78FFFA422214B1A70214A137843F008031370204D61232B70E2
:40054000FFF7CEFE81232B7001221D4B1A70FFF73DFF1C4821460E22FFF776FF38BD00BFE8460040F4090000A4000048126000400076004008760040200B00480350014095
:40058000A043004000510040E40A0048C2510040F00A0048F0510040F80A004810510040040B004822510040100B004832510040180B0048DB0E014022430040004800405E
:4005C00004000840B04300400B4A7F2313708021517007E0DA0002F1804202F5F042013BDBB21370002BF5D1DB0003F1804303F5F04300221A7070470C81FF1F08B5034BEE
:400600001B7A03FB00F000F0A3F908BD1481FF1F08B500F0A5F9094A137843F020031370F832137843F010031370FC3A137843F01003137000F098F908BD00BF9F640040E1
:40064000704700BF014B1878704700BF67650040014B1878704700BF6B640040034B1B7813F0020FFAD0024B18707047676500404C640040014B1878704700BF5C640040AC
:4006800001E0044B1B78044B1B7813F0080FF8D1704700BF5C6400406B64004008B500F05FF9064B1A7842F003021A701A7802F0FC021A7000F058F908BD00BF9C64004073
:4006C00008B501E00A4B1B780A4B1B7813F0080FF8D100F045F9084B1A7842F003021A701A7802F0FC021A7000F03EF908BD00BF5C6400406B6400409C64004008B50722E9
:40070000074B1A70FFF7DCFFFFF79CFFFFF7A0FF0022044B1A700822FC3B1A7008BD00BF8F6400408765004008B5054B1B7823B9FFF7E4FF0122024B1A70FFF769FF08BDAB
:40074000A481FF1F014B1B685864704708ED00E04001C0B2014B1870704700BF01E400E00222014B1A60704700E100E00222014B1A60704780E100E010B50446FFF7F6FF1F
:400780002046FFF7DFFF0720FFF7E2FFFFF7E8FF10BD00BF08B500F0E3F80A4A137843F020031370013A137843F01003137002F58072137843F01003137000F0D5F800F0DF
:4007C000B9F808BD96640040704700BF014B1878704700BF65640040014B1878704700BF65650040034B1B7813F0040FFAD0024B187070476564004045650040014B187800
:40080000704700BF5565004001E0044B1B78044B1B7813F0200FF8D1704700BF556500406565004008B500F09BF8064B1A7842F001021A701A7802F0FE021A7000F094F8C2
:4008400008BD00BF9565004008B501E00A4B1B780A4B1B7813F0200FF8D100F081F8084B1A7842F001021A701A7802F0FE021A7000F07AF808BD00BF55650040656500404C
:400880009565004008B50F22074B1A70FFF7DCFFFFF79CFFFFF7A0FF0022044B1A70202203F580731A7008BD866400408564004008B5054B1B7823B9FFF7E4FF0122024BAE
:4008C0001A70FFF767FF08BDA581FF1F044A137803F0FD03400000F00200184310707047C0510040014B1B689864704708ED00E04001C0B2014B1870704700BF02E400E00E
:400900000422014B1A60704700E100E00422014B1A60704780E100E010B50446FFF7F6FF2046FFF7DFFF0720FFF7E2FFFFF7E8FF10BD00BF054A137843F0020313701032FD
:40094000137843F002031370704700BFA24300400230800803D000BF01380046FCD17047EFF3108072B6704780F31088704700BF014B1868704700BF8481FF1F0E4B70B592
:400980001E460E4C0025E41AA410A54204D056F8253098470135F8E700F04AF8084B094C1E46E41AA4100025A54204D056F8253098470135F8E770BD3C0A00003C0A000030
:4009C0003C0A0000440A000010B5431E0A44914204D011F8014B03F8014FF8E710BD03460244934202D003F8011BFAE77047000000000000405100403000000001400010C5
:400A000000140140800000150140000700400140000A004C01400002005001402000000080140140640A00488000000043000000F8B500BFF8BC08BC9E4670474D0000009F
:400A400025020000F8B500BFF8BC08BC9E46704729000000680A00000881FF1F800000002000000000000000000000007F800000030000000000E02EC05D000018000000A9
:400A800000366E0100000000000000000000000000000000000000000000000000000000000000002C0A00000000000000000000000000000000000000000000000000005B
:400AC0000000000000000000000000000000000000000000000000000000000000000000000000002481FF1F00000000000000000000000000000000000000000000000033
:400B000000000000000000000000000000000000000000000000000000000000000000000000000000000000000000000000000000000000000000000000000000000000B5
:400B40000000000000000000000000000000000000000000000000000000000000000000000000000000000000000000000000000000000000000000000000000000000075
:400B80000000000000000000000000000000000000000000000000000000000000000000000000000000000000000000000000000000000000000000000000000000000035
:400BC00000000000000000000000000000000000000000000000000000000000000000000000000000000000000000000000000000000000000000000000000000000000F5
:020000040003F7
:0200000480007A
:400000000245004006520040015B00400564004002650040140001403001014020020140490301402E040140480501402A060140450701404608014040090140140A014087
:40004000460B01403B0C0140430D0140220E0140320F0140151401404D150140681601404917014003190140011B01400B400140104101400C4201400A43014004440140F7
:40008000084501400946014006470140094801400A490140084C0140024D0140095001400351014001011A0100810180091010806008610427848301860F890D8B788F0792
:4000C000860D8747030106011E042B022E02300131023204330134025608580459045B045C225F01D804D904DC22DF01012403020480052009100A620C800F5810021101B7
:4001000013201720188019241A201B2721092204236029142B022D012F20308031083320350437203A023B503D203E403F125B406140808081048240C0C7C2FFC44BCACE19
:40014000CC6ECEBDD608D808E004E40108010A020C031003140318031E032403300234015401580459045B0F5C225D205F018B029501AD01B101B302B902BF01D602D73EA8
:40018000D804D904DB0FDC22DD20DF01012103020480052009080A400C800D010F181108120814101F11210222082310280229262D232F02309C33023410360839103A408E
:4001C0003D083E403F084410450858045C406102680269146A026B40713072027B807F8084208A088F0190809102950596429710980899649D109E02A080A108A306A40268
:40020000B204B408B740C0CBC2FCC426CABFCC6FCE5CD612D801DE81E240E440E608000203010508062009200B100C100F081180120813401404170219011A021D04210287
:40024000220126102704280829402B802D102E042F20303E320135FF38023E013F1052035302580459045B045D205F01D409D804D904DB04DC22DD10DF01004801010480AE
:400280000504064009280A800D080E400F08104011041205150219081A401B012008280129242A472B242D212E402F2030023128324833403401360838C039173C405840E0
:4002C00059405D805F1667026809880189018B808C408D209080911695019640982899649A429B409C02A002A128A408A780A840AE48B310C0BDC27EC41FCAFFCCCFCE1F9D
:40030000D6F0D810E208EA20EE04011002010368056809900B470D681168170219941B231C012001218923142401280129682D68300131783304350337803B023E013F44CE
:400340005602572C580459045B045C125D105F01D280D804D904DB04DC22DD30DF010040012004820524080109280A020B020C810D28120413011402150117141F0125058A
:4003800026802708280129242D802F8831A83601372838803C203D465A025B0260026180630367406C016D456E026F1C7240748075808510870890C097149829996C9A0447
:4003C0009F02A108A301A504A680A984B108B402B6C0B701C0F3C2FEC4FACABECCEECEF8D880E202E602EE044060410449FF4AFF4BFF4DA04F0450185608580459045A044A
:400400005B045C225D045F01604062C06440654066C068C06AC06CC06EC0860287028D01920197019A06AF02B004B302B401B602B701BF04C020C105C5D0C602C701C8162C
:40044000C9FFCAFFCBFFCDAFCE0FCF04D018D280D405D604D804D904DA04DB04DC44DD44DF01E040E2C0E440E540E6C0E8C0EAC0ECC0EEC0032006A0078009020B080C0298
:400480000E8614D0170818481A021B2022442A402C4032083660370838483EA44320464049014B804C045248534459015A885D405E20634064026704710287449140920452
:4004C00098909A209B809C42A002A231A802A904B001B294B540B621B704C034C2DAC430CA88CC72CE7AD084D228D63BD831EA10EC60EE0418011E0134013E105608580466
:4005000059045B045C225F01A101B101BF01D420D604D804D904DB04DC22DF01020103400620078009A80B400C220E061062149017011920250128882A802B082C822D01A2
:40054000300231083220362037813A013E243F40450146405A405D0161C0652466406780874088108A048B488D088E218FC09240960898809C089D409E019F40A083A120DB
:40058000A304A420A508A708AA20AB80AC10B101C039C2DFC43DCA9DCCB7CE71D688D8F8E0B0E410E808EA040104050409040A030F021004140117011A041C0421012404BB
:4005C00028042D04300432023303350436013E013F10400341064230440145B046EF47CD483E49FF4AFF4BFF4C224EF04F0C508C51105608580D59045A245B045C925D98FE
:400600005F31684069016AC06B01A302A902AF01B302B501BF04D804D904DC02DF01020103480420088009080C010E210F08102217141E601F8020202120242026042708E7
:4006400029422A202C012F8236043D103E85458047084D024F10548157245D8066807D017E048720880289048D80911092059310950998809B149C089E209F40A180A302B6
:40068000A508B108B380B501C04BC2F5C465CA9DCC40CEF0D050D220D610D810DEA0E4C0E880EA50580459045C225F0181018440850189018C018E10921E9A219C019E026B
:4006C000A401A608A801AA04AF01B020B101B440B61FBE50BF01D602D728D804D904DB24DC28DD80DE08DF310128034004040620070108A409080E89100217141D801E8033
:400700001F102501280829202A082B802C042E082F823108334034283740382039083D103E053F804020410467306D106E056F177C047D018092820883408E04C0AEC2D7E8
:40074000C461CAF7CC7ACEF6D840DEC000030204080E1504180419061A091B011D04210123022405260A320F330738083B08580459045C115F010010038004020540068474
:4007800007200A080C810D060E08110815051608171418101D401F902020210422042602274028402B802D102E882F80301032843401360837603D053F80444845044A04A7
:4007C0004B104D104E854F0456145740661067A18204830187408C908E8E90029101920295109608971498189B349E88A080A106A410A680A780AC84C0FAC2F2C474CAF1EF
:40080000CCFECED0D0E0D230D8F0E210E610EC20014A0548060507020A020D480F02111813601502160217481C011D022103233425112768297C2B032D4A30013170330FC0
:40084000340236043B0A3E104060410249FF4AFF4BFF4DA04F04501854055604580459045A045B045C135D335F01604062C06440654066C068C06AC06CC06EC08A028B2073
:400880008D028F0D92019509970699059B0AA103A30CA530A602AF30B002B10FB310B401B520BB02BF14C060C103C5D1C702C813C9FFCAFFCBFFCDAFCE0FCF04D018D4415C
:4008C000D804D904DA04DB04DC13DD03DF01E040E2C0E440E540E6C0E8C0EAC0ECC0EEC00120050406040A400D800F2010201404152019211B101C401D801E0820082108EA
:40090000234025062601272029482B802C102D902F80301032043681370439203B403D013E884308441045044604482049264D205204530858A45C405D025E086108644026
:40094000810184409002912192429754982899C89B149F20A080A410A780AD20C062C2A8C404CAFBCCD6CEDCD022D224D6DED882EA088A019202AF08EC20130816803210B5
:400980003302340235803B023E80C430CCF0CE6031405504590864108D088F08962097029B089C029D80A702CC10D440D640D8805080858097029C029DC0A504A702AA104A
:4009C000B010D420E210EE2084829C029D40A480A504A702AB01E210E640EE2012808E10C408E2020A200D045D019620B680C20CD601EA021B042410A520A920AD01B10440
:400A0000C608C801EE014401A520AB04B410D004EA082502810485409D40A504A702C880E220E6107004772087028C048F20A702B102DC80DE20E2100D20608088809C01E0
:400A4000A520C201D802E004B001EC04001F010108050A0F0C150E050F01100B1A0B00FF010C100A02040C000100020400000800076000000204000002040500040A0010E7
:400A80000E0100000E0700380C0402000A56040900040000007F00000800070000020000000010003604500002CEFB0D1FFFFFFF2200F008040000004000040004040404C7
:400AC000111100010000C00040011011C00100114001400100000000000000000000000000000000400002454500019090000000100E0E000E0000000000C0303000000016
:400B0000000000002000807B7B00100000000000308F8F0080000000040000000000000000010000000000000000000000000000000000000000000000000000000000003C
:400B40000000000000000000000000000000000000000000000000000000000000000000000000000000000000000000000000000000000000000000000000000000000075
:400B80000000000000000000000000000000000000000000000000000000000000000000000000000000000000000000000000000000000000000000000000000000000035
:400BC00000000000000000000000000000000000000000000000000000000000000000000000000000000000000000000000000000000000000000000000000000000000F5
:400C000000000000000000000000000000000000000000000000000000000000000000000000000000000000000000000000000000000000000000000000000000000000B4
:0200000490006A
:0400000000004005B7
:0200000490105A
:04000000BC90ACAF55
:0200000490303A
:02000000F67098
:0200000490402A
:4000000000000000000000000000000000000000000000000000000000000000000000000000000000000000000000000000000000000000000000000000000000000000C0
:400040000000000000000000000000000000000000000000000000000000000000000000000000000000000000000000000000000000000000000000000000000000000080
:400080000000000000000000000000000000000000000000000000000000000000000000000000000000000000000000000000000000000000000000000000000000000040
:4000C0000000000000000000000000000000000000000000000000000000000000000000000000000000000000000000000000000000000000000000000000000000000000
:0200000490501A
:0C00000000012E16106900012E1D06D90B
:00000001FF