:400000000080002011000000A9030000A903000008B5044B1A6803F53F5302331A6000F0CBF900BFFA46004010B5054C237833B9044B13B10448AFF300800123237010BD5B
:400040009081FF1F0000000040130000084B10B51BB108480849AFF300800848036803B910BD074B002BFBD0BDE81040184700BF00000000401300009481FF1F0881FF1F8B
:40008000000000000122014B1A7070470C81FF1F10B5044C207000F0C7FB207800F0BAFB10BD00BFAC81FF1F70B500F0D5FD00F0EDFD002000F0EEFD012000F065FF002029
:4000C00000F04AFF002000F0F1FD00F0FDFD84B2192000F0FFFC2F4A138901331381B4F57A7F02D2D378002BECD0012000F034FF284BDB784BB100F0C3FD2120FFF7C8FF4C
:400100000022244BDA70FF2042E0224B1E89002000F022FF002000F0C9FD00F0D5FD85B2192000F0D7FC1B4A138901331381B5F57A7F02D9D378002BECD0012000F00CFFFE
:40014000144BDB784BB100F09BFD2020FFF7A0FF0022104BDA70FF201AE00E4B1C8900F08FFDA41B04EBD4746410002000F00CFF002000F0F1FEE4B204E0192000F0AAFC4D
:40018000013CE4B2002CF8D1012000F0E5FE002040B270BDAC81FF1F70B500F05DFD00F075FD002000F076FD012000F011FF002000F002FF012000F079FD00F085FD84B244
:4001C000192000F087FC2F4A538901335381B4F57A7F02D2D378002BECD0012000F0ECFE284BDB784BB100F04BFD2120FFF750FF0022244BDA70FF2042E0224B5E89002043
:4002000000F0DAFE012000F051FD00F05DFD85B2192000F05FFC1B4A538901335381B5F57A7F02D9D378002BECD0012000F0C4FE144BDB784BB100F023FD2020FFF728FFAB
:400240000022104BDA70FF201AE00E4B5C8900F017FDA41B04EBD4746410002000F0B8FE002000F0A9FEE4B204E0192000F032FC013CE4B2002CF8D1012000F09DFE002010
:4002800040B270BDAC81FF1F10B500F0E5FC00F0FDFC002000F0FEFC002000F069FE002000F07EFE002000F001FD00F00DFD84B2192000F00FFC0A4A938901339381B4F575
:4002C0007A7F02D25379002BECD0012000F068FE00F0D6FC1020FFF7DBFE002010BD00BFAC81FF1F08B5012000F042FE002000F057FE154B1B79002BFBD0012000F050FE93
:40030000012000F065FE002000F056FE0E4B9B78002BFBD0012000F04FFE012000F034FE002000F019FE084B5B78002BFBD0012000F012FE044B00221A719A705A701A8113
:400340005A819A8108BD00BFAC81FF1F08B53020FFF79EFE62B600F04FFA114800F090FA00F0A8FE00F08EFF00F018FF0D4B1B78012B10D13320FFF78BFEFFF795FE10B9BF
:40038000FFF70AFF10B1FFF7ADFF04E0FFF77CFF08B1FFF7A7FF3022024B1A70E6E700BF850000000C81FF1F08B500F089FF03680C2B00D1FEE7FEE708B5104E104D16E06C
:4003C00029686B68AC68002204E051F8040B43F8040B0432A242F8D1E868002203E0002143F8041B04328242F9D11035013E002EE6D100F06BFFFFF7A9FFFEE7010000001F
:40040000A413000008B5134A134B1A60134A136843F40073136000230AE0032B03D8104A52F8231000E00F490F4A42F8231001332F2BF2D90D4B1A780D4B1A700A4A0D4B62
:400440001A6000F0F7F800F037FA00220A4B1A6008BD00BF0004FA050CED00E014ED00E000000000A90300000080FF1FBC7600400481FF1F08ED00E00081FF1FFEE700BF59
:40048000F0B40022174611E050F82760F3B226F0FF0608E001EB420511F812406D78A5550132013BDBB2002BF4D101372A2FEBD9F0BC704708B50A46002100F038FF08BD86
:4004C00038B513222E4B1A8018232E4A13701925023215800232137077222B490A8002310B7002310A8002310B7002310A8002310B7002310A80254A13700222244B1A70EC
:4005000008224FF040231A70032103F500731970204B1B78DBB220490B70204B1A8041F25122023B1A8000240CE01D4B1B7803F0010343EA440404F003044FF4F07000F057
:40054000AFFE013D0DB1032CEFD115B90320FFF795FF144B4FF480721A8007221A70002211490A704820023108701A700222033B1A700E4A137843F03F03137038BD00BF79
:40058000804000408240004088400040964000400043004008010049A146004022420040254200400440004006400040A2430040F8B5164B1B78DBB2154E3478E4B2154F6E
:4005C0003D78EDB203F00701134A11701B090132137044F00303337045F003033B7003220E4B1A7040230E4A13700232137030220C4B1A70202203331A700A2000F080FA6B
:400600003D7034704422084B1A70F8BDCF010049F8460040F94600406E5800403D51004009590040285B00407658004008B500F073FE08BD38B572B63F4A137843F00403CE
:40064000137000240CE03D4963001A1952000A4423445B00C8589188FFF72CFF0134E4B2062CF0D900240BE03449A3001A1952000A44D06A116B8022FFF7D8FF0134E4B257
:40068000002CF1D04FF090402D49FFF7F9FE2D480421FFF70FFF2C482C490422FFF7C6FF2B4A137843F0020313701032137843F002031370274C237843F040032370A2F582
:4006C0008632513A137843F010031370224823490A22FFF7ABFF224822490A22FFF7A6FF214822490822FFF7A1FF214821490A22FFF79CFF204821490822FFF797FF204811
:4007000020490822FFF792FF1F4A137843F0080313701E4D61232B70FFF7D2FE81232B7001221B4B1A70FFF743FF1A4821460E22FFF77CFF38BD00BFE8460040441300002D
:40074000AC0000480076004008760040D40B004803500140A043004000510040980B0048C0510040A40B0048F2510040B00B004810510040B80B004822510040C40B004873
:4007800032510040CC0B0048224300400048004004000840B04300406222084B1A702022A3F203131A7006225D3B1A70472210331A70002251331A70704700BF8B6500407D
:4007C00010B500F075FD04460A4A137843F020031370A2F20312137843F0100313700432137843F01003137000F058F8204600F063FD10BD9B65004008B5054B1B7823B9CA
:40080000FFF7CAFF0122024B1A70FFF7D9FF08BDBA81FF1F024B1B780BB1024B18707047BA81FF1F4C64004008B500F041FD064B1A7842F001021A701A7802F0FE021A7007
:4008400000F03AFD08BD00BF9C640040014B1B685864704708ED00E04001C0B2014B1870704700BF01E400E00222014B1A60704700E100E00222014B1A60704780E100E070
:4008800010B50446FFF7F6FF2046FFF7DFFF0720FFF7E2FFFFF7E8FF10BD00BF054A137843F0020313701032137843F002031370704700BFA24300400B4A7F2313708021CA
:4008C000517007E0DA0002F1804202F5F042013BDBB21370002BF5D1DB0003F1804303F5F04300221A7070471081FF1F172815D831B103010A495A5C42F020025A5405E08A
:40090000030107495A5C02F0DF025A540001044A835C43F00103835400207047012070471070004017280BD80001064BC25C02F0FE02C254C25C02F0DF02C2540020704709
:40094000012070471070004017280CD80001074BC1180A7942F004020A71C25C42F00102C254002070470120704700BF1070004017280BD80001064A835C03F0F10301F099
:40098000070143EA4101815400207047012070471070004041F6FF73994201D14FF4005141F6FF739A4201D14FF40052172808D8C00000F1804000F5EC408180C280002092
:4009C00070470120704700BF172805D8034B03EB0010417200207047012070471070004017281BD810B4C00000F1804404F5EC44D201D2B201F07F01114321709DF8042025
:400A00001201D2B203F00F03134363709DF8083003F00F03A3700020E07001E0012070475DF8044B704700BF10B500F041FC0A4B5B78182B0BD9084A1478013B5370E300C8
:400A400003F1804303F5F0431B78137000E0FF2400F032FC204610BD1081FF1F10B5044610F0800F0FD100F023FCE30003F1804303F5F043044A1178197014705378013346
:400A8000537000F019FC10BD1081FF1F10F0800F0CD111F4704F0BD1C00000F1804000F5F04001808270C37000207047012070470120704710F0800F08D1C00000F180404A
:400AC00000F5F0408180C280002070470120704701BE704710B5044605E0084B186800F0DFFBA4F50044B4F5004FF6D8034B586800FB04F000F0D4FB10BD00BF1881FF1F36
:400B000008B5034B1B7A03FB00F000F0C9FB08BD1881FF1F70B50B4A137803F0FE031370094E3078FFF7FEFE084C2078FFF796FFFF2525707078FFF7F5FE6078FFF78EFF2E
:400B4000657070BD79650040BC81FF1F2881FF1F10B5022001214FF4804241F6FF7300F0AFF9084C20700420012141F6FF72134600F0C6F96070044800F0E0F9002000F015
:400B8000E3F910BDBC81FF1FD10C000070B52C4C2078FFF7D9FE6078FFF7D6FE294B1B78FF2B03D1FFF740FF264B1870254D2A78104604210623FFF769FF214E341DA4B251
:400BC000287845F6A2312246FFF774FF30782978FFF7FAFE6B78FF2B02D1FFF725FF6870184D6A78104604210723FFF74FFF68782146154A92B2FFF75DFF114C60786978EB
:400C0000FFF7E2FE20780121FFF770FE60780121FFF76CFE00F04CFB0C4A137843F02003137000F049FB0A4B1A7842F001021A701A7842F002021A700122064B1A6070BD2E
:400C4000BC81FF1F2881FF1FCC81FF1F986500407965004080E200E008B5074B9B6823B9FFF776FF0122044B9A60FFF78FFF00F0E7F8024B1B7808BDBC81FF1F6964004025
:400C800008B500F095F8FFF745FF08BD08B500F0E5F808BD044B1B7803F0FF020BB90028F8D01046704700BF69640040C0F10100034B33F81030034A1088181A00B270475E
:400CC000CC81FF1FD881FF1F08B500F0CFF808BD704700BF08B50A280FD00C2802D0082806D102E04FF4805209E04FF4807206E00020FFF7EDFE002201E04FF48062002143
:400D0000094B198042F2107303FB02F303F6C413064A82FB0302DB17C3EBE223044A1360044B198008BD00BFD281FF1FAD8BDB68D481FF1FD881FF1F10B500F0B9FA044620
:400D4000184A137843F0020313701032137843F00203137002F5AA521032137843F0030313701822104B1A70013B1A7842F040021A701A7802F0FC021A70C822053B1A701C
:400D80000222A3F59753123B1A70084A137843F0080313700A20FFF7B3FE204600F08CFA10BD00BFAB4300400E5900402F5B004008B500F07DFA0A4A137803F0FE031370C6
:400DC000A2F5AA521D3A137803F0FD0313701032137803F0FD03137000F06EFA08BD00BF0859004010B504460A280DD00C2802D0082804D101E0C22207E0422205E000200A
:400E0000FFF766FEC22200E08222034B1A702046FFF760FF10BD00BF0A59004008B5064A137843F0060313700A20FFF7DBFF0022024B1A8008BD00BF09590040D081FF1F3F
:400E400008B5054B1B7823B9FFF7E8FF0122024B1A70FFF771FF08BDC881FF1F024A137843F001031370704708590040114B1B889BB233B10F4B198809B201EB8101490007
:400E800001E00D4B19680D4B1A88821A12B242F2107000FB02F0002A03DD01EBD1735B1003E001EBD17252105342034493FBF1F000B27047D281FF1FD481FF1FD081FF1F5D
:400EC000F0B583B086460F4616461D460B4C01232370002200920192184671463A46FFF77FFD207831462A46FFF754FD20780221FFF73EFD207803B0F0BD00BF2A81FF1FAC
:400F0000F0B583B086460F4616461D460A4C0023237000930193184671463A46FFF760FD207831462A46FFF735FD20780221FFF71FFD207803B0F0BD2B81FF1F014B1B68D9
:400F40001864704708ED00E04001C0B2014B1870704700BF00E400E0044A137803F0DF03400100F0200018431070704710510040044A137803F0DF03400100F0200018431C
:400F80001070704700510040044A137803F0BF03800100F0400018431070704710510040044A137803F0EF03000100F0100018431070704700510040044A137803F0BF0387
:400FC000800100F0400018431070704700510040044A137803F0FB03800000F0040018431070704720510040024A137843F080031370704777640040014B1880704700BF60
:401000000C680040014B1880704700BF8C680040014B1880704700BF4C680040014B1870704700BF87640040014B1878704700BF67640040014B188880B27047AC68004025
:4010400008B501E0FFF7F6FFFFF7EEFF10F0100FF8D108BD10B5154A137803F0C00343F0090313701F32137843F001031370104C237843F0010323704FF4FA70FFF7BCFF7B
:401080004FF4FA70FFF7BEFFFA20FFF7C1FF0420FFF7C4FF00F00CF9237843F01003237000F00AF9FFF7CCFF10BD00BF776400409764004008B5054B1B7823B9FFF7CAFFE9
:4010C0000122024B1A70FFF78FFF08BDC981FF1F024A137843F080031370704775640040014B1880704700BF08680040014B1880704700BF88680040014B1880704700BF77
:4011000048680040014B1870704700BF85640040014B1878704700BF65640040014B188880B27047A868004008B501E0FFF7F6FFFFF7EEFF10F0100FF8D108BD10B5154A8F
:40114000137803F0C00343F0090313701F32137843F001031370104C237843F0010323704FF4FA70FFF7BCFF4FF4FA70FFF7BEFFFA20FFF7C1FF0420FFF7C4FF00F098F82A
:40118000237843F01003237000F096F8FFF7CCFF10BD00BF756400409564004008B5054B1B7823B9FFF7CAFF0122024B1A70FFF78FFF08BDCA81FF1F024A137843F080032A
:4011C000137070477F640040014B1880704700BF1C680040014B1880704700BF9C680040014B1880704700BF5C680040014B1870704700BF8F640040014B1878704700BFA9
:401200006F640040014B188880B27047BC68004008B501E0FFF7F6FFFFF7EEFF10F0100FF8D108BD10B5154A137803F0C00343F0090313701F32137843F001031370104C30
:40124000237843F0010323704FF4FA70FFF7BCFF4FF4FA70FFF7BEFFFA20FFF7C1FF0420FFF7C4FF00F024F8237843F01003237000F022F8FFF7CCFF10BD00BF7F640040A4
:401280009F64004008B5054B1B7823B9FFF7CAFF0122024B1A70FFF78FFF08BDCB81FF1F0230800803D000BF01380046FCD17047EFF3108072B6704780F31088704700BFE2
:4012C000014B1868704700BF8C81FF1F0E4B70B51E460E4C0025E41AA410A54204D056F8253098470135F8E700F04AF8084B094C1E46E41AA4100025A54204D056F82530A9
:4013000098470135F8E770BD8C1300008C1300008C1300009413000010B5431E0A44914204D011F8014B03F8014FF8E710BD03460244934202D003F8011BFAE770470000BC
:4013400000000000405100403000000001400010001401408006001B0140000100400140000A004C014000020050014020000000801A0140180B004880000000430000000F
:40138000F8B500BFF8BC08BC9E4670474D00000005040000F8B500BFF8BC08BC9E46704729000000B81300000881FF1F880000005000000000000000000000003000000036
:4013C0007F800000030000000000E02EC05D00001800000000366E01FFFFFFFF00000000000000000000000000000000000000000000000000000000000000007C13000078
:401400000000000000000000000000000000000000000000000000000000000000000000000000000000000000000000000000000000000000000000000000002C81FF1FE1
:40144000000000000000000000000000000000000000000000000000000000000000000000000000000000000000000000000000000000000000000000000000000000006C
:40148000000000000000000000000000000000000000000000000000000000000000000000000000000000000000000000000000000000000000000000000000000000002C
:4014C00000000000000000000000000000000000000000000000000000000000000000000000000000000000000000000000000000000000000000000000000000000000EC
:4015000000000000000000000000000000000000000000000000000000000000000000000000000000000000000000000000000000000000000000000000000000000000AB
:020000040003F7
:0200000480007A
:400000000645004008520040015B004006640040026500404100014027010140060201402F030140410401403205014041060140340701401C0801404A090140320A01408F
:400040003C0B01403A0C0140430D0140410E01402C0F0140121401403F15014018160140381701403E1801404C190140031A0140521B0140094001400A41014007420140F0
:400080000643014002440140084501400246014004470140044801400A490140094C0140074D01400C5001400251014007010F0113011A01600178010009010108101101B9
:4000C00018011902608064402F84810D850D870D88388C0F8F0D88018B624030410249FF4AFF4BFF4DA04F045018580459045A045D055F01604062C06440654066C068C00C
:400100006AC06CC06EC087018B0296029A06A201A501AB02B002B101B201B404B502BF10C030C106C5D1C620C80BC9FFCAFFCBFFCDAFCE0FCF04D018D280D405D804D9044A
:40014000DA04DB04DC55DD55DF01E040E2C0E440E540E6C0E8C0EAC0ECC0EEC001A8084009010D080F081010114016401C101D081F162788285029A02F143140380A3F2861
:400180004010412045084F29552057105F89764084508D20C007C269C415CA6FCC08CE63D046D220D6D0E408E602580459045F01D804D904DF0100400128020804080560AD
:4001C000084009010C100F4010101140134014401580281029402C502D60304032083508384A39803B803C403D029380940A9540981099489C409D20A501A804ADC8AF40F5
:40020000B302C0E7C259C495CAFACC4ACE9BEA08EC01EE884030410249FF4AFF4BFF4DA04F045018580459045A045D045F01604062C06440654066C068C06AC06CC06EC06B
:4002400087018A028B029A06A501AB02AE01B002B201B404B502B701BF10C060C103C5D1C620C80BC9FFCAFFCBFFCDAFCE0FCF04D018D280D405D804D904DA04DB04DC447D
:40028000DD44DF01E040E2C0E440E540E6C0E8C0EAC0ECC0EEC0004001280410081009010F081040114017401C101F2626402708285029602D102F24380A3B803E203F08F9
:4002C0004010412046204D104F09552056205E805F0977408702892090409380940A9540981099489C409D20A501C047C24AC489CA6FCE6BD046D220D6D04060410249FF4F
:400300004AFF4BFF4DA04F045018580459045A045D035F01604062C06440654066C068C06AC06CC06EC0870192019A029B02A606AB02AD01B004B302B401B602B701BF0422
:40034000C060C102C5D1C620C80BC9FFCAFFCBFFCDAFCE0FCF04D018D280D405D804D904DA04DB04DC33DD33DF01E040E2C0E440E540E6C0E8C0EAC0ECC0EEC004080520AE
:4003800007020A440C480D080F4010201540174019101A051B11224429102B012C483120352037423B043D023F4041204520482049124B044F20512059025A88724091400B
:4003C00094089C409D20A501A801A940C0E0C2BAC484CAACCCB4CE92D024D224D60BE602EC80EE04060214011C011F02230427022B042F013002310433023401350138205C
:400400003E103F0554185604580459045B045D105F01D401D804D904DB0CDF010050010103040448070808100A200C900E10122013101402152117041C401F1025042632B2
:400440002708281029022C022D082F483220341235023748384039213A083B103C403D013E083F10450446104D804E025A405F0265806610674079808480874089108B0172
:40048000901094409620971098109A409D029E089F01A610A840B180B401C0EBC2E6C4F6CAF3CCF4CEFFD688D8B0DE08E208EC80100136013E405608580459045B045D90DE
:4004C0005F018403870C89118B069511970E990C9A019B13A403A802A920AB03AF08B203B30FB530B808B920BB08BE04C003C740C9FFCA07CBFFCC40CD20CEF0CF05D00895
:40050000D804D904DA04DC10DD01DF01E040E1A8E240E3200050010804500628072008100A200B800C400E200F48100113101401171518021D0824042710284029022F0A2D
:400540003011371438403A0A3B103C043E2045085604570E5980624088108B409380944496209710980199089A029B249C409E0C9F10A702B110B301C0E7C2FEC4F3CA3117
:40058000CC65CE6FD040D608D808E0200014010303040409061007280A200B150E03101014301503160C1734192A1B141E202040242C2611281C29032A222B1C2F2032200F
:4005C000330F34403538361F3B283E144023410645E0460B47C0482649FF4AFF4BFF4EF04F44500C5401580459045A045B045C115D115F0166C06A406B02D804D904DF0155
:400600000040010802020414054006440708081B0A200D080E500F0211041310150117141C201D401E081F4024082508272428082E502F02301031043222371439043A0A37
:400640003B103C143F0247284C044D01564057015D915E0888108980950497109802990C9A029C409E08A220A602A802A904AC40AF10B004C0F5C2BEC476CA34CC67CEE79C
:40068000D060D220D6F04040410349FF4AFF4BFF4DA04F045018580459045A045D025F01604062C06440654066C068C06AC06CC06EC087018B0292029A06A901AE01AF0205
:4006C000B001B204B402B502B701BF10C040C103C5D1C620C80BC9FFCAFFCBFFCDAFCE0FCF04D018D280D405D804D904DA04DB04DC22DD22DF01E040E2C0E440E540E6C0EE
:40070000E8C0EAC0ECC0EEC0001001080202084009080E400F081104131017401C081E502640270828402E50310C32223A0A3B103E203F0842604301462047014F0956206F
:400740005E805F0977408508860A8C108E20C007C255C486CA31CC07CE67D0C3D6D0E0100A013401580459045F018D03910395039B03A102A301A503AD03B101B702D80428
:40078000D904DF0100200280040805200702084009080B400D080F40114213041440154018081B202502264028402B202C402D402F203118328133043530370639403F40F5
:4007C00080048101850286409140920293449408984099209B02A010A108A280A501A904AA20AC12B050B108B211B440B680C0EAC23DC49DCAD3CCEFCE18E401E810EA0C89
:40080000EE04580459045F0184048B028C08921096049802A001A608AA02AB04AE01AF01B102B304B41FB701B820BE10D804D904DF010040012002100340040805200742C1
:40084000085009040B800F50100211121308144019201B10210922812352284029802A202B102C402D20310832803742380839523D023F506520670485108B408D808F089F
:400880009140940897409B409C409D209F02A509B201C0FFC23FC41FCAAFCC9ACEBFE608EE4001BF0208040805B707080A020B330C100D300E201080110C124013B11440CA
:4008C000150C168017B21A041B041C04200221142340242025082610280129082D202E013180330F34FF3540373039023A803B083E1056025739580459045B0F5C115F0184
:40090000820291019A019B03A801B102B301B403D203D302D804D90CDB04DC09DF01024004420502060807100A040C020D100E220F10120814061604170519101A041D2068
:400940001E0122092508262427422C202E62311032013501362439303C043DA03E015E10672069806A906C866E026F14754076047701780279817E40854089208F10904035
:400980009320940895A19630978098109A409D0A9E089F42A210A402A608A708B648C0F8C2F2C4F2CAF0CCE5CEF0D620D840DE88E6C0EC80EE40580459045F0100480112FF
:4009C00005010622070808060B100C400D080E09101017161C041D211E281F40255027562802290230143711384039103A083D803E164440452047444BC04D084F40570820
:400A00005E206E146F017420762077088002824083108A029040911092019310940496409780981099029A089C029D099E22A004A108A420A550A708A880AC04B004B11023
:400A4000B218B401B610C0FFC2ECC474CA09CCA6CEFED0F0D210D620E870EA80EC20EE0413081680308036203B023E80C430CC30CE605402562097029B08A002A480A620BF
:400A8000B002D440D620862097029B089E20A480A620E21086209702A480A620B308E6407C40DE042020581094409810B010C802D401E8049440A0108410A010B440E80241
:400AC00024089702B480C8205202570886028708AB01B404D4C0E240E640EE201F8034025E019201B201C601CC01D601EC0110408840AB80B402C408E201E808003F010152
:400B000008210A190C030D010E07100311011A011C031D01000F100A0F12308C043F0000043F000001080070000100002C0013003B24048A3F000000030000000000330013
:400B4000020000000000000014C0080607012438000022000000040123040500010E000C11FFFFFF62A0F0410C0000000000021104040404111100010000000000004002EA
:400B80000010301000101012000000000000000000000000000000005200807F7F0009000000000080004180800080000000000001000000000000002000807B7B001000F2
:400BC00000000000080505000100000004000000000303000001000000000000000000000000000000000000000000000000000000000000000000000000000000000000D7
:400C000000000000000000000000000000000000000000000000000000000000000000000000000000000000000000000000000000000000000000000000000000000000B4
:400C40000000000000000000000000000000000000000000000000000000000000000000000000000000000000000000000000000000000000000000000000000000000074
:400C80000000000000000000000000000000000000000000000000000000000000000000000000000000000000000000000000000000000000000000000000000000000034
:400CC00000000000000000000000000000000000000000000000000000000000000000000000000000000000000000000000000000000000000000000000000000000000F4
:0200000490006A
:0400000000004005B7
:0200000490105A
:04000000BC90ACAF55
:0200000490303A
:020000002B9241
:0200000490402A
:4000000000000000000000000000000000000000000000000000000000000000000000000000000000000000000000000000000000000000000000000000000000000000C0
:400040000000000000000000000000000000000000000000000000000000000000000000000000000000000000000000000000000000000000000000000000000000000080
:400080000000000000000000000000000000000000000000000000000000000000000000000000000000000000000000000000000000000000000000000000000000000040
:4000C0000000000000000000000000000000000000000000000000000000000000000000000000000000000000000000000000000000000000000000000000000000000000
:0200000490501A
:0C00000000012E16106900012E213BFBB0
:00000001FF