:400000000080002011000000790400007904000008B5044B1A6803F53F5302331A6000F033FA00BFFA46004010B5054C237833B9044B13B10448AFF300800123237010BD50
:400040009081FF1F00000000A0140000084B10B51BB108480849AFF300800848036803B910BD074B002BFBD0BDE81040184700BF00000000A01400009481FF1F0881FF1FC9
:400080000000000008B500F043FD00F047FD01F0ADF9B0FA80F0400901F09CF90522014B1A7008BD0C81FF1F10B5044C207000F043FD207800F020FD10BD00BFAC81FF1FE1
:4000C00070B500F057FE00F06FFE002000F070FE012000F0E7FF002000F0CCFF002000F073FE00F07FFE84B2192000F0BFFC2F4A138901331381B4F57A7F02D2D378002B18
:40010000ECD0012000F0B6FF284BDB784BB100F045FE2120FFF7C8FF0022244BDA70FF2042E0224B1E89002000F0A4FF002000F04BFE00F057FE85B2192000F097FC1B4A71
:40014000138901331381B5F57A7F02D9D378002BECD0012000F08EFF144BDB784BB100F01DFE2020FFF7A0FF0022104BDA70FF201AE00E4B1C8900F011FEA41B04EBD4746C
:400180006410002000F08EFF002000F073FFE4B204E0192000F06AFC013CE4B2002CF8D1012000F067FF002040B270BDAC81FF1F70B500F0DFFD00F0F7FD002000F0F8FD00
:4001C000012000F093FF002000F084FF012000F0FBFD00F007FE84B2192000F047FC224A538901335381B4F57A7F02D2D378002BECD0012000F06EFF1B4B5E89002000F056
:4002000069FF012000F0E0FD00F0ECFD85B2192000F02CFC144A538901335381B5F57A7F02D9D378002BECD0012000F053FF0E4B5C8900F0B3FDA41B04EBD474641000204A
:4002400000F054FF002000F045FFE4B204E0192000F00CFC013CE4B2002CF8D1012000F039FF002070BD00BFAC81FF1F10B500F081FD00F099FD002000F09AFD012000F063
:4002800005FF002000F01AFF012000F09DFD00F0A9FD84B2192000F0E9FB0A4A938901339381B4F57A7F02D25379002BECD0012000F004FF00F072FD1020FFF7F5FE002000
:4002C00010BD00BFAC81FF1F08B5012000F0DEFE002000F0F3FE154B1B79002BFBD0012000F0ECFE012000F001FF002000F0F2FE0E4B9B78002BFBD0012000F0EBFE012009
:4003000000F0D0FE002000F0B5FE084B5B78002BFBD0012000F0AEFE044B00221A719A705A701A815A819A8108BD00BFAC81FF1F10B5002000F0B6FE002000F09BFEC82415
:4003400004E0192000F092FB013CE4B2002CF8D1012000F08FFE10BD10B5002000F0C6FE002000F0B7FEC82404E0192000F07EFB013CE4B2002CF8D1012000F0ABFE10BD91
:4003800010B5002000F082FE002000F097FEC82404E0192000F06AFB013CE4B2002CF8D1012000F08BFE002000F0ACFE002000F085FE02E0192000F059FB044B9B79002B49
:4003C000F8D00022014B9A7110BD00BFAC81FF1F10B5FFF779FFC82404E0192000F046FB013CE4B2002CF8D110BD00BF08B53020FFF75AFE62B600F0E5FB00F06FFB1C4823
:4004000000F008FC00F0AAFB00F096FB00F0ECFE00F0D2FF00F05CFF164B1B78012B02D0052B0BD01FE03320FFF73EFEFFF748FE08B9FFF7BDFEFFF719FF14E03320FFF752
:4004400033FEFFF73DFE08B9FFF7B2FEFFF70EFFFFF76EFFFFF780FFFFF792FFFFF7B8FF1120FFF721FE3022024B1A70D4E700BF850000000C81FF1F08B500F0D1FF0368A3
:400480000C2B00D1FEE7FEE708B5104E104D16E029686B68AC68002204E051F8040B43F8040B0432A242F8D1E868002203E0002143F8041B04328242F9D11035013E002EB3
:4004C000E6D100F0B3FFFFF791FFFEE701000000F014000008B5134A134B1A60134A136843F40073136000230AE0032B03D8104A52F8231000E00F490F4A42F8231001332D
:400500002F2BF2D90D4B1A780D4B1A700A4A0D4B1A6000F0F7F800F09BF900220A4B1A6008BD00BF0004FA050CED00E014ED00E000000000790400000080FF1FBC76004082
:400540000481FF1F08ED00E00081FF1FFEE700BFF0B40022174611E050F82760F3B226F0FF0608E001EB420511F812406D78A5550132013BDBB2002BF4D10137272FEBD98A
:40058000F0BC704708B50A46002100F080FF08BD38B50B222E4B1A8018232E4A13701321023211800232137077222B490A8002310B7002310A8002310B7002310A800231C3
:4005C0000B7002310A80254A13700222244B1A7008224FF040231A70032103F500731970204B1B78DBB220490B70204B1A8041F25122023B1A80002419250CE01C4B1B780D
:4006000003F0010343EA440404F003044FF4F07000F0F6FE013D0DB1032CEFD115B90320FFF794FF134B4FF480721A8007221A70002211490A704820023108701A700222D0
:40064000033B1A700D4A137843F03F03137038BD804000408240004088400040964000400043004008010049A146004022420040254200400440004006400040A24300404D
:40068000F8B5164B1B78DBB2154E3478E4B2154F3D78EDB203F00701134A11701B090132137044F00303337045F003033B7003220E4B1A7040230E4A1370023213703022EA
:4006C0000C4B1A70202203331A700A2000F0E4F93D7034704422084B1A70F8BDCF010049F8460040F94600406E5800403D51004009590040285B00407658004008B500F0CD
:40070000BBFE08BD38B572B6384A137843F00403137000240CE0364963001A1952000A4423445B00C8589188FFF72CFF0134E4B2052CF0D94FF090402E49FFF709FF2E48BC
:400740000421FFF71FFF2D482D490422FFF7D6FF2C4A137843F0020313701032137843F002031370284C237843F040032370A2F58632513A137843F0100313702348244902
:400780000A22FFF7BBFF234823490822FFF7B6FF224823490822FFF7B1FF224822490A22FFF7ACFF214822490822FFF7A7FF214821490822FFF7A2FFE422204B1A70204AD6
:4007C000137843F0080313701E4D61232B70FFF7DFFE81232B7001221B4B1A70FFF750FF1A4821460E22FFF789FF38BDE8460040A4140000A00000480076004008760040CB
:40080000B80A004803500140A043004000510040800A0048C25100408C0A0048F2510040940A0048105100409C0A004822510040A80A004832510040B00A0048DB0A0140D3
:40084000224300400048004004000840B04300400B4A7F2313708021517007E0DA0002F1804202F5F042013BDBB21370002BF5D1DB0003F1804303F5F04300221A707047F4
:400880001081FF1F172815D831B103010A495A5C42F020025A5405E0030107495A5C02F0DF025A540001044A835C43F00103835400207047012070471070004017280BD82F
:4008C0000001064BC25C02F0FE02C254C25C02F0DF02C25400207047012070471070004017280CD80001074BC1180A7942F004020A71C25C42F00102C25400207047012024
:40090000704700BF1070004017280BD80001064A835C03F0F10301F0070143EA4101815400207047012070471070004041F6FF73994201D14FF4005141F6FF739A4201D15B
:400940004FF40052172808D8C00000F1804000F5EC408180C280002070470120704700BF172805D8034B03EB0010417200207047012070471070004017281BD810B4C00040
:4009800000F1804404F5EC44D201D2B201F07F01114321709DF804201201D2B203F00F03134363709DF8083003F00F03A3700020E07001E0012070475DF8044B704700BF06
:4009C00010B500F025FD0A4B5B78182B0BD9084A1478013B5370E30003F1804303F5F0431B78137000E0FF2400F016FD204610BD1081FF1F10B5044610F0800F0FD100F0C3
:400A000007FDE30003F1804303F5F043044A11781970147053780133537000F0FDFC10BD1081FF1F10F0800F0CD111F4704F0BD1C00000F1804000F5F04001808270C3709A
:400A400000207047012070470120704710F0800F08D1C00000F1804000F5F0408180C280002070470120704701BE704710B5044605E0084B186800F0C3FCA4F50044B4F58D
:400A8000004FF6D8034B586800FB04F000F0B8FC10BD00BF1881FF1F08B5034B1B7A03FB00F000F0ADFC08BD1881FF1F08B500F0AFFC094A137843F0200313700B3A1378B3
:400AC00043F01003137002F58472137843F01003137000F0A1FC08BD9B640040704700BF014B1878704700BF60640040014B1878704700BF68650040034B1B7813F0020F3B
:400B0000FAD0024B18707047606400404B640040014B1878704700BF5B64004001E0044B1B78044B1B7813F0080FF8D1704700BF5B6400406865004008B500F069FC064BAE
:400B40001A7842F003021A701A7802F0FC021A7000F062FC08BD00BF9B64004008B501E00A4B1B780A4B1B7813F0080FF8D100F04FFC084B1A7842F003021A701A7802F04F
:400B8000FC021A7000F048FC08BD00BF5B640040686500409B64004008B50722074B1A70FFF7DCFFFFF79CFFFFF7A0FF0022044B1A70082203F584731A7008BD8B6400405F
:400BC0008064004008B5054B1B7823B9FFF7E4FF0122024B1A70FFF769FF08BDBA81FF1F014B1B685864704708ED00E04001C0B2014B1870704700BF01E400E00222014BBD
:400C00001A60704700E100E00222014B1A60704780E100E010B50446FFF7F6FF2046FFF7DFFF0720FFF7E2FFFFF7E8FF10BD00BF70B50B4A137803F0FE031370094E3078CA
:400C4000FFF73CFE084C2078FFF7D4FEFF2525707078FFF733FE6078FFF7CCFE657070BD74640040BC81FF1F2881FF1F10B5022001214FF4804241F6FF7300F0AFF9084C51
:400C800020700420012141F6FF72134600F0C6F96070044800F0E0F9002000F0E3F910BDBC81FF1FED0D000070B52C4C2078FFF717FE6078FFF714FE294B1B78FF2B03D196
:400CC000FFF77EFE264B1870254D2A78104604210623FFF7A7FE214E341DA4B2287845F6A2312246FFF7B2FE30782978FFF738FE6B78FF2B02D1FFF763FE6870184D6A7899
:400D0000104604210723FFF78DFE68782146154A92B2FFF79BFE114C60786978FFF720FE20780121FFF7AEFD60780121FFF7AAFD00F06EFB0C4A137843F02003137000F0F5
:400D40006BFB0A4B1A7842F001021A701A7842F002021A700122064B1A6070BDBC81FF1F2881FF1FCC81FF1F976500407464004080E200E008B5074B9B6823B9FFF776FF7E
:400D80000122044B9A60FFF78FFF00F0E7F8024B1B7808BDBC81FF1F6764004008B500F095F8FFF745FF08BD08B500F0E5F808BD044B1B7803F0FF020BB90028F8D0104601
:400DC000704700BF67640040C0F10100034B33F81030034A1088181A00B27047CC81FF1FD881FF1F08B500F0CFF808BD704700BF08B50A280FD00C2802D0082806D102E039
:400E00004FF4805209E04FF4807206E00020FFF72BFE002201E04FF480620021094B198042F2107303FB02F303F6C413064A82FB0302DB17C3EBE223044A1360044B19808A
:400E400008BD00BFD281FF1FAD8BDB68D481FF1FD881FF1F10B500F0DBFA0446184A137843F0020313701032137843F00203137002F5AA521032137843F00303137018225E
:400E8000104B1A70013B1A7842F040021A701A7802F0FC021A70C822053B1A700222A3F59753123B1A70084A137843F0080313700A20FFF7F1FD204600F0AEFA10BD00BF0E
:400EC000AB4300400E5900402F5B004008B500F09FFA0A4A137803F0FE031370A2F5AA521D3A137803F0FD0313701032137803F0FD03137000F090FA08BD00BF08590040EA
:400F000010B504460A280DD00C2802D0082804D101E0C22207E0422205E00020FFF7A4FDC22200E08222034B1A702046FFF760FF10BD00BF0A59004008B5064A137843F0E7
:400F4000060313700A20FFF7DBFF0022024B1A8008BD00BF09590040D081FF1F08B5054B1B7823B9FFF7E8FF0122024B1A70FFF771FF08BDC881FF1F024A137843F001035A
:400F80001370704708590040114B1B889BB233B10F4B198809B201EB8101490001E00D4B19680D4B1A88821A12B242F2107000FB02F0002A03DD01EBD1735B1003E001EB90
:400FC000D17252105342034493FBF1F000B27047D281FF1FD481FF1FD081FF1FF0B583B086460F4616461D460B4C01232370002200920192184671463A46FFF7BDFC20785C
:4010000031462A46FFF792FC20780221FFF77CFC207803B0F0BD00BF2A81FF1FF0B583B086460F4616461D460A4C0023237000930193184671463A46FFF79EFC207831467D
:401040002A46FFF773FC20780221FFF75DFC207803B0F0BD2B81FF1F014B1B681864704708ED00E04001C0B2014B1870704700BF00E400E0044A137803F0DF03400100F058
:40108000200018431070704710510040044A137803F0DF03400100F0200018431070704700510040044A137803F0BF03800100F0400018431070704710510040044A137870
:4010C00003F0EF03000100F0100018431070704700510040044A137803F0BF03800100F0400018431070704700510040044A137803F0FB03800000F00400184310707047B5
:4011000020510040044A137803F0FB03800000F0040018431070704700510040024A137843F08003137070477A650040014B1880704700BF126A0040014B1880704700BF47
:40114000926A0040014B1880704700BF526A0040014B1870704700BF8A650040014B1878704700BF6A650040014B188880B27047B26A004008B501E0FFF7F6FFFFF7EEFF66
:4011800010F0100FF8D108BD10B5154A137803F0C00343F0090313701F32137843F001031370104C237843F0010323704FF4FA70FFF7BCFF4FF4FA70FFF7BEFFFA20FFF736
:4011C000C1FF0420FFF7C4FF00F022F9237843F01003237000F020F9FFF7CCFF10BD00BF7A6500409A65004008B5054B1B7823B9FFF7CAFF0122024B1A70FFF78FFF08BDA1
:40120000C981FF1F024A137843F080031370704772640040014B1880704700BF04680040014B1880704700BF84680040014B1880704700BF44680040014B1870704700BF4D
:4012400082640040014B1878704700BF62640040014B188880B27047A468004008B501E0FFF7F6FFFFF7EEFF10F0100FF8D108BD10B5154A137803F0C00343F0090313708F
:40128000124C237843F0010323702132137843F0010313704FF4FA70FFF7BCFF4FF4FA70FFF7BEFFFA20FFF7C1FF0420FFF7C4FF00F0AEF8237843F01003237000F0ACF8CA
:4012C000FFF7CCFF10BD00BF726400409264004008B5054B1B7823B9FFF7CAFF0122024B1A70FFF78FFF08BDCA81FF1F024A137843F08003137070477D640040014B1880A2
:40130000704700BF18680040014B1880704700BF98680040014B1880704700BF58680040014B1870704700BF8D640040014B1878704700BF6D640040014B188880B27047D0
:40134000B868004008B501E0FFF7F6FFFFF7EEFF10F0100FF8D108BD10B5154A137803F0C00343F0090313701F32137843F001031370104C237843F0010323704FF4FA70C9
:40138000FFF7BCFF4FF4FA70FFF7BEFFFA20FFF7C1FF0420FFF7C4FF00F03AF8237843F01003237000F038F8FFF7CCFF10BD00BF7D6400409D64004008B5054B1B7823B98E
:4013C000FFF7CAFF0122024B1A70FFF78FFF08BDCB81FF1F044A137803F0FD03400000F0020018431070704720510040024B1878C0F34000704700BF215100400000000048
:401400000230800803D000BF01380046FCD17047EFF3108072B6704780F31088704700BF014B1868704700BF8C81FF1F0E4B70B51E460E4C0025E41AA410A54204D056F802
:40144000253098470135F8E700F040F8084B094C1E46E41AA4100025A54204D056F8253098470135F8E770BDD8140000D8140000D8140000E014000010B5431E0A4491429A
:4014800004D011F8014B03F8014FF8E710BD03460244934202D003F8011BFAE7704700000000000040510040300000000140001000140140000800400140000A004C014060
:4014C000000200500140200043000000F8B500BFF8BC08BC9E4670474D000000D5040000F8B500BFF8BC08BC9E46704729000000001500000881FF1F880000005000000015
:4015000000000000300000007F800000030000000000E02EC05D00001800000000366E01FFFFFFFF0000000000000000000000000000000000000000000000000000000095
:4015400000000000C814000000000000000000000000000000000000000000000000000000000000000000000000000000000000000000000000000000000000000000008F
:40158000000000002C81FF1F000000000000000000000000000000000000000000000000000000000000000000000000000000000000000000000000000000000000000060
:4015C00000000000000000000000000000000000000000000000000000000000000000000000000000000000000000000000000000000000000000000000000000000000EB
:4016000000000000000000000000000000000000000000000000000000000000000000000000000000000000000000000000000000000000000000000000000000000000AA
:40164000000000000000000000000000000000000000000000000000000000000000000000000000000000000000000000000000000000000000000000000000000000006A
:40168000000000000000000000000000000000000000000000000000000000000000000000000000000000000000000000000000000000000000000000000000000000002A
:020000040003F7
:0200000480007A
:400000000645004007520040015B004005640040036500404E00014027010140440201403B0301401704014032050140160601403A0701401508014046090140330A014092
:400040004F0B0140520C0140330D01401E1401403C1501402A160140471701402118014039190140301A01403E1B0140094001400B410140054201400343014009450140B9
:400080000846014002470140064801400A490140064C0140064D01400A5001400251014007010F0113011A016001780100010109091010801181180219012F848047810D0B
:4000C000820D8B078D0D870188788A0D06011102120118012F0331013302350136013E403F044020410349FF4AFF4BFF4DA04F0450185441580459045A045B045D055F0125
:40010000604062C06440654066C068C06AC06CC06EC0820187019A06A702AA02AB02AD01B004B101B202B401B502BF10C020C103C5D1C620C80BC9FFCAFFCBFFCDAFCE0F8B
:40014000CF04D018D280D405D804D904DA04DB04DC55DD55DF01E040E2C0E440E540E6C0E8C0EAC0ECC0EEC000040501080109200F08160819401D081E401F202010212284
:40018000278828012B012E602F2031023F084228432046284F095620580859405A205F8960107501C014C24AC440CA78CC01CE40D066D6DED8020201060219011A041E066E
:4001C0002703300431013302340236013E104010410649FF4AFF4BFF4DA04F04501852805405580459045A045B045C445D445F01604062C06440654066C068C06AC06CC074
:400200006EC0C010C103C5D0C610C702C81AC9FFCAFFCBFFCDAFCE0FCF04D018D608D804D904DA04DB04DC11DD04DF01E040E2C0E440E540E6C0E8C0EAC0ECC0EEC00120F7
:40024000032004080502084009080C200D80124113061D801E041F0127A029202A402B242C2030403108338037203A013B04418445804B014C045024510458805A105E0416
:400280005F81600C63027502821084808B208F01940496209C08A701B108C036C2C5C40DCA4ECC2ACE03D01AD220D6DCD80CE240E606EE2006011501180127032E02320372
:4002C00033023501520353025804590C5B045C195D105F01D608D804D904DB04DC11DD90DF01010809200C400D080F041001140415041601170119082120220423082908DC
:400300002C442D042FA83204360837033E023F0446035F80640169606A207940812082408F8897049E019F02A508A7A4AA10B302C004C2E2C4F1CAE2CCC2CEC0D610D8100C
:40034000DE08E640EA01580459045C115F018102860289029A01AF01B102B202B301B601B902BF01D401D804D904DB0CDC11DD10DF010008030805040740080909400A04D8
:400380000D080F44104012091340140919041A101B8C2108220A29442A012C402FA03001310833E13401360839203B053E123F045A40794083818C088D088F2091609260B5
:4003C00097049A029E019F01A508A608A7ACB780C036C27FC4CBCACBCCCFCEE7D608DE08E201E404EC100601090111011401190125012B01320133013E043F045608580422
:4004000059045B045C115F01D804D904DC11DF010020020D044006210708081009020C100E100F05100411401301144016861F04272028042A022C082D242E8230103102C0
:40044000320834043644371938403B013C503F055C805F2065506620820489488D408E028F01901091049210970198189A019B119C449D109E80A008A304A430A810AB400B
:40048000B010B104B340C0E3C2EAC4DBCAF5CCF7CEF9D630D830E040E201E410580459045C115F01800182028A208C018E109101921E9401960898019A049E01B220B41F48
:4004C000B701BE10BF40C003C105C230C402C5EFC6B0C7CDC83BC9FFCAFFCBFFCC22CEF0CF0CD08CD110D602D720D804D904DA24DB24DC10DD88DE08DF01E840E901EAC0FE
:40050000EB0100400510074108080B810E680F02105112011D201E10240328082C4130243201341A3508370239083A803B013CE03F01452047084C014E804F0854085502B5
:4005400056206001614065406E286F5179047A107C82848088218C4092429701981099089B0A9CC19E209F41A301A450A502A694A801A902AB02AC04B010B104B201B3012F
:40058000B448C0D1C2FDC40DCA94CCE7CEBBD060D210D810DE90E040E602E820EC06EE010C01110114021501180219011D011E04220226012C0230043401350136023E508E
:4005C0003F104060410249FF4AFF4BFF4DA04F045018580459045A045C185D025F01604062C06440654066C068C06AC06CC06EC08A0692019A029B01A60CA901B002B208FC
:40060000B401B604B701BE01C060C102C5D1C620C80BC9FFCAFFCBFFCDAFCE0FCF04D018D280D405D804D904DA04DB04DC22DD22DF01E040E2C0E440E540E6C0E8C0EAC0B2
:40064000ECC0EEC00120070209200B400E280F02102016201741184219201B041C081D801E40224027082B042C412D083020361437413CA03D043F01412045204820492143
:400680004D205120580859015A8073407C80828085808908C082C2EAC4B4CAD4CCF4CEF0D024D224D60BDE10E080020107021301310234013701580459045C115F0180011F
:4006C000870189018C018D0190019101940198019D01A201A501AA01AD01B301B601D804D904DC11DF01004001010320044007800A820B100C010E040F5010041340140477
:400700001520168017021A041B201F80208022412382242028012A012B202E802F2030023108324034013780384039243C403F1480108240838090409125935496809A0175
:400740009F02A002A108A440A720B348C09DC27DC453CA5BCC9BCE7EE401EC20EE04580459045C115F01820183048604870888108A208B018D018E089040928095029602CD
:40078000980199049C02A004A108A408A710A820AA10AC80AE40AF02B2FFB51FB920BE04BF10D602D73DD804D904DB0CDC10DD10DF0100800110024103BA044006800801D0
:4007C00009880A840B100D080F40100A1105175219082110230429482A012B082FA2300131083208336036083702386039053A403D103F04454047405A206202680E69054D
:40080000701071C0720479408540870488408A8091409220960497049C019D409E01A108A202A388A404A540A720C09FC23FC4DFCADFCCCFCE6FD604D801DE08E002E20830
:40084000180130013E0154205604580459045B045C115F01C040C103C9FFCAFFCBFFCDA0CF04D018D804D904DA04DC11DD03DF01E040E2C0E440E540E6C0E8C0EAC0ECC002
:40088000EEC00020012005040702080809020B040D280E020F0810211301140C16821F0129242C242E8030253401350436053A823B013C203F01410442405D016508678A34
:4008C000850286808740882089089309980899089E80A204A304A430A502A640A880A920C0A2C2EEC4DDCA76CCC7CEA9D003D680D8F0E4200702120219011F0122062E0131
:400900002F02300132023302340437013F044040410345D046014702481649FF4AFF4BFF4DAF4E0F4F04501852805405580459045A045B045C335D335F01604062C06440FD
:40094000654066C068C06AC06CC06EC0D804D904DC11DF010520060207080A400D880E080F04108214081680182019101A401B0122442B012C242E80308031103601370824
:4009800039083E023F054104424049025080510459025A887002818082018C109301950896409704980C99209A80A020A108A204A601AD21B120B240B302C0C0C2E8C45910
:4009C000CA78CCCCCEC2D003D60BE820EC20EE0413011680308035803B023E80C430CC30CE6050015F208C01930197029B209D80A480B320D480D6208C80930197029D80B2
:400A0000A48097029D80B70108220F40210253016410C20EC802D401D80187409340A102A802AB01AC10B020EA018102A1022080858097029D80C840E21057205A40824020
:400A40008320AB01B040D4C0E220E620EE201F8034016101C601CC01D8028D019D01AB80B001E402EC040037010108330A020B010C030E06100B1A021C0B000F100A0000D5
:400A80005200807F7F00090000000000010000000000000001000000000000002000807B7B00100000000000788787008100000004000000000303000001000000000000A3
:400AC00000000000000000000000000000000000000000000000000000000000000000000000000000000000000000000000000000000000000000000000000000000000F6
:400B000000000000000000000000000000000000000000000000000000000000000000000000000000000000000000000000000000000000000000000000000000000000B5
:400B40000000000000000000000000000000000000000000000000000000000000000000000000000000000000000000000000000000000000000000000000000000000075
:400B80000000000000000000000000000000000000000000000000000000000000000000000000000000000000000000000000000000000000000000000000000000000035
:0200000490006A
:0400000000004005B7
:0200000490105A
:04000000BC90ACAF55
:0200000490303A
:0200000094BFAB
:0200000490402A
:4000000000000000000000000000000000000000000000000000000000000000000000000000000000000000000000000000000000000000000000000000000000000000C0
:400040000000000000000000000000000000000000000000000000000000000000000000000000000000000000000000000000000000000000000000000000000000000080
:400080000000000000000000000000000000000000000000000000000000000000000000000000000000000000000000000000000000000000000000000000000000000040
:4000C0000000000000000000000000000000000000000000000000000000000000000000000000000000000000000000000000000000000000000000000000000000000000
:0200000490501A
:0C00000000012E16106900012E21A52819
:00000001FF