:400000000080002011000000790400007904000008B5044B1A6803F53F5302331A6000F033FA00BFFA46004010B5054C237833B9044B13B10448AFF300800123237010BD50
:400040009081FF1F00000000C8140000084B10B51BB108480849AFF300800848036803B910BD074B002BFBD0BDE81040184700BF00000000C81400009481FF1F0881FF1F79
:400080000000000008B500F057FD00F05BFD01F0C1F9B0FA80F0400901F0B0F90522014B1A7008BD0C81FF1F10B5044C207000F057FD207800F034FD10BD00BFAC81FF1F69
:4000C00070B500F06BFE00F083FE002000F084FE012000F0FBFF002000F0E0FF002000F087FE00F093FE84B2192000F0D3FC2F4A138901331381B4F5966F02D2D378002B6C
:40010000ECD0012000F0CAFF284BDB784BB100F059FE2120FFF7C8FF0022244BDA70FF2042E0224B1E89002000F0B8FF002000F05FFE00F06BFE85B2192000F0ABFC1B4AF9
:40014000138901331381B5F5966F02D9D378002BECD0012000F0A2FF144BDB784BB100F031FE2020FFF7A0FF0022104BDA70FF201AE00E4B1C8900F025FEA41B04EBD47424
:400180006410002000F0A2FF002000F087FFE4B204E0192000F07EFC013CE4B2002CF8D1012000F07BFF002040B270BDAC81FF1F70B500F0F3FD00F00BFE002000F00CFE72
:4001C000012000F0A7FF002000F098FF012000F00FFE00F01BFE84B2192000F05BFC224A538901335381B4F5966F02D2D378002BECD0012000F082FF1B4B5E89002000F0D1
:400200007DFF012000F0F4FD00F000FE85B2192000F040FC144A538901335381B5F5966F02D9D378002BECD0012000F067FF0E4B5C8900F0C7FDA41B04EBD47464100020C5
:4002400000F068FF002000F059FFE4B204E0192000F020FC013CE4B2002CF8D1012000F04DFF002070BD00BFAC81FF1F10B500F095FD00F0ADFD002000F0AEFD012000F0D7
:4002800019FF002000F02EFF012000F0B1FD00F0BDFD84B2192000F0FDFB0A4A938901339381B4F5966F02D25379002BECD0012000F018FF00F086FD1020FFF7F5FE002068
:4002C00010BD00BFAC81FF1F08B5012000F0F2FE002000F007FF154B1B79002BFBD0012000F000FF012000F015FF002000F006FF0E4B9B78002BFBD0012000F0FFFE01208E
:4003000000F0E4FE002000F0C9FE084B5B78002BFBD0012000F0C2FE044B00221A719A705A701A815A819A8108BD00BFAC81FF1F10B5002000F0CAFE002000F0AFFEC824B1
:4003400004E0192000F0A6FB013CE4B2002CF8D1012000F0A3FE10BD10B5002000F0DAFE002000F0CBFEC82404E0192000F092FB013CE4B2002CF8D1012000F0BFFE10BD19
:4003800010B5002000F096FE002000F0ABFEC82404E0192000F07EFB013CE4B2002CF8D1012000F09FFE002000F0C0FE002000F099FE02E0192000F06DFB044B9B79002BBD
:4003C000F8D00022014B9A7110BD00BFAC81FF1F10B5FFF779FFC82404E0192000F05AFB013CE4B2002CF8D110BD00BF08B53020FFF75AFE62B600F0F9FB00F083FB1C48E7
:4004000000F01CFC00F0BEFB00F0AAFB00F000FF00F0E6FF00F070FF164B1B78012B02D0052B0BD01FE03320FFF73EFEFFF748FE08B9FFF7BDFEFFF719FF14E03320FFF7D9
:4004400033FEFFF73DFE08B9FFF7B2FEFFF70EFFFFF76EFFFFF780FFFFF792FFFFF7B8FF1120FFF721FE3022024B1A70D4E700BF850000000C81FF1F08B500F0E5FF03688F
:400480000C2B00D1FEE7FEE708B5104E104D16E029686B68AC68002204E051F8040B43F8040B0432A242F8D1E868002203E0002143F8041B04328242F9D11035013E002EB3
:4004C000E6D100F0C7FFFFF791FFFEE7010000002415000008B5134A134B1A60134A136843F40073136000230AE0032B03D8104A52F8231000E00F490F4A42F823100133E4
:400500002F2BF2D90D4B1A780D4B1A700A4A0D4B1A6000F0FBF800F0AFF900220A4B1A6008BD00BF0004FA050CED00E014ED00E000000000790400000080FF1FBC7600406A
:400540000481FF1F08ED00E00081FF1FFEE700BFF0B40022174611E050F82760F3B226F0FF0608E001EB420511F812406D78A5550132013BDBB2002BF4D101372A2FEBD987
:40058000F0BC704708B50A46002100F094FF08BD38B50B22304B1A801823304A13701321023211800232137077222D490A8002310B7002310A8002310B7002310A800231A9
:4005C0000B7002310A8002310B7002310A80254A13700222244B1A7008224FF040231A70032103F500731970204B1B78DBB220490B70204B1A8041F25122023B1A800024C6
:4006000019250CE01C4B1B7803F0010343EA440404F003044FF4F07000F006FF013D0DB1032CEFD115B90320FFF790FF134B4FF480721A8007221A70002211490A704820F8
:40064000023108701A700222033B1A700D4A137843F07F03137038BD8040004082400040884000409A4000400043004008010049A14600402242004025420040044000405B
:4006800006400040A2430040F8B5164B1B78DBB2154E3478E4B2154F3D78EDB203F00701134A11701B090132137044F00303337045F003033B7003220E4B1A7040230E4ACB
:4006C00013700232137030220C4B1A70202203331A700A2000F0F4F93D7034704422084B1A70F8BDCF010049F8460040F94600406E5800403D51004009590040285B0040EC
:400700007658004008B500F0CBFE08BD38B572B6404A137843F00403137000240CE03E4963001A1952000A4423445B00C8589188FFF728FF0134E4B2052CF0D900240BE0D0
:400740003549A3001A1952000A44506A916A1022FFF7D8FF0134E4B2002CF1D04FF090402E49FFF7F5FE2E480421FFF70BFF2D482D490422FFF7C6FF2C4A137843F002030A
:4007800013701032137843F002031370284C237843F040032370A2F58632513A137843F010031370234824490A22FFF7ABFF234823490A22FFF7A6FF224823490822FFF7B0
:4007C000A1FF224822490A22FFF79CFF214822490822FFF797FF214821490822FFF792FFA422204B1A70204A137843F0080313701E4D61232B70FFF7CBFE81232B7001229D
:400800001B4B1A70FFF740FF1A4821460E22FFF779FF38BDE8460040CC140000AC0000480076004008760040480E004803500140A0430040005100400C0E0048C0510040E8
:40084000180E0048F2510040240E0048105100402C0E004822510040380E004832510040400E0048DB0C0140224300400048004004000840B04300400B4A7F231370802161
:40088000517007E0DA0002F1804202F5F042013BDBB21370002BF5D1DB0003F1804303F5F04300221A7070471081FF1F172815D831B103010A495A5C42F020025A5405E0CA
:4008C000030107495A5C02F0DF025A540001044A835C43F00103835400207047012070471070004017280BD80001064BC25C02F0FE02C254C25C02F0DF02C254002070474A
:40090000012070471070004017280CD80001074BC1180A7942F004020A71C25C42F00102C254002070470120704700BF1070004017280BD80001064A835C03F0F10301F0D9
:40094000070143EA4101815400207047012070471070004041F6FF73994201D14FF4005141F6FF739A4201D14FF40052172808D8C00000F1804000F5EC408180C2800020D2
:4009800070470120704700BF172805D8034B03EB0010417200207047012070471070004017281BD810B4C00000F1804404F5EC44D201D2B201F07F01114321709DF8042065
:4009C0001201D2B203F00F03134363709DF8083003F00F03A3700020E07001E0012070475DF8044B704700BF10B500F025FD0A4B5B78182B0BD9084A1478013B5370E30024
:400A000003F1804303F5F0431B78137000E0FF2400F016FD204610BD1081FF1F10B5044610F0800F0FD100F007FDE30003F1804303F5F043044A11781970147053780133BC
:400A4000537000F0FDFC10BD1081FF1F10F0800F0CD111F4704F0BD1C00000F1804000F5F04001808270C37000207047012070470120704710F0800F08D1C00000F18040A6
:400A800000F5F0408180C280002070470120704701BE704710B5044605E0084B186800F0C3FCA4F50044B4F5004FF6D8034B586800FB04F000F0B8FC10BD00BF1881FF1FAC
:400AC00008B5034B1B7A03FB00F000F0ADFC08BD1881FF1F08B500F0AFFC094A137843F020031370093A137843F01003137002F20512137843F01003137000F0A1FC08BDFC
:400B00009D640040704700BF014B1878704700BF64640040014B1878704700BF69650040034B1B7813F0020FFAD0024B18707047646400404A640040014B1878704700BFB1
:400B40005A64004001E0044B1B78044B1B7813F0080FF8D1704700BF5A6400406965004008B500F069FC064B1A7842F003021A701A7802F0FC021A7000F062FC08BD00BFD9
:400B80009A64004008B501E00A4B1B780A4B1B7813F0080FF8D100F04FFC084B1A7842F003021A701A7802F0FC021A7000F048FC08BD00BF5A640040696500409A640040B7
:400BC00008B50722074B1A70FFF7DCFFFFF79CFFFFF7A0FF0022044B1A70082203F205131A7008BD8D6400408464004008B5054B1B7823B9FFF7E4FF0122024B1A70FFF71D
:400C000069FF08BDBA81FF1F014B1B685864704708ED00E04001C0B2014B1870704700BF01E400E00222014B1A60704700E100E00222014B1A60704780E100E010B5044602
:400C4000FFF7F6FF2046FFF7DFFF0720FFF7E2FFFFF7E8FF10BD00BF70B50B4A137803F0FE031370094E3078FFF73CFE084C2078FFF7D4FEFF2525707078FFF733FE6078E9
:400C8000FFF7CCFE657070BD7B640040BC81FF1F2881FF1F10B5022001214FF4804241F6FF7300F0AFF9084C20700420012141F6FF72134600F0C6F96070044800F0E0F923
:400CC000002000F0E3F910BDBC81FF1F150E000070B52C4C2078FFF717FE6078FFF714FE294B1B78FF2B03D1FFF77EFE264B1870254D2A78104604210623FFF7A7FE214E6B
:400D0000341DA4B2287845F6A2312246FFF7B2FE30782978FFF738FE6B78FF2B02D1FFF763FE6870184D6A78104604210723FFF78DFE68782146154A92B2FFF79BFE114C89
:400D400060786978FFF720FE20780121FFF7AEFD60780121FFF7AAFD00F06EFB0C4A137843F02003137000F06BFB0A4B1A7842F001021A701A7842F002021A700122064BDF
:400D80001A6070BDBC81FF1F2881FF1FCC81FF1F986400407B64004080E200E008B5074B9B6823B9FFF776FF0122044B9A60FFF78FFF00F0E7F8024B1B7808BDBC81FF1F4A
:400DC0006865004008B500F095F8FFF745FF08BD08B500F0E5F808BD044B1B7803F0FF020BB90028F8D01046704700BF68650040C0F10100034B33F81030034A1088181A79
:400E000000B27047CC81FF1FD881FF1F08B500F0CFF808BD704700BF08B50A280FD00C2802D0082806D102E04FF4805209E04FF4807206E00020FFF72BFE002201E04FF45D
:400E400080620021094B198042F2107303FB02F303F6C413064A82FB0302DB17C3EBE223044A1360044B198008BD00BFD281FF1FAD8BDB68D481FF1FD881FF1F10B500F0D9
:400E8000DBFA0446184A137843F0020313701032137843F00203137002F5AA521032137843F0030313701822104B1A70013B1A7842F040021A701A7802F0FC021A70C82286
:400EC000053B1A700222A3F59753123B1A70084A137843F0080313700A20FFF7F1FD204600F0AEFA10BD00BFAB4300400E5900402F5B004008B500F09FFA0A4A137803F0BE
:400F0000FE031370A2F5AA521D3A137803F0FD0313701032137803F0FD03137000F090FA08BD00BF0859004010B504460A280DD00C2802D0082804D101E0C22207E0422227
:400F400005E00020FFF7A4FDC22200E08222034B1A702046FFF760FF10BD00BF0A59004008B5064A137843F0060313700A20FFF7DBFF0022024B1A8008BD00BF095900402B
:400F8000D081FF1F08B5054B1B7823B9FFF7E8FF0122024B1A70FFF771FF08BDC881FF1F024A137843F001031370704708590040114B1B889BB233B10F4B198809B201EB22
:400FC0008101490001E00D4B19680D4B1A88821A12B242F2107000FB02F0002A03DD01EBD1735B1003E001EBD17252105342034493FBF1F000B27047D281FF1FD481FF1FC0
:40100000D081FF1FF0B583B086460F4616461D460B4C01232370002200920192184671463A46FFF7BDFC207831462A46FFF792FC20780221FFF77CFC207803B0F0BD00BF0D
:401040002A81FF1FF0B583B086460F4616461D460A4C0023237000930193184671463A46FFF79EFC207831462A46FFF773FC20780221FFF75DFC207803B0F0BD2B81FF1FE7
:40108000014B1B681864704708ED00E04001C0B2014B1870704700BF00E400E0044A137803F0DF03400100F0200018431070704710510040044A137803F0DF03400100F087
:4010C000200018431070704700510040044A137803F0BF03800100F0400018431070704710510040044A137803F0EF03000100F0100018431070704700510040044A137880
:4011000003F0BF03800100F0400018431070704700510040044A137803F0FB03800000F0040018431070704720510040044A137803F0FB03800000F00400184310707047D5
:4011400000510040024A137843F08003137070477A650040014B1880704700BF106A0040014B1880704700BF906A0040014B1880704700BF506A0040014B1870704700BFB2
:401180008A650040014B1878704700BF6A650040014B188880B27047B06A004008B501E0FFF7F6FFFFF7EEFF10F0100FF8D108BD08B5154A137803F0C00343F00903137038
:4011C0001E32137843F0010313700132137843F0010313704FF4FA70FFF7BCFF4FF4FA70FFF7BEFFFA20FFF7C1FF0420FFF7C4FF00F022F9054A137843F01003137000F0D9
:401200001FF9FFF7CBFF08BD7A6500409A65004008B5054B1B7823B9FFF7CAFF0122024B1A70FFF78FFF08BDC981FF1F024A137843F080031370704779640040014B188005
:40124000704700BF10680040014B1880704700BF90680040014B1880704700BF50680040014B1870704700BF89640040014B1878704700BF69640040014B188880B27047B1
:40128000B068004008B501E0FFF7F6FFFFF7EEFF10F0100FF8D108BD10B5154A137803F0C00343F0090313701F32137843F001031370104C237843F0010323704FF4FA7092
:4012C000FFF7BCFF4FF4FA70FFF7BEFFFA20FFF7C1FF0420FFF7C4FF00F0AEF8237843F01003237000F0ACF8FFF7CCFF10BD00BF796400409964004008B5054B1B7823B96F
:40130000FFF7CAFF0122024B1A70FFF78FFF08BDCA81FF1F024A137843F08003137070477F640040014B1880704700BF1C680040014B1880704700BF9C680040014B1880B8
:40134000704700BF5C680040014B1870704700BF8F640040014B1878704700BF6F640040014B188880B27047BC68004008B501E0FFF7F6FFFFF7EEFF10F0100FF8D108BDBF
:4013800010B5154A137803F0C00343F0090313701F32137843F001031370104C237843F0010323704FF4FA70FFF7BCFF4FF4FA70FFF7BEFFFA20FFF7C1FF0420FFF7C4FF44
:4013C00000F03AF8237843F01003237000F038F8FFF7CCFF10BD00BF7F6400409F64004008B5054B1B7823B9FFF7CAFF0122024B1A70FFF78FFF08BDCB81FF1F044A1378C3
:4014000003F0FD03400000F0020018431070704720510040024B1878C0F34000704700BF21510040000000000230800803D000BF01380046FCD17047EFF3108072B67047AC
:4014400080F31088704700BF014B1868704700BF8C81FF1F0E4B70B51E460E4C0025E41AA410A54204D056F8253098470135F8E700F046F8084B094C1E46E41AA410002508
:40148000A54204D056F8253098470135F8E770BD0C1500000C1500000C1500001415000010B5431E0A44914204D011F8014B03F8014FF8E710BD03460244934202D003F889
:4014C000011BFAE7704700000000000040510040300000000140001000140140000800400140000A004C0140000210500140100000500140FC0D0048100000004300000089
:40150000F8B500BFF8BC08BC9E4670474D000000D5040000F8B500BFF8BC08BC9E46704729000000381500000881FF1F880000005000000000000000000000003000000062
:401540007F800000030000000000E02EC05D00001800000000366E01FFFFFFFF0000000000000000000000000000000000000000000000000000000000000000FC14000075
:401580000000000000000000000000000000000000000000000000000000000000000000000000000000000000000000000000000000000000000000000000002C81FF1F60
:4015C00000000000000000000000000000000000000000000000000000000000000000000000000000000000000000000000000000000000000000000000000000000000EB
:4016000000000000000000000000000000000000000000000000000000000000000000000000000000000000000000000000000000000000000000000000000000000000AA
:40164000000000000000000000000000000000000000000000000000000000000000000000000000000000000000000000000000000000000000000000000000000000006A
:40168000000000000000000000000000000000000000000000000000000000000000000000000000000000000000000000000000000000000000000000000000000000002A
:020000040003F7
:0200000480007A
:400000000645004009520040015B00400764004003650040420001403701014044020140530301403F04014042050140330601404B0701405C0801404F090140350A0140BA
:400040004B0B01401C0C0140490D0140550E0140390F01404C1401403F15014018160140471701404D1801404A190140231A01404C1B0140094001400B4101400942014065
:4000800007430140014401401045014005460140034701400E480140104901400B4C0140034D0140065001400251014007010F0113011A01600178010001010908100910A0
:4000C000108019116004610C78042F84820F830D84478801890D8D078F0D850D89788A0D00100260040106320C4D10721208140D16401C021E0D204D244D28122A642C4D5E
:400100003070360F3A825608580B59045B045C195F01810884078502880289208A058BD08C068D088F02910A9401950296029708980299519A049BA89C029D0AA006A40466
:40014000A508A602A702A804A933ABC4AC02AD9CAE04AF63B3F0B407B50FBB28D80BD90BDC99DF0100040102030104240620070108090A010C100E240F021010118312808C
:4001800013201541160C170419021A011B011C041D20241025082610284029582C032E24310C332034083690372539083A403C103DC03E083F025880630178027C02894053
:4001C000C0EDC2EDC4FFCA7FCCF4CEFAD608D808DE8102010E0E16041C0830083201340436024030410649FF4AFF4BFF4DA04F04501856025728580459045A045B0B5C16BA
:400200005D965F01604062C06440654066C068C06AC06CC06EC097019B01B501BF10C020C106C5D0C601C702C816C9FFCAFFCBFFCDAFCE0FCF04D018D405D804D904DA044C
:40024000DB04DC11DD66DF01E040E2C0E440E540E6C0E8C0EAC0ECC0EEC000100104021003200490051208410B200D080E02110113401C081D081E422308280129502C405D
:400280002D082E082F10305232083310340135103A583B403D053E013F4043104410450849014A084C045044520859015A405B0865046D826E846F84744077017C0284047A
:4002C000930194209508960499049C429D589E449F05A120A210A301A541A720A812AC80B040B240B720C096C2ADC409CACCCCAFCEDED044D224D60BD840DE80EA08EE0294
:4003000003030602110212041603180122042A032C0431013302340336043E403F045441580B59045B045C095F01800484608540885689448A098B098C048D809001910EF3
:40034000940A95809610980799659A389B1A9C049F80A004A180A580A604A804A913AB24B07FB10FB370B780B802B902BB08BF40D280D80BD90BDB04DC99DD60DF01000468
:4003800004200620074109250B080D200E600F0212021311150116081704180419401E40210822022430258426052D012E0C2F843202365137443B013C903F084C044E04AD
:4003C00059605A086108750278027C0282018C048D01920493019420950896019B059C439D1A9E44A040A120A250A381A402A720C0F4C2FEC47BCAE0CCF1CE71D60ED80204
:40040000DE8105020D02130215021F02210227012B01310133023F04406341024210440545DE46F047BC483B49FF4AFF4BFF4C224EF04F08500454405604580459045A0B3B
:400440005B0B5C415D995F0162C0644065016610671168C069016B116C406D016E406F01D804D904DC11DF0100100108020403010508070108080A010E0110511459275096
:40048000284829082C042D042F803011311035023640370439083A403C803E044208431045A44D024E024F155402561457045E205F106501661867017C02810888048D80EB
:4004C0008E019108924597109B049C439D189E64A040A1A4A254A380A724A920AC02AD04AE01B404C0A5C285C4FDCAE7CCD5CE5AD070D230D8F0DE80E604EA0AEE41030426
:400500000402050109400A010B800F0111801340140215081B081D0421022510272029202B102F02300133FF340238203E103F044060410249FF4AFF4BFF4DA04F04501829
:4005400056025739580459045A045B0C5D145F01604062C06440654066C068C06AC06CC06EC087018A02920194049A02AA04B004B101B202B401BE04C060C102C5D0C620EF
:40058000C701C81AC9FFCAFFCBFFCDAFCE0FCF04D018D280D405D804D904DA04DB04DC84DD44DF11E040E2C0E440E540E6C0E8C0EAC0ECC0EEC001200420061009200A60C5
:4005C0000E20100819241A801E801F10210227202C402D082E022F0934103604375138083C023D803E083F904120452049224D2050085124530459065A805E2067206D20BB
:400600006E086F497240760A78207D408301861089048D849028914093109702982299089C109E409F01A010A104A210A512A740A980AD08AF12B080B310C062C22EC402F4
:40064000CAF0CCF0CEF2D024D224D62BD840DE14E202E680030213041A01250331013201330435023F11400641044260440545BF46DE470C481F49FF4AFF4BFF4C224EF0A4
:400680004F0C508C51105608580459045A245B045C115D085F11684069016AC06B01820292019501A801AF03B003B301B502D203D302D804D90CDB04DC19DD10DF0101028F
:4006C00002080320064009100A100B800E4010401310172019081A101B081E40204822022310250C272829022A042B482E4030543208332137083A803B9140404811491083
:400700004B01519053145880592060026220652067086D406E2078207D4084048E20902895209712986499109A849C109D0AA001A502A602A70AAA04C01EC21EC44ACA170E
:40074000CC4FCE0DD001D20CD60CD80CDE14E210E402EA015608580459045B045C115F01810184018B018D0195019901A001A401AC01B101B401BE10BF01D602D72CD80426
:40078000D904DB24DC11DD80DE08DF11000801020308050A074008560B060C100E400F1210A011401310140419102340284629082A802B012C042D082E402F0130283342CA
:4007C0003410350239613B043F12441045085F4062066320658068AC69416B0878207A087B1082088C148D8094089540971298049C109F08A001A301A4A8A50AAE01B34448
:40080000B420B508C03EC2FFC44FCA7FCCAFCEAFD610D811DE06E204E8C0EA08EC80040107020D020F20133C1502171019021B081D021F0420012301240127012E01350125
:400840003601373E3E403F404050410149FF4AFF4BFF4DA04F045018580459045A045C215D025F01604062C06440654066C068C06AC06CC06EC084048E02960C9E02AE0141
:40088000B004B208B402B601BE10C010C105C5D0C610C720C82AC9FFCAFFCBFFCDAFCE0FCF04D018D280D405D804D904DA04DB04DC12DD22DF01E040E2C0E440E540E6C027
:4008C000E8C0EAC0ECC0EEC001100202032005040602082009080B820C400E020F2010801140131817401A021D841E4A200A28402B102C042D182F4530A8310233203410D2
:40090000380839403F12420245804A014C024F015402560257105E485F0177407A027B0184048B01C0A7C2AFC48FCAF3CC2FCEAAD018D218D6D0E080E4020903130315038A
:4009400019031D021F0125032903330137024010410349FF4AFF4BFF4DA04F045018580459045A045C115D055F01604062C06440654066C068C06AC06CC06EC087098E0102
:40098000930495019A01A302AB04B101B308B504B601B702BF10C040C103C5D1C702C813C9FFCAFFCBFFCDAFCE0FCF04D018D280D405D804D904DA04DB04DC55DD55DF0165
:4009C000E040E2C0E440E540E6C0E8C0EAC0ECC0EEC00010010802200702082809100F08104811801F4020022204244025802608270A28282D022F08304932203608370206
:400A000038103A103F0841804308450447024F09550457085C405F09750284498740880189408A048C18984899089C019E10A110A440A620AC80B642C086C246C40BCAA6C4
:400A4000CCCFCE44D0CAD6D0E282E402EC30EE42080114011701180119012301300131013E013F015409580459045B0B5C115D905F01D608D804D904DB04DC11DD90DF019E
:400A80000084010803010602072808080A010C410D200E211011113012101320140C165017011F01244028402A102C142D013005322034413614370839103A403C843D106C
:400AC00058805C505E025F04600267027C0289088A029010911192419304980899089C139E409F01A120A215A602A808A901AB60AC40AD35B402B620C0E5C2F5C477CAE50A
:400B0000CCF7CE7CD6F8D818DE80E204EE0E02020A04100422013001340436023E104030410649FF4AFF4BFF4DA04F0450185401580459045A045B0C5C115D135F01604088
:400B400062C06440654066C068C06AC06CC06EC08301850288028F0E97049A01B002B102B201B301B508B704BE01C060C103C5D0C601C702C816C9FFCAFFCBFFCDAFCE0F32
:400B8000CF04D018D420D604D804D904DA04DB04DC34DD03DF01E040E2C0E440E540E6C0E8C0EAC0ECC0EEC000200420050807410A800B480E861441162017101A201B01F7
:400BC0001C061E421F012108228823442D082E4032083601371038823B043D803E243F1041044410450849014A084C045044510452045A015D806004610463827D408340E0
:400C00008A8090209140931896209702984299889A089B609E409F10A010A244A401A540A908AC01AD20C0F2C2D2C4F0CA50CCA2CE7BD042D224D611D80FDE100A012601FE
:400C400032013E0452805405580459045B045C115D305F018204840887028A018C01900297019A089C04A202AA10B301B41FB702B820BE10D608D804D904DB04DC11DD902F
:400C8000DF010108020403010408060807510A440B100C810E4B0F1010901208144015041602172019041E041F2025402608271128012A022B202D042E4530803311360430
:400CC00037113B103E0A3F1059055A805F4066407001854087408A048C048D088E0292C0931094029604985099019A0C9B609C019E409F11A205A540A802A904B010B20144
:400D0000C0F7C2FEC4FECADBCCEDCEE4D61BD810E040E210E620EC20EE02110416803022358039013E80C430CC70CE605A805F40874091049D80A422AD01D480D620E6409F
:400D4000EA10501056088208910496809D80A422D460E680910496809D80A402AC20B410EA40862009800A100F80232052205C0283408D809780A220AF40C20EC802D404EC
:400D8000D601E208840297809B209C02AA10872097809B20072020805620818091049D80A802AA40C020C840D440E220EA20EE805380584063108440850487108B809104ED
:400DC000B040B620B720D4A0D840E210E440E61001201F40340167088B049780C002C601CC01D801E001AD20B001EC04103B11011A221B011C1B1D01003F100A57010000BB
:400E00000000000043015301130107005200807F7F000900000000000200010E0E000C000000000003040400040000002000847B7B0010000000000078878700810000003B
:400E400004303000100303000001000000000000000000000000000000000000000000000000000000000000000000000000000000000000000000000000000000000000F7
:400E80000000000000000000000000000000000000000000000000000000000000000000000000000000000000000000000000000000000000000000000000000000000032
:400EC00000000000000000000000000000000000000000000000000000000000000000000000000000000000000000000000000000000000000000000000000000000000F2
:400F000000000000000000000000000000000000000000000000000000000000000000000000000000000000000000000000000000000000000000000000000000000000B1
:400F40000000000000000000000000000000000000000000000000000000000000000000000000000000000000000000000000000000000000000000000000000000000071
:0200000490006A
:0400000000004005B7
:0200000490105A
:04000000BC90ACAF55
:0200000490303A
:02000000AE85CB
:0200000490402A
:4000000000000000000000000000000000000000000000000000000000000000000000000000000000000000000000000000000000000000000000000000000000000000C0
:400040000000000000000000000000000000000000000000000000000000000000000000000000000000000000000000000000000000000000000000000000000000000080
:400080000000000000000000000000000000000000000000000000000000000000000000000000000000000000000000000000000000000000000000000000000000000040
:4000C0000000000000000000000000000000000000000000000000000000000000000000000000000000000000000000000000000000000000000000000000000000000000
:0200000490501A
:0C00000000012E16106900012E22BEEE39
:00000001FF