:400000000080002011000000690200006902000008B5044B1A6803F53F5302331A6000F02BF900BFFA46004010B5054C237833B9044B13B10448AFF300800123237010BD7D
:400040009081FF1F00000000F80D0000084B10B51BB108480849AFF300800848036803B910BD074B002BFBD0BDE81040184700BF00000000F80D00009481FF1F0881FF1F27
:4000800000000000C30003F00F0343EA50007047430003F00F0343EAD000704738B568B100241EE0124D2878FFF7F2FF287000F063FC022000F034FC013400E00024092CA3
:4000C000F0DD0C4A13880133138038BD084D6878FFF7DEFF687000F043FC022000F020FC0134092CF2DD034A53880133538038BD0C81FF1FAC81FF1F10B500F0CDFC00F088
:40010000DFFC002000F0E0FC002000F0E9FC0446C0B200F0CFFA204600F0F0FCC0B200F0C9FA0020FFF7BAFFEEE700BF38B568B100241EE0124D2878FFF7A4FF287000F07C
:400140001BFC022000F0ECFB013400E00024092CF0DD0C4A1388013B138038BD084D6878FFF790FF687000F0FBFB022000F0D8FB0134092CF2DD034A5388013B538038BDBD
:400180000C81FF1FAC81FF1F10B5044C207000F09BFA207800F08EFA10BD00BFC581FF1F10B500F06FFA044600F072FAA4F13000C0B2012808D010B1052809D00CE0084B1D
:4001C0001878FFF7E1FF10BD0122064B1A7110BD0522044B1A7110BD3120FFF7D5FF10BDC581FF1FAC81FF1F08B502E00120FFF79DFF0A4B5B79002BF8D002E00020FFF735
:4002000095FF064B9B79002BF8D0044B00229A715A713520FFF7B8FF08BD00BFAC81FF1F08B53020FFF7B0FF62B600F01DFA0C4800F076FA0B4B1B79012B02D0052B05D048
:4002400009E03320FFF7A0FFFFF756FF3320FFF79BFFFFF7C9FF0022024B1A71EAE700BFA1010000AC81FF1F08B500F085FD03680C2B00D1FEE7FEE708B5104E104D16E070
:4002800029686B68AC68002204E051F8040B43F8040B0432A242F8D1E868002203E0002143F8041B04328242F9D11035013E002EE6D100F067FDFFF7B3FFFEE7010000005C
:4002C000600E000008B5134A134B1A60134A136843F40073136000230AE0032B03D8104A52F8231000E00F490F4A42F8231001332F2BF2D90D4B1A780D4B1A700A4A0D4BED
:400300001A6000F0E1F800F027FA00220A4B1A6008BD00BF0004FA050CED00E014ED00E000000000690200000080FF1FBC7600400481FF1F08ED00E00081FF1FFEE700BF01
:40034000F0B40022174611E050F82760F3B226F0FF0608E001EB420511F812406D78A5550132013BDBB2002BF4D10137232FEBD9F0BC704708B50A46002100F034FD08BDD4
:4003800038B51322254B1A801823254A1370192502321580023213700222224B1A7008224FF040231A70032103F5007319701E4B1B78DBB21D490B701D4B1A8041F251228B
:4003C000023B1A8000240CE01A4B1B7803F0010343EA440404F003044FF4F07000F0BCFC013D0DB1032CEFD115B90320FFF7A6FF114B4FF480721A8007221A7000220F499D
:400400000A704820023108701A700222033B1A700B4A137843F00303137038BD80400040824000400043004008010049A146004022420040254200400440004006400040D5
:40044000A2430040F8B5164B1B78DBB2154E3478E4B2154F3D78EDB203F00701134A11701B090132137044F00303337045F003033B7011220E4B1A7040230E4A13700232CE
:40048000137010220C4B1A70202203331A700A2000F05CFA3D7034704422084B1A70F8BDCF010049F8460040F94600406E5800400D51004001590040205B004076580040CE
:4004C00008B500F085FC08BD38B572B63A4A137843F00403137000240CE0384963001A1952000A4423445B00C8589188FFF742FF0134E4B2072CF0D900240BE02F49A3003E
:400500001A1952000A44106B516B8022FFF7D8FF0134E4B2002CF1D04FF090402849FFF70FFF28480421FFF725FF274827490422FFF7C6FF264A137843F00203137010329F
:40054000137843F002031370224C237843F040032370A2F58632513A137843F0100313701D481E490822FFF7ABFF1D481D490A22FFF7A6FF1C481D490822FFF7A1FF1C48DF
:400580001C490822FFF79CFF1B4A137843F0080313701A4D61232B70FFF7F2FE81232B700122174B1A70FFF74DFF164821460E22FFF786FF38BD00BFE8460040FC0D0000D3
:4005C0009000004800760040087600409C07004803500140A04300400251004078070048C051004080070048125100408C0700482251004094070048224300400048004052
:4006000004000840B04300406222084B1A702022A3F580731A7006225E3B1A70472210331A70002250331A70704700BF8965004010B500F099FB04460A4A137843F0200367
:400640001370A2F58072137843F0100313700232137843F01003137000F070F8204600F087FB10BD9965004008B5054B1B7823B9FFF7CAFF0122024B1A70FFF7D9FF08BD8F
:40068000B481FF1F014B1878704700BF4A65004008B500F069FB064B1A7842F001021A701A7802F0FE021A7000F062FB08BD00BF9A650040024B1B780BB1024B18707047AD
:4006C000B481FF1F4864004008B500F04DFB064B1A7842F001021A701A7802F0FE021A7000F046FB08BD00BF98640040014B1B685864704708ED00E04001C0B2014B187087
:40070000704700BF01E400E00222014B1A60704700E100E00222014B1A60704780E100E010B50446FFF7F6FF2046FFF7DFFF0720FFF7E2FFFFF7E8FF10BD00BF054A1378C5
:4007400043F0020313701032137843F002031370704700BFA24300400B4A7F2313708021517007E0DA0002F1804202F5F042013BDBB21370002BF5D1DB0003F1804303F559
:40078000F04300221A7070471081FF1F172815D831B103010A495A5C42F020025A5405E0030107495A5C02F0DF025A540001044A835C43F00103835400207047012070477C
:4007C0001070004017280CD80001074BC1180A7942F004020A71C25C42F00102C254002070470120704700BF1070004017280BD80001064A835C03F0F10301F0070143EABE
:400800004101815400207047012070471070004041F6FF73994201D14FF4005141F6FF739A4201D14FF40052172808D8C00000F1804000F5EC408180C28000207047012070
:40084000704700BF172805D8034B03EB0010417200207047012070471070004017281BD810B4C00000F1804404F5EC44D201D2B201F07F01114321709DF804201201D2B2E7
:4008800003F00F03134363709DF8083003F00F03A3700020E07001E0012070475DF8044B704700BF10B500F05FFA0A4B5B78182B0BD9084A1478013B5370E30003F180430E
:4008C00003F5F0431B78137000E0FF2400F050FA204610BD1081FF1F10F0800F0CD111F4704F0BD1C00000F1804000F5F04001808270C370002070470120704701207047C9
:4009000010F0800F08D1C00000F1804000F5F0408180C280002070470120704701BE704710B5044605E0084B186800F015FAA4F50044B4F5004FF6D8034B586800FB04F0EB
:4009400000F00AFA10BD00BF1881FF1F08B5034B1B7A03FB00F000F0FFF908BD1881FF1F044A137803F00F030001C0B203431370704700BF10510040044A137803F0F0035E
:4009800000F00F0018431070704700BF2051004010B5022001214FF4804241F6FF7300F08FF9084C20700420012141F6FF72134600F0A6F96070044800F0C0F9002000F078
:4009C000C3F910BDB881FF1F050B000070B52C4C2078FFF7F7FE6078FFF7F4FE294B1B78FF2B03D1FFF75EFF264B1870254D2A78104604210623FFF76FFF214E341DA4B2A4
:400A0000287845F6A0312246FFF77AFF30782978FFF718FF6B78FF2B02D1FFF743FF6870184D6A78104604210723FFF755FF68782146154A92B2FFF763FF114C607869785F
:400A4000FFF700FF20780121FFF7A0FE60780121FFF79CFE00F088F90C4A137843F02003137000F085F90A4B1A7842F001021A701A7842F002021A700122064B1A6070BDFD
:400A8000B881FF1F2881FF1FC881FF1F976400407464004080E200E008B5074B9B6823B9FFF776FF0122044B9A60FFF78FFF00F0C7F8024B1B7808BDB881FF1F676500401C
:400AC00008B500F0CBF808BD044B1B7803F0FF020BB90028F8D01046704700BF67650040C0F10100034B33F81030034A1088181A00B27047C881FF1FD481FF1F08B500F0ED
:400B0000B5F808BD704700BF08B50A280FD00C2802D0082806D102E04FF4805209E04FF4807206E00020FFF7F9FE002201E04FF480620021094B198042F2107303FB02F30A
:400B400003F6C413064A82FB0302DB17C3EBE223044A1360044B198008BD00BFCE81FF1FAD8BDB68D081FF1FD481FF1F10B500F0FBF80446184A137843F00103137010325C
:400B8000137843F00103137002F5AA520832137843F0030313701822104B1A70013B1A7842F040021A701A7802F0FC021A70C822053B1A700222A3F597530C3B1A70084A08
:400BC000137843F0080313700A20FFF7BFFE204600F0CEF810BD00BFAB43004006590040275B004010B504460A280DD00C2802D0082804D101E0C22207E0422205E0002057
:400C0000FFF78CFEC22200E08222034B1A702046FFF77AFF10BD00BF0259004008B5064A137843F0060313700A20FFF7DBFF0022024B1A8008BD00BF01590040CC81FF1F15
:400C400008B5054B1B7823B9FFF7E8FF0122024B1A70FFF78BFF08BDC481FF1F024A137843F001031370704700590040114B1B889BB233B10F4B198809B201EB81014900FB
:400C800001E00D4B19680D4B1A88821A12B242F2107000FB02F0002A03DD01EBD1735B1003E001EBD17252105342034493FBF1F000B27047CE81FF1FD081FF1FCC81FF1F6B
:400CC000F0B583B086460F4616461D460B4C01232370002200920192184671463A46FFF7BDFD207831462A46FFF792FD20780221FFF77CFD207803B0F0BD00BF2A81FF1FF4
:400D0000F0B583B086460F4616461D460A4C0023237000930193184671463A46FFF79EFD207831462A46FFF773FD20780221FFF75DFD207803B0F0BD2B81FF1F014B1B6821
:400D40001864704708ED00E04001C0B2014B1870704700BF00E400E00230800803D000BF01380046FCD17047EFF3108072B6704780F31088704700BF014B1868704700BF47
:400D80008C81FF1F0E4B70B51E460E4C0025E41AA410A54204D056F8253098470135F8E700F04CF8084B094C1E46E41AA4100025A54204D056F8253098470135F8E770BD0D
:400DC000480E0000480E0000480E0000500E000010B5431E0A44914204D011F8014B03F8014FF8E710BD03460244934202D003F8011BFAE770470000000000003051004086
:400E00004000F05100401000000001400010001401400006801A0140800100400140000A004C01400002005001402000001A0140F80600488000000043000000F8B500BF3E
:400E4000F8BC08BC9E4670474D000000C5020000F8B500BFF8BC08BC9E46704729000000700E00000881FF1F8800000048000000000000000C0C00007F8000000300000094
:400E80000000E02EC05D00001800000000366E01FFFFFFFF0000000000000000000000000000000000000000000000000000000000000000380E0000000000000000000008
:400EC000000000000000000000000000000000000000000000000000000000000000000000000000000000000000000000000000000000002C81FF1F000000000000000027
:400F000000000000000000000000000000000000000000000000000000000000000000000000000000000000000000000000000000000000000000000000000000000000B1
:400F40000000000000000000000000000000000000000000000000000000000000000000000000000000000000000000000000000000000000000000000000000000000071
:400F80000000000000000000000000000000000000000000000000000000000000000000000000000000000000000000000000000000000000000000000000000000000031
:400FC00000000000000000000000000000000000000000000000000000000000000000000000000000000000000000000000000000000000000000000000000000000000F1
:020000040003F7
:0200000480007A
:400000000245004003520040015B00400364004001650040010101401B040140280501400D0601403A0701404008014049090140300A0140360B0140010D0140020F01401A
:400040000C14014035150140261601403E1701403D1801403E190140031A0140471B01400A40014007410140074201400443014004460140074701400548014001490140F9
:40008000024C0140094D0140085001400251014001010A010001618064402784870189388B0F8962E0401301310152035302580459045B045F0181018401870189018F01B0
:4000C0009001910194019C01A501A601A801A901AC01B601B701D804D904DF0101040320061009100B400C040F4210041251150416051F80210123402702280429012A4596
:400100002B112C042F1030023320350139203A103B603D243F62680569406A108805C024C2BAC4EFCA6FCC85CEFCE640580459045F019B019E01B001B501D602D735D804F4
:40014000D904DB0CDF0103260408070609800A400B100E400F221280130A152019011A4021102210230829012A102B212C042F2030043110328034803501368037083810C9
:400180003C103F325A106008680269146B407040719079409142921095209A109C049D01A402A731AF82C0E7C2BDC44CCA6FCCDECEA4D604D804DE08EE040080012A031418
:4001C00004140503070408090A100B200C4C0E11110312031334141019031B1C1C1C1E421F1520202420272828502A0C2D40301F3220330F34C03540373838283B883E0446
:400200003F1040254104450B460E470C481549FF4AFF4BFF4EF04F44500C580459045A045C115D015F0166C06A406B02D418D604D804D904DB04DD10DF0101200221040275
:4002400005180701081409800A100B200E420F22112012041480150417201D101E441F042408272129202A042E4430143180358037213A013B043E083F2247214C014D8807
:400280005440550856085A026004610162808C0490409104920893049720988099809C149D319E019F21A201A310A440A598A620AC02AF40B480C0F7C2B7C472CA56CCBEE2
:4002C000CEE3D0A0D210D601D80DEE04580459045F01841186068A0C8D048E139103961099039C0C9E139F01A011A102A20EA608B010B103B504B60FB902BA80BE01BF1154
:40030000C001C640C9FFCA07CBFFCC40CD20CEF0CF05D008D401D804D904DA04DB04DC01DD11DF01E040E1A8E240E3200120022105900720081409800B020D080E12112054
:40034000161017011E421F402748281029242D202F51300431803220358436803721381039013A013C903D213F4447404E80561057105C025E505F086220630489048A04BE
:400380008D019040C0E7C2A7C432CAF6CCFECEF5D010D6F0E0A0E64090408C40E040020107012A02300133013402580459045F01D804D904DF010040036004480501088083
:4003C00009080A040D090E0411101221161018401A041B112108220828802A102B112F20310933203501366839043C403E048480850186408A208B019008911699019A1174
:400400009B40A220A320A508A711A804B509C0BDC277C427CA4FCCF7CE52E402E810EC01580459045F018140820483808401850889208A018B108C048D029180920293404A
:4004400097089B019D04A210A302A510A608A720A808A901AC02AF04B41FB7FFB820BE10BF40D401D804D904DB0CDF01012002300342061009100B620D080E040F821004E1
:400480001104128114801502162018081A041B20228029312A012B532F3030063108323033443480350136203704388039163B423D203E203F225A40794082408F1090800F
:4004C00091569220940899119B409C849F04A002A733AC08C02FC2FFC43FCA4FCCFFCEAFD608DE08E204EE0812011901230324012E02300333023501360356085804590DFC
:400500005B045C095D905F01800381118204834084048520880789208D039404953F9A029B109C059D309E029F0BA005A11FA202A320A408A70FA808A902AC08AD30AF071C
:40054000B001B103B408B540B606B73CBA80BB88BE01D602D713D804D904DB04DC11DD10DF010028010209400A050B100E801022111013021401170819411A051B201E804C
:400580001F802020225923022718280429422B202F8032583710382A3B404804491059015C406401682269187014711073147E0483088D808E0190409208940496129C10A8
:4005C0009D209E01A590A6A0AF04C00EC217C4AFCA8FCC2ECE0FD611D810DE20E010D804D904DF0101420228058409080A050B400C100EB2118013161620184019421A21B6
:400600001B202005210823402A402D8030043108321035043651380239183B403D243E204041420449404A285240828083208410850489208A508C018D40911892049314AA
:4006400094069610974099849B029C149D22A150A209A680A904AA20B590B601C0AFC2FFC42FCA18CCF6CE6FD00DD20CE0A0E810EC5012801680308037103B023E808E806A
:40068000C430CC30CE605708630297029F10A480D440D640548056208F1097029F10A480A7099E20AB01AF09EE701B042740C608C80144028E01AB04B740D004E008EA08F7
:4006C000240882209E20C820E220B4049C02A20112807A018E80A201B402C408DC01E202E80800030A010C03100311011A011C031D01000F100A00003948023400F8040024
:400700003BF80000102000C2300000002090002C00003101000004000300380002000000020000003200090132E0081804010306080002000000105042060500010C0E00C5
:4007400005FFFFFF62A0F0410C0000000000000004040400110100010000000000004002001030100010101200000000000000000000000000000000020000000011110031
:4007800080004080800080000000000004FBFB0000000000000F0F0000000000000100000000000000000000000000000000000000000000000000000000000000000000E0
:4007C00000000000000000000000000000000000000000000000000000000000000000000000000000000000000000000000000000000000000000000000000000000000F9
:4008000000000000000000000000000000000000000000000000000000000000000000000000000000000000000000000000000000000000000000000000000000000000B8
:400840000000000000000000000000000000000000000000000000000000000000000000000000000000000000000000000000000000000000000000000000000000000078
:400880000000000000000000000000000000000000000000000000000000000000000000000000000000000000000000000000000000000000000000000000000000000038
:0200000490006A
:0400000000004005B7
:0200000490105A
:04000000BC90ACAF55
:0200000490303A
:0200000070EF9F
:0200000490402A
:4000000000000000000000000000000000000000000000000000000000000000000000000000000000000000000000000000000000000000000000000000000000000000C0
:400040000000000000000000000000000000000000000000000000000000000000000000000000000000000000000000000000000000000000000000000000000000000080
:400080000000000000000000000000000000000000000000000000000000000000000000000000000000000000000000000000000000000000000000000000000000000040
:4000C0000000000000000000000000000000000000000000000000000000000000000000000000000000000000000000000000000000000000000000000000000000000000
:0200000490501A
:0C00000000012E16106900012E1D815811
:00000001FF