:400000000080002011000000A1010000A101000008B5044B1A6803F53F5302331A6000F0C7F800BFFA46004010B5054C237833B9044B13B10448AFF300800123237010BD74
:400040009081FF1F00000000F00E0000084B10B51BB108480849AFF300800848036803B910BD074B002BFBD0BDE81040184700BF00000000F00E00009481FF1F0881FF1F35
:40008000000000000122014B1A707047AC81FF1F10B5044C207000F055FB207800F048FB10BD00BFC681FF1F70B53020FFF7F0FF62B600F02FFB384800F0EEFA00F0C4FA12
:4000C0003022364B1A70354B1B78012BFBD1012000F03CFA00F026FD00F03EFD002000F03FFD002000F03EFA002000F045FD00F051FD84B2192000F053FC284A53880133C0
:400100005380B4F5FA6F02D21379002BECD0012000F028FA214B5E8800F08CFE08B900F081FE002000F01EFA002000F025FD00F031FD85B2192000F033FC184A53880133EC
:400140005380B5F5FA6F02D91379002BECD0012000F008FA114B5C88E0B200F0E9FA00F0F5FCA41B04EBD4746410002000F0EEF9002000F0F7F9E4B204E0192000F010FCA2
:40018000013CE4B2002CF8D1012000F0EBF90022024B1A7097E700BF85000000AC81FF1F08B500F065FE03680C2B00D1FEE7FEE708B5104E104D16E029686B68AC68002227
:4001C00004E051F8040B43F8040B0432A242F8D1E868002203E0002143F8041B04328242F9D11035013E002EE6D100F047FEFFF75BFFFEE701000000580F000008B5134AAD
:40020000134B1A60134A136843F40073136000230AE0032B03D8104A52F8231000E00F490F4A42F8231001332F2BF2D90D4B1A780D4B1A700A4A0D4B1A6000F0E7F800F0FC
:40024000A1FA00220A4B1A6008BD00BF0004FA050CED00E014ED00E000000000A10100000080FF1FBC7600400481FF1F08ED00E00081FF1FFEE700BFF0B40022174611E030
:4002800050F82760F3B226F0FF0608E001EB420511F812406D78A5550132013BDBB2002BF4D10137242FEBD9F0BC704708B50A46002100F014FE08BD38B51322284B1A8098
:4002C0001823284A137019250232158002321370EF2102321180023213700222224B1A7008224FF040231A70032103F5007319701E4B1B78DBB21E490B701E4B1A8041F25A
:400300005122023B1A8000240CE01B4B1B7803F0010343EA440404F003044FF4F07000F097FD013D0DB1032CEFD115B90320FFF7A1FF124B4FF480721A8007221A70002269
:400340000F490A704820023108701A700222033B1A700C4A137843F00703137038BD00BF80400040824000400043004008010049A146004022420040254200400440004000
:4003800006400040A2430040F8B5164B1B78DBB2154E3478E4B2154F3D78EDB203F00701134A11701B090132137044F00303337045F003033B708023A2F2627213704022A1
:4003C0000C490A7002310A700B4A137020220B4B1A700A2000F0FAFA3D7034704422084B1A70F8BDCF010049F8460040F94600406E58004001590040205B0040235B004001
:400400007658004008B500F05FFD08BD38B572B63A4A137843F00403137000240CE0384963001A1952000A4423445B00C8589188FFF73CFF0134E4B2072CF0D900240BE036
:400440002F49A3001A1952000A44106B516B8022FFF7D8FF0134E4B2002CF1D04FF090402849FFF709FF28480421FFF71FFF274827490422FFF7C6FF264A137843F0020316
:4004800013701032137843F002031370224C237843F040032370A2F58632513A137843F0100313701D481E490822FFF7ABFF1D481D490A22FFF7A6FF1C481D490A22FFF7DD
:4004C000A1FF1C481C490822FFF79CFF1B4A137843F0080313701A4D61232B70FFF7ECFE81232B700122174B1A70FFF74DFF164821460E22FFF786FF38BD00BFE84600409F
:40050000F40E00009400004800760040087600406808004803500140A04300400251004040080048C0510040480800481051004054080048225100406008004822430040A1
:400540000048004004000840B0430040044A137803F0BF03800100F0400018431070704710510040044A137803F07F03C001C0B203431370704700BF10510040024A1378CA
:4005800043F080031370704778640040014B1880704700BF18680040014B1880704700BF98680040014B1880704700BF58680040014B1870704700BF8D640040014B1878CA
:4005C000704700BF6D640040014B188880B27047B868004008B501E0FFF7F6FFFFF7EEFF10F0100FF8D108BD10B5154A137803F0C00343F0090313702432137843F00103E7
:400600001370104C237843F0010323704FF4FA70FFF7BCFF4FF4FA70FFF7BEFFFA20FFF7C1FF0420FFF7C4FF00F01AFC237843F01003237000F018FCFFF7CCFF10BD00BF40
:40064000786400409D64004008B5054B1B7823B9FFF7CAFF0122024B1A70FFF78FFF08BDB281FF1F014B1B685864704708ED00E04001C0B2014B1870704700BF01E400E075
:400680000222014B1A60704700E100E00222014B1A60704780E100E010B50446FFF7F6FF2046FFF7DFFF0720FFF7E2FFFFF7E8FF10BD00BF6222084B1A702022A3F580732D
:4006C0001A700622623B1A70472210331A70002257331A70704700BF8A65004010B500F0BFFB04460A4A137843F020031370A2F58072137843F0100313700532137843F0CD
:400700001003137000F030F8204600F0ADFB10BD9A65004008B5054B1B7823B9FFF7CAFF0122024B1A70FFF7D9FF08BDB381FF1F024B1B780BB1024B18707047B381FF1F6D
:400740004B64004008B500F08BFB064B1A7842F001021A701A7802F0FE021A7000F084FB08BD00BF9B640040054A137843F0020313701032137843F002031370704700BFE2
:40078000A24300400B4A7F2313708021517007E0DA0002F1804202F5F042013BDBB21370002BF5D1DB0003F1804303F5F04300221A7070470C81FF1F172815D831B103017F
:4007C0000A495A5C42F020025A5405E0030107495A5C02F0DF025A540001044A835C43F00103835400207047012070471070004017280BD80001064BC25C02F0FE02C25439
:40080000C25C02F0DF02C25400207047012070471070004017280CD80001074BC1180A7942F004020A71C25C42F00102C254002070470120704700BF1070004017280BD804
:400840000001064A835C03F0F10301F0070143EA4101815400207047012070471070004041F6FF73994201D14FF4005141F6FF739A4201D14FF40052172808D8C00000F10F
:40088000804000F5EC408180C280002070470120704700BF172805D8034B03EB0010417200207047012070471070004017281BD810B4C00000F1804404F5EC44D201D2B231
:4008C00001F07F01114321709DF804201201D2B203F00F03134363709DF8083003F00F03A3700020E07001E0012070475DF8044B704700BF10B500F0B3FA0A4B5B78182B2F
:400900000BD9084A1478013B5370E30003F1804303F5F0431B78137000E0FF2400F0A4FA204610BD0C81FF1F10B5044610F0800F0FD100F095FAE30003F1804303F5F043EA
:40094000044A11781970147053780133537000F08BFA10BD0C81FF1F10F0800F0CD111F4704F0BD1C00000F1804000F5F04001808270C37000207047012070470120704715
:4009800010F0800F08D1C00000F1804000F5F0408180C280002070470120704701BE704710B5044605E0084B186800F051FAA4F50044B4F5004FF6D8034B586800FB04F02F
:4009C00000F046FA10BD00BF1481FF1F08B5034B1B7A03FB00F000F03BFA08BD1481FF1F70B50B4A137803F0FE031370094E3078FFF7FEFE084C2078FFF796FFFF252570C0
:400A00007078FFF7F5FE6078FFF78EFF657070BD79640040B881FF1F2481FF1F10B5022001214FF4804241F6FF7300F0AFF9084C20700220012141F6FF72134600F0C6F92A
:400A40006070044800F0E0F9002000F0E3F910BDB881FF1F9D0B000070B52C4C2078FFF7D9FE6078FFF7D6FE294B1B78FF2B03D1FFF740FF264B1870254D2A781046022175
:400A80000623FFF769FF214E341DA4B2287845F6A0312246FFF774FF30782978FFF7FAFE6B78FF2B02D1FFF725FF6870184D6A78104602210723FFF74FFF68782146154A3F
:400AC00092B2FFF75DFF114C60786978FFF7E2FE20780121FFF770FE60780121FFF76CFE00F0BEF90C4A137843F02003137000F0BBF90A4B1A7842F001021A701A7842F08D
:400B000002021A700122064B1A6070BDB881FF1F2481FF1FC881FF1F996500407964004080E200E008B5074B9B6823B9FFF776FF0122044B9A60FFF78FFF00F0E7F8024B89
:400B40001B7808BDB881FF1F6B65004008B500F095F8FFF745FF08BD08B500F0E5F808BD044B1B7803F0FF020BB90028F8D01046704700BF6B6500404042044B33F810308C
:400B8000034A1088181A00B2704700BFC881FF1FD481FF1F08B500F0CFF808BD704700BF08B50A280FD00C2802D0082806D102E04FF4805209E04FF4807206E00020FFF781
:400BC000EDFE002201E04FF480620021094B198042F2107303FB02F303F6C413064A82FB0302DB17C3EBE223044A1360044B198008BD00BFCE81FF1FAD8BDB68D081FF1F5F
:400C0000D481FF1F10B500F02BF90446184A137843F0010313701032137843F00103137002F5AA520832137843F0030313701822104B1A70013B1A7842F040021A701A78FF
:400C400002F0FC021A70C822053B1A700222A3F597530C3B1A70084A137843F0080313700A20FFF7B3FE204600F0FEF810BD00BFAB43004006590040275B004008B500F04C
:400C8000EFF80A4A137803F0FE031370A2F5AA52153A137803F0FE0313701032137803F0FE03137000F0E0F808BD00BF0059004010B504460A280DD00C2802D0082804D1C1
:400CC00001E0C22207E0422205E00020FFF766FEC22200E08222034B1A702046FFF760FF10BD00BF0259004008B5064A137843F0060313700820FFF7DBFF0022024B1A800B
:400D000008BD00BF01590040CC81FF1F08B5054B1B7823B9FFF7E8FF0122024B1A70FFF771FF08BDC481FF1F024A137843F001031370704700590040114B1B889BB233B138
:400D40000F4B198809B201EB8101490001E00D4B19680D4B1A88821A12B242F2107000FB02F0002A03DD01EBD1735B1003E001EBD17252105342034493FBF1F000B2704784
:400D8000CE81FF1FD081FF1FCC81FF1FF0B583B086460F4616461D460B4C01232370002200920192184671463A46FFF77FFD207831462A46FFF754FD20780221FFF73EFD26
:400DC000207803B0F0BD00BF2681FF1FF0B583B086460F4616461D460A4C0023237000930193184671463A46FFF760FD207831462A46FFF735FD20780221FFF71FFD207898
:400E000003B0F0BD2781FF1F014B1B681864704708ED00E04001C0B2014B1870704700BF00E400E04FF40062014B1A60704700BF00E100E0044B1B6813F4006F01D0012018
:400E400070470020704700BF00E100E0000000000230800803D000BF01380046FCD17047EFF3108072B6704780F31088704700BF014B1868704700BF8881FF1F0E4B70B55C
:400E80001E460E4C0025E41AA410A54204D056F8253098470135F8E700F04CF8084B094C1E46E41AA4100025A54204D056F8253098470135F8E770BD400F0000400F000017
:400EC000400F0000480F000010B5431E0A44914204D011F8014B03F8014FF8E710BD03460244934202D003F8011BFAE77047000000000000305100404000F051004010006E
:400F0000000001400010001401400006801A0140800100400140000A004C01400002005001402000001A0140C00700488000000043000000F8B500BFF8BC08BC9E46704732
:400F40004D000000FD010000F8B500BFF8BC08BC9E46704729000000680F00000881FF1F8800000048000000000000007F800000030000000000E02EC05D0000180000004B
:400F800000366E01FFFFFFFF0000000000000000000000000000000000000000000000000000000000000000300F0000000000000000000000000000000000000000000051
:400FC000000000000000000000000000000000000000000000000000000000000000000000000000000000002881FF1F00000000000000000000000000000000000000002A
:4010000000000000000000000000000000000000000000000000000000000000000000000000000000000000000000000000000000000000000000000000000000000000B0
:401040000000000000000000000000000000000000000000000000000000000000000000000000000000000000000000000000000000000000000000000000000000000070
:401080000000000000000000000000000000000000000000000000000000000000000000000000000000000000000000000000000000000000000000000000000000000030
:4010C00000000000000000000000000000000000000000000000000000000000000000000000000000000000000000000000000000000000000000000000000000000000F0
:020000040003F7
:0200000480007A
:400000000145004006520040015B00400364004001650040010301400205014010060140290701404308014054090140450A0140430B01403F0C0140400D01400E0E0140A4
:40004000290F0140051501400B16014039170140381801404C190140121A01404C1B01400A4001400941014008420140034301400245014007460140054701400A4801400F
:4000800001490140014C0140094D01400A50014002510140620200800180100111016180644027848A388D0D8F0F8A62E602E220E60106010C01140118011C012401280145
:4000C0003401580459045F01AA01B401D804D904DF01004001080440050C09210C800F28108811401308171818081B101F2029042A092B042C802E08308031203620371062
:4001000038483C403D023E203F088221830884088C409904B504C0A5C2EAC46FCAC7CC2CCEFAE206010204DC062209030A03140916D0180C19031A711C142010224024109E
:4001400026AC2A202B01321F34E0350339203A203F104003454049FF4A074BFF4C404D204EF04F0550085280580459045A045B045C015D215F01604061A862406320860132
:40018000870489018F0293049B02A101A602B101B201B302B504B602B902BF11D203D302D804D904DB04DC20DF010048038004100508080209040E240F02104011441208E2
:4001C00013021501162819801A201B801C101D101E0421042222270428802D802F1831203201344235103608388039103B083C423D283E20450147054D01560857086990E5
:400200006B0976807803820887048C808D408E1090C095099624970499289B029C019D809E0A9F50A001A110A218A301A410A524A6A0A720B095B108B201B420B524B643CA
:40024000C06DC2ECC47FCA71CCF5CEFED040E240EA1007010D02110115041B081F04230227102D08371F39803F4054185604580459045B045D105F018240840C8653870563
:40028000882089038A438B0C8D038F04950A960C970498519A0E9B08A208A451A503A606A704B230B440B50FB60FB808BA80BB20BE10C032C106C5E0C60CC7B0C826C9FF76
:4002C000CAFFCBFFCEF0CF44D00CD804D904DA04DC11DD01DF01E6C0EA40EB0200400508064808020A200B200E241001110812081302150117041C0A1E20224023022510E9
:400300002704280229A02A022B202E043001320833503508361038403A013B243D203E88460847044C804E0456C057015A0D62A0634085048B4090C096209CA19D809E408D
:400340009F42A208A480A524C071C26CC43FCA4FCC6FCE7FD060D220D601D80DE008E220E6014020410649FF4AFF4BFF4DA04F045018580459045A045D025F01604062C091
:400380006440654066C068C06AC06CC06EC0820590049A029F01AA02B001B301B402B604BE10C020C106C5D0C601C702C816C9FFCAFFCBFFCDAFCE0FCF04D018D405D604B0
:4003C000D804D904DA04DB04DC02DD22DF01E040E2C0E440E540E6C0E8C0EAC0ECC0EEC00280044009200A400C210F021008144015081608170219401A44210422082840C8
:4004000029802B012C012F20302132183340358036083702384039043C403D0C3E0841204520480849014C085048528059415A04634087409040950896209CE19D809E4056
:40044000A320A480A504A608AE40AF10C088C2DAC472CA59CCDFCE5AD024D224D60BD8011A013001580459045F019C01B401BE10D401D804D904DB04DD10DF0100400208D4
:400480000340044008200A200C810D040E011041110814401504175018401E08284029802C402F203001321833303401358036083740384039043C403D0C5C805E095F1085
:4004C000C08BC2B6C4FDCAC9CCD7CE5AD6F0A940AB04B520E810EE04580459045F019701B501D608D804D904DB04DD90DF010040032004400504070809200C800F28108098
:400500001150130815202130222029042B242C802E202F2030843120362038483A203C403D103F285A406301824084048F019048954099049A209B08A080A310A520A62070
:40054000A704AC80AF20B404B501C0E5C2E2C44FCAE6CC2ECE7ED608D808E208E601EA0802020801340236013E40580459045C025F018111820883808408850987748A0463
:400580008B368D208E029201941095089620980199089C029F01A004A17FA440A577A680A708A820A909AA10AB72AC80AD30AE40B140B330B4FFB50FB780B902BA02BB2086
:4005C000BE10D602D73ED804D904DB0CDC11DF0100400104020803800410068008020A250B201002111919021B201D201E02202421802201280129022B182F9031943402BB
:4006000035203608380639203B403C403D085B086202680669156B50720773047980830284028C048E408F0490509180922095049602972C980299209A809B089E029F50CB
:40064000A101A20AA380A414A524A680A720AD80B402C05FC20FC40FCACFCCEECE5FD602D801DE08E410E8108A028E0492019901A001A604AF03B003B302B404B701BE1004
:40068000D401D804D90FDB0FDC09DF0100060102020104400580070409080A460E80100811401220148015081702182419811B181E881F02200921182221234027122F027C
:4006C00031083201371038023994404548054B08510459015C8069947008711472047D028285840185088C118D408E01924094029520974899029B049C019D149F02A101C8
:40070000A201A680A718A840B504C0CDC21FC437CA10CC23CE0FD00DD20CD611DE80E401E810EC401108168032403308362038083E80C430CC70CE606708870894089680BA
:40074000A104A620A708D880E64080048A20940896809708A104A620E68096809708A1045702D6041B08274083088702A702C608C80144028F409B40D004E20824088104C7
:4007800082409680A104AF04C820E020E680EE10B4049C021280700480048E80B402C408DC01E202E80800070A010C070E07100711011A011B011C071D01003F100A000068
:4007C0003F0A00543D3F0200003F00001E01210032240D520C1000A802000000080000000000000000002D000200000004000000100603380E0122C00000280000000140FE
:4008000026050400010E000C11FFFFFF62A0F0410C000000000002130404040411110001000000000000400200103010001010120000000000000000000000000000000015
:400840000000000000808000800044808000800000000000800000CBCB0000000000000000010100010000000001000000000000000000000000000000000000000000001A
:400880000000000000000000000000000000000000000000000000000000000000000000000000000000000000000000000000000000000000000000000000000000000038
:4008C00000000000000000000000000000000000000000000000000000000000000000000000000000000000000000000000000000000000000000000000000000000000F8
:4009000000000000000000000000000000000000000000000000000000000000000000000000000000000000000000000000000000000000000000000000000000000000B7
:400940000000000000000000000000000000000000000000000000000000000000000000000000000000000000000000000000000000000000000000000000000000000077
:0200000490006A
:0400000000004005B7
:0200000490105A
:04000000BC90ACAF55
:0200000490303A
:02000000306668
:0200000490402A
:4000000000000000000000000000000000000000000000000000000000000000000000000000000000000000000000000000000000000000000000000000000000000000C0
:400040000000000000000000000000000000000000000000000000000000000000000000000000000000000000000000000000000000000000000000000000000000000080
:400080000000000000000000000000000000000000000000000000000000000000000000000000000000000000000000000000000000000000000000000000000000000040
:4000C0000000000000000000000000000000000000000000000000000000000000000000000000000000000000000000000000000000000000000000000000000000000000
:0200000490501A
:0C00000000012E16106900012E1E40CFDA
:00000001FF