:400000000080002011000000E1050000E105000008B5044B1A6803F53F5302331A6000F0E7FA00BFFA46004010B5054C237833B9044B13B10448AFF300800123237010BDCA
:400040009081FF1F0000000018150000084B10B51BB108480849AFF300800848036803B910BD074B002BFBD0BDE81040184700BF00000000181500009481FF1F0881FF1FD7
:400080000000000008B500F0B3FE00F087FF104B1B7873B9022803D9002000F079FF03E00130C0B200F074FF0A4A13880133138008BD18B9032000F06BFF03E00138C0B284
:4000C00000F066FF034A1388013B138008BD00BFC981FF1FAC81FF1F08B500F005FF00F0D1FF104B1B7873B9022803D9002000F0C3FF03E00130C0B200F0BEFF0A4A5388F8
:400100000133538008BD18B9032000F0B5FF03E00138C0B200F0B0FF034A5388013B538008BD00BFCA81FF1FAC81FF1FC30003F00F0343EA50007047430003F00F0343EA4E
:40014000D000704738B568B100241EE0124D2878FFF7F2FF287000F01BFC022000F000FE013400E00024092CF0DD0C4AD3880133D38038BD084D6878FFF7DEFF687000F003
:4001800013FC022000F0ECFD0134092CF2DD034A13890133138138BD0C81FF1FAC81FF1F38B568B100241EE0124D2878FFF7BEFF287000F0EDFB022000F0D2FD013400E020
:4001C0000024092CF0DD0C4AD388013BD38038BD084D6878FFF7AAFF687000F0E5FB022000F0BEFD0134092CF2DD034A1389013B138138BD0C81FF1FAC81FF1F10B5044C69
:40020000207000F023FC207800F000FC10BD00BFCB81FF1F10B500F005FC044600F008FC062C22D8DFE804F004090D1115191D00104B1878FFF7E2FF10BD01220E4B9A723D
:4002400010BD02220C4B9A7210BD03220A4B9A7210BD0422084B9A7210BD0522064B9A7210BD0622044B9A7210BD3120FFF7C6FF10BD00BFCB81FF1FAC81FF1F70B500F0B5
:40028000A9FF00F0C1FF002000F0C2FF002000F0CBFF84B20020FFF755FF472CF6D91E4BDE88092EF2D906D900F0A8FF2220FFF7A5FFFF202EE0002000F0B6FF85B20020ED
:4002C000FFF740FF482DF6D8134BDC88092CF2D906D900F093FF2120FFF790FFFF2019E000F08CFFA41B04EBD4746410A3B25B00023B032B04D92120FFF780FFFF2009E0EA
:40030000E4B204E00020FFF74BFF013CE4B2002CF8D1002040B270BDAC81FF1F70B500F059FF00F071FF002000F072FF012000F07BFF84B20120FFF705FF472CF6D91E4BBC
:400340001E89092EF2D906D900F058FF2220FFF755FFFF202EE0012000F066FF85B20120FFF7F0FE482DF6D8134B1C89092CF2D906D900F043FF2120FFF740FFFF2019E05E
:4003800000F03CFFA41B04EBD4746410A3B25B00023B032B04D92120FFF730FFFF2009E0E4B204E00120FFF7FBFE013CE4B2002CF8D1002040B270BDAC81FF1F08B5002287
:4003C000184B1A70012000F017FE00F057FD164800F004FE012000F0DBFD144B1B88632BFBD900F0E5FC002000F006FE0022104B1A70012000F034FE00F0BCFD0D4800F0EC
:4004000021FE012000F038FE084B5B88632BFBD900F04AFD002000F023FE1520FFF7EEFE08BD00BFC981FF1F85000000AC81FF1FCA81FF1FD900000008B502E00120FFF78B
:40044000AFFE0C4B5B79002BF8D002E00020FFF7A7FE084B1B79002BF8D0064B00221A715A71054B1B78152B02D13520FFF7C6FE08BD00BFAC81FF1FCB81FF1F10B5012449
:40048000184B1C70204600F0B7FD00F0F7FC164800F0A4FD204600F07BFD144B1B88002BFBD100F085FC002000F0A6FD0124104B1C70204600F0D4FD00F05CFD0D4800F0C5
:4004C000C1FD204600F0D8FD084B5B88002BFBD100F0EAFC002000F0C3FD1620FFF78EFE10BD00BFC981FF1F85000000AC81FF1FCA81FF1FD900000008B53020FFF77EFE03
:4005000062B600F0E9FA00F073FA334800F00CFB00F0AEFA00F09AFA304B9B7A013B052B56D8DFE803F003122B444A503320FFF765FEFFF7A3FE00284AD1FFF7EFFE002852
:4005400046D11020FFF75AFE42E03320FFF756FE00F040FE00F058FE002000F059FE002000F062FE482803DD1320FFF747FE02E02120FFF743FE00F041FE29E03320FFF743
:400580003DFE00F027FE00F03FFE002000F040FE002000F049FE472803DC1420FFF72EFE02E02120FFF72AFE00F028FE10E03320FFF724FEFFF702FF0AE03320FFF71EFE7D
:4005C000FFF73AFF04E03320FFF718FEFFF756FF0022024B9A729FE715020000AC81FF1F08B500F059FF03680C2B00D1FEE7FEE708B5104E104D16E029686B68AC68002291
:4006000004E051F8040B43F8040B0432A242F8D1E868002203E0002143F8041B04328242F9D11035013E002EE6D100F03BFFFFF763FFFEE7010000007015000008B5134A4D
:40064000134B1A60134A136843F40073136000230AE0032B03D8104A52F8231000E00F490F4A42F8231001332F2BF2D90D4B1A780D4B1A700A4A0D4B1A6000F0F1F800F0AE
:4006800061FA00220A4B1A6008BD00BF0004FA050CED00E014ED00E000000000E10500000080FF1FBC7600400481FF1F08ED00E00081FF1FFEE700BFF0B40022174611E0E8
:4006C00050F82760F3B226F0FF0608E001EB420511F812406D78A5550132013BDBB2002BF4D10137262FEBD9F0BC704708B50A46002100F008FF08BD38B50B222B4B1A8062
:4007000018232B4A13701321023211800232137040F21D1227490A8002310B7002310A80254A13700222254B1A7008224FF040231A70032103F500731970214B1B78DBB206
:4007400020490B70204B1A8041F25122023B1A80002419250CE01D4B1B7803F0010343EA440404F003044FF4F07000F085FE013D0DB1032CEFD115B90320FFF79BFF144B82
:400780004FF480721A8007221A70002211490A704820023108701A700222033B1A700E4A137843F00F03137038BD00BF8040004082400040884000408E400040004300403E
:4007C00008010049A146004022420040254200400440004006400040A2430040F8B5164B1B78DBB2154E3478E4B2154F3D78EDB203F00701134A11701B090132137044F094
:400800000303337045F003033B7011220E4B1A7040230E4A13700232137010220C4B1A70202203331A700A2000F0B0FA3D7034704422084B1A70F8BDCF010049F846004065
:40084000F94600406E5800400D51004001590040205B00407658004008B500F049FE08BD38B572B6344A137843F00403137000240CE0324963001A1952000A4423445B00DB
:40088000C8589188FFF732FF0134E4B2062CF0D94FF090402A49FFF70FFF2A480421FFF725FF294829490422FFF7D6FF284A137843F0020313701032137843F002031370C7
:4008C000244C237843F040032370A2F58632513A137843F0100313701F4820490822FFF7BBFF1F481F490822FFF7B6FF1E481F490822FFF7B1FF1E481E490822FFF7ACFF32
:400900001D481E490822FFF7A7FF1D4A137843F0080313701B4D61232B70FFF7EDFE81232B700122184B1A70FFF758FF174821460E22FFF791FF38BDE84600401C1500005E
:400940009C00004800760040087600404009004803500140A04300400251004018090048C2510040200900481251004028090048225100403009004832510040380900487B
:40098000224300400048004004000840B0430040044A137803F0F00300F00F0018431070704700BF20510040044A137803F00F030001C0B203431370704700BF105100409A
:4009C00008B500F061FD094A137843F020031370053A137843F01003137002F58372137843F01003137000F053FD08BD96640040704700BF014B1878704700BF6164004056
:400A0000014B1878704700BF67650040034B1B7813F0020FFAD0024B187070476164004046640040014B1878704700BF5664004001E0044B1B78044B1B7813F0080FF8D14A
:400A4000704700BF566400406765004008B500F01BFD064B1A7842F003021A701A7802F0FC021A7000F014FD08BD00BF9664004008B501E00A4B1B780A4B1B7813F0080F3E
:400A8000F8D100F001FD084B1A7842F003021A701A7802F0FC021A7000F0FAFC08BD00BF56640040676500409664004008B50722074B1A70FFF7DCFFFFF79CFFFFF7A0FF6A
:400AC0000022044B1A70082203F583731A7008BD866400408164004008B5054B1B7823B9FFF7E4FF0122024B1A70FFF769FF08BDB881FF1F014B1B685864704708ED00E065
:400B00004001C0B2014B1870704700BF01E400E00222014B1A60704700E100E00222014B1A60704780E100E010B50446FFF7F6FF2046FFF7DFFF0720FFF7E2FFFFF7E8FFA0
:400B400010BD00BF0B4A7F2313708021517007E0DA0002F1804202F5F042013BDBB21370002BF5D1DB0003F1804303F5F04300221A7070471081FF1F172815D831B1030150
:400B80000A495A5C42F020025A5405E0030107495A5C02F0DF025A540001044A835C43F00103835400207047012070471070004017280BD80001064BC25C02F0FE02C25475
:400BC000C25C02F0DF02C25400207047012070471070004017280CD80001074BC1180A7942F004020A71C25C42F00102C254002070470120704700BF1070004017280BD841
:400C00000001064A835C03F0F10301F0070143EA4101815400207047012070471070004041F6FF73994201D14FF4005141F6FF739A4201D14FF40052172808D8C00000F14B
:400C4000804000F5EC408180C280002070470120704700BF172805D8034B03EB0010417200207047012070471070004017281BD810B4C00000F1804404F5EC44D201D2B26D
:400C800001F07F01114321709DF804201201D2B203F00F03134363709DF8083003F00F03A3700020E07001E0012070475DF8044B704700BF10B500F0E7FB0A4B5B78182B36
:400CC0000BD9084A1478013B5370E30003F1804303F5F0431B78137000E0FF2400F0D8FB204610BD1081FF1F10B5044610F0800F0FD100F0C9FBE30003F1804303F5F043B9
:400D0000044A11781970147053780133537000F0BFFB10BD1081FF1F10F0800F0CD111F4704F0BD1C00000F1804000F5F04001808270C37000207047012070470120704718
:400D400010F0800F08D1C00000F1804000F5F0408180C280002070470120704701BE704710B5044605E0084B186800F085FBA4F50044B4F5004FF6D8034B586800FB04F036
:400D800000F07AFB10BD00BF1881FF1F08B5034B1B7A03FB00F000F06FFB08BD1881FF1F024A137843F080031370704775650040024A137803F07F031370704775650040A6
:400DC000014B1880704700BF086A0040014B1880704700BF886A0040014B1880704700BF486A0040014B1870704700BF85650040014B1878704700BF65650040014B188853
:400E000080B27047A86A004008B501E0FFF7F6FFFFF7EEFF10F0100FF8D108BD10B5154A137803F0C00343F00B0313701F32137843F001031370104C237843F001032370DE
:400E40004FF4FA70FFF7BCFF4FF4FA70FFF7BEFFFA20FFF7C1FF0420FFF7C4FF00F014FB237843F01003237000F012FBFFF7CCFF10BD00BF756500409565004008B5054BE9
:400E80001B7823B9FFF7CAFF0122024B1A70FFF787FF08BDB981FF1F024A137843F08003137070477D640040024A137803F07F03137070477D640040014B1880704700BF88
:400EC00018680040014B1880704700BF98680040014B1880704700BF58680040014B1870704700BF8E640040014B1878704700BF6E640040014B188880B27047B868004029
:400F000008B501E0FFF7F6FFFFF7EEFF10F0100FF8D108BD08B5154A137803F0C00343F00B0313701F32137843F0010313700132137843F0010313704FF4FA70FFF7BCFF0B
:400F40004FF4FA70FFF7BEFFFA20FFF7C1FF0420FFF7C4FF00F098FA054A137843F01003137000F095FAFFF7CBFF08BD7D6400409E64004008B5054B1B7823B9FFF7CAFF9D
:400F80000122024B1A70FFF787FF08BDBA81FF1F014B1870704700BF74650040014B1878704700BF74650040014B1B689864704708ED00E04001C0B2014B1870704700BF7B
:400FC00002E400E00422014B1A60704700E100E00422014B1A60704780E100E010B50446FFF7F6FF2046FFF7DFFF0720FFF7E2FFFFF7E8FF10BD00BF044A137803F0FE037B
:4010000000F0010018431070704700BF30510040014B1B68D864704708ED00E04001C0B2014B1870704700BF03E400E00822014B1A60704700E100E00822014B1A60704743
:4010400080E100E010B50446FFF7F6FF2046FFF7DFFF0720FFF7E2FFFFF7E8FF10BD00BF044A137803F0FD03400000F0020018431070704730510040014B1870704700BFF9
:401080007A640040014B1878704700BF7A64004070B50B4A137803F0FE031370094E3078FFF786FD084C2078FFF71EFEFF2525707078FFF77DFD6078FFF716FE657070BDBB
:4010C00075640040BC81FF1F2881FF1F10B5022001214FF4804241F6FF7300F081F9084C20700420012141F6FF72134600F098F96070044800F0B2F9002000F0B5F910BDA6
:40110000BC81FF1F4512000070B52C4C2078FFF761FD6078FFF75EFD294B1B78FF2B03D1FFF7C8FD264B1870254D2A78104604210623FFF7F1FD214E341DA4B2287845F605
:40114000A0312246FFF7FCFD30782978FFF782FD6B78FF2B02D1FFF7ADFD6870184D6A78104604210723FFF7D7FD68782146154A92B2FFF7E5FD114C60786978FFF76AFD46
:4011800020780121FFF7F8FC60780121FFF7F4FC00F07AF90C4A137843F02003137000F077F90A4B1A7842F001021A701A7842F002021A700122064B1A6070BDBC81FF1FC0
:4011C0002881FF1FCC81FF1F936400407564004080E200E008B5074B9B6823B9FFF776FF0122044B9A60FFF78FFF00F0E3F8024B1B7808BDBC81FF1F6264004008B500F064
:4012000091F8FFF745FF08BD08B500F0E1F808BD044B1B7803F0FF020BB90028F8D01046704700BF62640040C0F10100034B33F81030034A1088181A00B27047CC81FF1F29
:40124000D881FF1F704700BF08B50A280FD00C2802D0082806D102E04FF4805209E04FF4807206E00020FFF779FD002201E04FF480620021094B198042F2107303FB02F33F
:4012800003F6C413064A82FB0302DB17C3EBE223044A1360044B198008BD00BFD281FF1FAD8BDB68D481FF1FD881FF1F10B500F0EBF80446184A137843F001031370103219
:4012C000137843F00103137002F5AA520832137843F0030313701822104B1A70013B1A7842F040021A701A7802F0FC021A70C822053B1A700222A3F597530C3B1A70084AC1
:40130000137843F0080313700A20FFF73FFD204600F0BEF810BD00BFAB43004006590040275B004008B500F0AFF80A4A137803F0FE031370A2F5AA52153A137803F0FE03D3
:4013400013701032137803F0FE03137000F0A0F808BD00BF0059004010B504460A280DD00C2802D0082804D101E0C22207E0422205E00020FFF7F2FCC22200E08222034B29
:401380001A702046FFF760FF10BD00BF0259004008B5064A137843F0060313700820FFF7DBFF0022024B1A8008BD00BF01590040D081FF1F08B5054B1B7823B9FFF7E8FF83
:4013C0000122024B1A70FFF771FF08BDC881FF1F024A137843F001031370704700590040F0B583B086460F4616461D460B4C01232370002200920192184671463A46FFF7E8
:4014000035FC207831462A46FFF70AFC20780221FFF7F4FB207803B0F0BD00BF2A81FF1FF0B583B086460F4616461D460A4C0023237000930193184671463A46FFF716FC58
:40144000207831462A46FFF7EBFB20780221FFF7D5FB207803B0F0BD2B81FF1F014B1B681864704708ED00E04001C0B2014B1870704700BF00E400E00230800803D000BFEA
:4014800001380046FCD17047EFF3108072B6704780F31088704700BF014B1868704700BF8C81FF1F0E4B70B51E460E4C0025E41AA410A54204D056F8253098470135F8E785
:4014C00000F044F8084B094C1E46E41AA4100025A54204D056F8253098470135F8E770BD5815000058150000581500006015000010B5431E0A44914204D011F8014B03F837
:40150000014FF8E710BD03460244934202D003F8011BFAE77047000000000000405100403000F0510040100000000140001000140140000800400140000A004C0140000270
:40154000005001402000000043000000F8B500BFF8BC08BC9E4670474D0000003D060000F8B500BFF8BC08BC9E46704729000000801500000881FF1F8800000050000000AC
:40158000000000000C0C00007F800000030000000000E02EC05D00001800000000366E01FFFFFFFF000000000000000000000000000000000000000000000000000000002D
:4015C000000000004815000000000000000000000000000000000000000000000000000000000000000000000000000000000000000000000000000000000000000000008E
:40160000000000002C81FF1F0000000000000000000000000000000000000000000000000000000000000000000000000000000000000000000000000000000000000000DF
:40164000000000000000000000000000000000000000000000000000000000000000000000000000000000000000000000000000000000000000000000000000000000006A
:40168000000000000000000000000000000000000000000000000000000000000000000000000000000000000000000000000000000000000000000000000000000000002A
:4016C00000000000000000000000000000000000000000000000000000000000000000000000000000000000000000000000000000000000000000000000000000000000EA
:4017000000000000000000000000000000000000000000000000000000000000000000000000000000000000000000000000000000000000000000000000000000000000A9
:020000040003F7
:0200000480007A
:400000000245004007520040015B0040046400400265004015000140340101403302014047030140330401404A0501403606014044070140050901400C0A0140380B0140AD
:400040004B0C01403C0D0140100E01402A0F014050140140441501402116014048170140011B01400B4001400D4101400A4201400743014002440140084501400C460140F6
:40008000054701400A48014010490140014C0140024D0140095001400251014006010A010001011010C01160185019C0601027848147830186078E0D850D87782B012E0119
:4000C0002F02310134013702580459045C115F01830187019501B701BF40D441D804D904DB04DC11DF0100400120032004400520071009080A820D080F401012140817027A
:40010000180419201B10210122C32342264029102A402B202C012FA030103108325033103686384439023C403F265E805F1467208008832084018508C0E7C23DC455CADE75
:40014000CCDECEFBD670D840E002E240E60405010A010B010C010D0110011401150118011C01210129012A012D01330134015401580459045B0C5C115D105F018004841041
:40018000862088408A808B018E049202960898019E01A002A408A820AA10AC80AE40B501B6FFBE40D602D732D804D904DB0CDC10DD10DF0100480121044005200840094846
:4001C0000A860BC20C400D180F40100A11041240130216081A011F202008211022102720284029202A082B102D202F41310832503408384039103C483F205B045C805E40B3
:400200006280680A691571107204730279407F0280808720928294409620973499209D109E40A402A508A604A701AA10AB80B201C0CFC2FFC44FCAB7CC4ECE7CD612D808A5
:40024000DE18020405010C04100214081A011B041E102202230226082C012D0131023304341F3701382039803E103F405608580459045B045C115D905F018E08950196013E
:4002800098049B039E04A202A801AC08B203B301B404B502B608BE50D203D302D804D90CDB04DC19DD10DF01004801230480080809080A850E280F021018118413021401E3
:4002C0001640171019101B101E221F10204021082280271829222A802B103010310832413610370838483920480849104A08598062406C046D406F067F028040824183103B
:40030000880491259287944095409640973499209B029C089F04A004A140A508A684A713AB20B120B640C08FC2EFC4DFCA0FCC6FCE0ED608D808DE10E405EA080221030192
:40034000040106040C100E01121E140116081C011E022D023020321F330135023E043F10400141024210440345BC460E47FD483749FF4AFF4BFF4C224EF04F0C508C511083
:4003800056025728580459045A245B245C085D885E085F21684069016AC06B01D608D804D904DB04DC11DF010048012006800711080C0A820E92111012081D081E80261417
:4003C00029282C012E402F0130243110324138403F024508460447404C404E10548856015A205B405C205E206306642066046D026E126F117D087F018240830286809040EE
:40040000928294809714980899309C01A004A208A604A701AA80AD80B510C0B7C2BDC402CA16CC0FCE88D070D60CD84CDE50EA01B004B508B704E840EA01110135013F1025
:40044000580459045B045C115F01D804D904DC11DF010148034005100740082409800C040D800F08101014201602200828602B242C042D102E022F203012319034503508A5
:40048000374039103A023F4068026B0281408202870289808B40974098349B409D109E02A402A704AD40B010B104B740C05DC2E7C4A4CAE7CC7DCE15E020E403E830EA08D7
:4004C000EC084060410449FF4AFF4BFF4DA04F045018580459045A045C115D035F01604062C06440654066C068C06AC06CC06EC08418880289018A048D01910292019304F6
:40050000941899019A08A902AB04AC04AE02B010B101B208B306B401B606BE40BF04C060C104C5D0C612C80FC9FFCAFFCBFFCDAFCE0FCF04D018D280D804D904DA04DB04A2
:40054000DC33DD33DF01E040E2C0E440E540E6C0E8C0EAC0ECC0EEC002200308051007500A480B200C040F4810021602188019401A081B08210823802B082C142E023002A1
:40058000322034203520375038803B203F4840804480464049014A284E0C5180524053107240810895049740980499209D019E029FC0A580A608A704B080B120C076C27EA7
:4005C000C481CAE4CC35CE5CD081D224E001E8201E012A0132013E0454055604580459045B045C115D305F01D804D904DC11DF010124035006020712080409800C100F48A2
:40060000101012081342148415201740190428802B042F04334034043520374039243A023B483E023F4859055B806040830485108C40C0AEC255C4DFCA25CC78CEDFD60BDC
:40064000D801E2404020410349FF4AFF4BFF4DA04F045018580459045A045B045C115D025F01604062C06440654066C068C06AC06CC06EC08101820189018A048C0C8D0C8B
:400680008F12940C990A9B14A720AB20AC02AD01B008B106B204B318B401B520B602B701BE40BF15C030C102C5D0C610C702C83AC9FFCAFFCBFFCDAFCE0FCF04D018D28053
:4006C000D405D604D804D904DA04DB04DC22DD22DF01E040E2C0E440E540E6C0E8C0EAC0ECC0EEC00048012005110601080809080A020F2010801110130215401D901E606F
:400700001F20264A270829282E402F283080310832013610384039103D403F224328450446044F01560557195E805F096602694075017D087F20814086028A0A8D80904000
:4007400091109202980899289B02A004A880AB10B610B780C0D7C225C48ACA76CC2BCEBCD066D6D0D880E210E6A0EC200101020109011301160119011C0124012C01310188
:4007800032013E043F015608580459045B045C115F01810491019703B102B501B704BF50D420D604D804D904DB04DC01DF01004801280440052908080A020C280E020FA840
:4007C000111013021458160817821E202004218227402C402DA02E08300431023410350937113A013C403D023E103F08440146014D804E014F8058015C805E20600461809A
:40080000620863406404664086488740904091109212980899209A019B139D089F40A02CA101A201AA40AC80AF10B504C0F7C2F5C4FACAF0CCE3CEF1D631D83FEC40EC2084
:400840001101168032043340364439083E808E04C430CCF0CE6057806304834087049101950896089F40A640D440D840E240E6800310078091019608A640AB80AD04C030F0
:40088000EA10EE20878096089B90A640AD01E040E8107740DE0458085C026204674082049F40D603D8031B0227208340874097409C029F40A702AC08AF02C608C80144010B
:4008C000AB20B002D004E8042080864096089F08A640AB08B710C840E640E82017085A01632064086680800886048A818F1096089F08B040C420D6C0D8C0E6309C01B001C4
:40090000EC04000B010108030A030B010C020E0A10071A0700FF100A40000000001111000E1010001000000004FBFB000000000000FFFF00F000000000F3F300F0000000C1
:400940000001000000000000000000000000000000000000000000000000000000000000000000000000000000000000000000000000000000000000000000000000000076
:400980000000000000000000000000000000000000000000000000000000000000000000000000000000000000000000000000000000000000000000000000000000000037
:4009C00000000000000000000000000000000000000000000000000000000000000000000000000000000000000000000000000000000000000000000000000000000000F7
:400A000000000000000000000000000000000000000000000000000000000000000000000000000000000000000000000000000000000000000000000000000000000000B6
:400A40000000000000000000000000000000000000000000000000000000000000000000000000000000000000000000000000000000000000000000000000000000000076
:0200000490006A
:0400000000004005B7
:0200000490105A
:04000000BC90ACAF55
:0200000490303A
:020000003E6D53
:0200000490402A
:4000000000000000000000000000000000000000000000000000000000000000000000000000000000000000000000000000000000000000000000000000000000000000C0
:400040000000000000000000000000000000000000000000000000000000000000000000000000000000000000000000000000000000000000000000000000000000000080
:400080000000000000000000000000000000000000000000000000000000000000000000000000000000000000000000000000000000000000000000000000000000000040
:4000C0000000000000000000000000000000000000000000000000000000000000000000000000000000000000000000000000000000000000000000000000000000000000
:0200000490501A
:0C00000000012E16106900012E214ED6C2
:00000001FF